{"contracts/Greeting.sol":{"Greeting":{"abi":[{"inputs":[],"stateMutability":"nonpayable","type":"constructor"},{"inputs":[{"internalType":"uint256","name":"","type":"uint256"}],"name":"arr","outputs":[{"internalType":"uint256","name":"","type":"uint256"}],"stateMutability":"view","type":"function"},{"inputs":[],"name":"getAge","outputs":[{"internalType":"uint256","name":"","type":"uint256"}],"stateMutability":"view","type":"function"},{"inputs":[],"name":"getName","outputs":[{"internalType":"string","name":"","type":"string"}],"stateMutability":"view","type":"function"},{"inputs":[],"name":"getStructCount","outputs":[{"internalType":"uint256","name":"","type":"uint256"}],"stateMutability":"view","type":"function"},{"inputs":[],"name":"getStructFlag","outputs":[{"internalType":"bool","name":"","type":"bool"}],"stateMutability":"view","type":"function"},{"inputs":[],"name":"getStructId","outputs":[{"internalType":"uint256","name":"","type":"uint256"}],"stateMutability":"view","type":"function"},{"inputs":[],"name":"getStructTitle","outputs":[{"internalType":"string","name":"","type":"string"}],"stateMutability":"view","type":"function"},{"inputs":[{"internalType":"uint256","name":"_age","type":"uint256"}],"name":"setAge","outputs":[],"stateMutability":"nonpayable","type":"function"},{"inputs":[{"internalType":"string","name":"_name","type":"string"},{"internalType":"uint256","name":"_age","type":"uint256"}],"name":"setAttributes","outputs":[],"stateMutability":"payable","type":"function"},{"inputs":[{"internalType":"string","name":"_name","type":"string"}],"name":"setName","outputs":[],"stateMutability":"nonpayable","type":"function"}],"evm":{"bytecode":{"linkReferences":{},"object":"60806040523480156200001157600080fd5b506040518060400160405280600881526020017f4772656574696e6700000000000000000000000000000000000000000000000081525060009081620000589190620003b7565b5060126001819055506002600590806001815401808255809150506001900390600052602060002001600090919091909150556040518060800160405280600181526020016040518060400160405280600481526020017f7465737400000000000000000000000000000000000000000000000000000000815250815260200160018152602001600015158152506003600082015181600001556020820151816001019081620001099190620003b7565b506040820151816002015560608201518160030160006101000a81548160ff0219169083151502179055509050506200049e565b600081519050919050565b7f4e487b7100000000000000000000000000000000000000000000000000000000600052604160045260246000fd5b7f4e487b7100000000000000000000000000000000000000000000000000000000600052602260045260246000fd5b60006002820490506001821680620001bf57607f821691505b602082108103620001d557620001d462000177565b5b50919050565b60008190508160005260206000209050919050565b60006020601f8301049050919050565b600082821b905092915050565b6000600883026200023f7fffffffffffffffffffffffffffffffffffffffffffffffffffffffffffffffff8262000200565b6200024b868362000200565b95508019841693508086168417925050509392505050565b6000819050919050565b6000819050919050565b600062000298620002926200028c8462000263565b6200026d565b62000263565b9050919050565b6000819050919050565b620002b48362000277565b620002cc620002c3826200029f565b8484546200020d565b825550505050565b600090565b620002e3620002d4565b620002f0818484620002a9565b505050565b5b8181101562000318576200030c600082620002d9565b600181019050620002f6565b5050565b601f82111562000367576200033181620001db565b6200033c84620001f0565b810160208510156200034c578190505b620003646200035b85620001f0565b830182620002f5565b50505b505050565b600082821c905092915050565b60006200038c600019846008026200036c565b1980831691505092915050565b6000620003a7838362000379565b9150826002028217905092915050565b620003c2826200013d565b67ffffffffffffffff811115620003de57620003dd62000148565b5b620003ea8254620001a6565b620003f78282856200031c565b600060209050601f8311600181146200042f57600084156200041a578287015190505b62000426858262000399565b86555062000496565b601f1984166200043f86620001db565b60005b82811015620004695784890151825560018201915060208501945060208101905062000442565b8683101562000489578489015162000485601f89168262000379565b8355505b6001600288020188555050505b505050505050565b610a7a80620004ae6000396000f3fe6080604052600436106100915760003560e01c8063967e6e6511610059578063967e6e6514610170578063bc9fbf001461019b578063c47f0027146101c6578063d56451f1146101ef578063d5dcf1271461021a57610091565b80630e1d8c261461009657806317d7de7c146100c15780636266160d146100ec57806371e5ee5f1461011757806373c275bc14610154575b600080fd5b3480156100a257600080fd5b506100ab610243565b6040516100b8919061041e565b60405180910390f35b3480156100cd57600080fd5b506100d661025c565b6040516100e391906104c9565b60405180910390f35b3480156100f857600080fd5b506101016102ee565b60405161010e91906104c9565b60405180910390f35b34801561012357600080fd5b5061013e60048036038101906101399190610535565b610383565b60405161014b9190610571565b60405180910390f35b61016e600480360381019061016991906106c1565b6103a7565b005b34801561017c57600080fd5b506101856103c2565b6040516101929190610571565b60405180910390f35b3480156101a757600080fd5b506101b06103cc565b6040516101bd9190610571565b60405180910390f35b3480156101d257600080fd5b506101ed60048036038101906101e8919061071d565b6103d9565b005b3480156101fb57600080fd5b506102046103ec565b6040516102119190610571565b60405180910390f35b34801561022657600080fd5b50610241600480360381019061023c9190610535565b6103f9565b005b60006003800160009054906101000a900460ff16905090565b60606000805461026b90610795565b80601f016020809104026020016040519081016040528092919081815260200182805461029790610795565b80156102e45780601f106102b9576101008083540402835291602001916102e4565b820191906000526020600020905b8154815290600101906020018083116102c757829003601f168201915b5050505050905090565b60606003600101805461030090610795565b80601f016020809104026020016040519081016040528092919081815260200182805461032c90610795565b80156103795780601f1061034e57610100808354040283529160200191610379565b820191906000526020600020905b81548152906001019060200180831161035c57829003601f168201915b5050505050905090565b6002818154811061039357600080fd5b906000526020600020016000915090505481565b81600090816103b69190610972565b50806001819055505050565b6000600154905090565b6000600360020154905090565b80600090816103e89190610972565b5050565b6000600360000154905090565b8060018190555050565b60008115159050919050565b61041881610403565b82525050565b6000602082019050610433600083018461040f565b92915050565b600081519050919050565b600082825260208201905092915050565b60005b83811015610473578082015181840152602081019050610458565b60008484015250505050565b6000601f19601f8301169050919050565b600061049b82610439565b6104a58185610444565b93506104b5818560208601610455565b6104be8161047f565b840191505092915050565b600060208201905081810360008301526104e38184610490565b905092915050565b6000604051905090565b600080fd5b600080fd5b6000819050919050565b610512816104ff565b811461051d57600080fd5b50565b60008135905061052f81610509565b92915050565b60006020828403121561054b5761054a6104f5565b5b600061055984828501610520565b91505092915050565b61056b816104ff565b82525050565b60006020820190506105866000830184610562565b92915050565b600080fd5b600080fd5b7f4e487b7100000000000000000000000000000000000000000000000000000000600052604160045260246000fd5b6105ce8261047f565b810181811067ffffffffffffffff821117156105ed576105ec610596565b5b80604052505050565b60006106006104eb565b905061060c82826105c5565b919050565b600067ffffffffffffffff82111561062c5761062b610596565b5b6106358261047f565b9050602081019050919050565b82818337600083830152505050565b600061066461065f84610611565b6105f6565b9050828152602081018484840111156106805761067f610591565b5b61068b848285610642565b509392505050565b600082601f8301126106a8576106a761058c565b5b81356106b8848260208601610651565b91505092915050565b600080604083850312156106d8576106d76104f5565b5b600083013567ffffffffffffffff8111156106f6576106f56104fa565b5b61070285828601610693565b925050602061071385828601610520565b9150509250929050565b600060208284031215610733576107326104f5565b5b600082013567ffffffffffffffff811115610751576107506104fa565b5b61075d84828501610693565b91505092915050565b7f4e487b7100000000000000000000000000000000000000000000000000000000600052602260045260246000fd5b600060028204905060018216806107ad57607f821691505b6020821081036107c0576107bf610766565b5b50919050565b60008190508160005260206000209050919050565b60006020601f8301049050919050565b600082821b905092915050565b6000600883026108287fffffffffffffffffffffffffffffffffffffffffffffffffffffffffffffffff826107eb565b61083286836107eb565b95508019841693508086168417925050509392505050565b6000819050919050565b600061086f61086a610865846104ff565b61084a565b6104ff565b9050919050565b6000819050919050565b61088983610854565b61089d61089582610876565b8484546107f8565b825550505050565b600090565b6108b26108a5565b6108bd818484610880565b505050565b5b818110156108e1576108d66000826108aa565b6001810190506108c3565b5050565b601f821115610926576108f7816107c6565b610900846107db565b8101602085101561090f578190505b61092361091b856107db565b8301826108c2565b50505b505050565b600082821c905092915050565b60006109496000198460080261092b565b1980831691505092915050565b60006109628383610938565b9150826002028217905092915050565b61097b82610439565b67ffffffffffffffff81111561099457610993610596565b5b61099e8254610795565b6109a98282856108e5565b600060209050601f8311600181146109dc57600084156109ca578287015190505b6109d48582610956565b865550610a3c565b601f1984166109ea866107c6565b60005b82811015610a12578489015182556001820191506020850194506020810190506109ed565b86831015610a2f5784890151610a2b601f891682610938565b8355505b6001600288020188555050505b50505050505056fea2646970667358221220920e105e517d69c876b0a6b28c4fb655ee9eb50bbf1c149afe8dd902fbc3bc5964736f6c63430008120033","opcodes":"PUSH1 0x80 PUSH1 0x40 MSTORE CALLVALUE DUP1 ISZERO PUSH3 0x11 JUMPI PUSH1 0x0 DUP1 REVERT JUMPDEST POP PUSH1 0x40 MLOAD DUP1 PUSH1 0x40 ADD PUSH1 0x40 MSTORE DUP1 PUSH1 0x8 DUP2 MSTORE PUSH1 0x20 ADD PUSH32 0x4772656574696E67000000000000000000000000000000000000000000000000 DUP2 MSTORE POP PUSH1 0x0 SWAP1 DUP2 PUSH3 0x58 SWAP2 SWAP1 PUSH3 0x3B7 JUMP JUMPDEST POP PUSH1 0x12 PUSH1 0x1 DUP2 SWAP1 SSTORE POP PUSH1 0x2 PUSH1 0x5 SWAP1 DUP1 PUSH1 0x1 DUP2 SLOAD ADD DUP1 DUP3 SSTORE DUP1 SWAP2 POP POP PUSH1 0x1 SWAP1 SUB SWAP1 PUSH1 0x0 MSTORE PUSH1 0x20 PUSH1 0x0 KECCAK256 ADD PUSH1 0x0 SWAP1 SWAP2 SWAP1 SWAP2 SWAP1 SWAP2 POP SSTORE PUSH1 0x40 MLOAD DUP1 PUSH1 0x80 ADD PUSH1 0x40 MSTORE DUP1 PUSH1 0x1 DUP2 MSTORE PUSH1 0x20 ADD PUSH1 0x40 MLOAD DUP1 PUSH1 0x40 ADD PUSH1 0x40 MSTORE DUP1 PUSH1 0x4 DUP2 MSTORE PUSH1 0x20 ADD PUSH32 0x7465737400000000000000000000000000000000000000000000000000000000 DUP2 MSTORE POP DUP2 MSTORE PUSH1 0x20 ADD PUSH1 0x1 DUP2 MSTORE PUSH1 0x20 ADD PUSH1 0x0 ISZERO ISZERO DUP2 MSTORE POP PUSH1 0x3 PUSH1 0x0 DUP3 ADD MLOAD DUP2 PUSH1 0x0 ADD SSTORE PUSH1 0x20 DUP3 ADD MLOAD DUP2 PUSH1 0x1 ADD SWAP1 DUP2 PUSH3 0x109 SWAP2 SWAP1 PUSH3 0x3B7 JUMP JUMPDEST POP PUSH1 0x40 DUP3 ADD MLOAD DUP2 PUSH1 0x2 ADD SSTORE PUSH1 0x60 DUP3 ADD MLOAD DUP2 PUSH1 0x3 ADD PUSH1 0x0 PUSH2 0x100 EXP DUP2 SLOAD DUP2 PUSH1 0xFF MUL NOT AND SWAP1 DUP4 ISZERO ISZERO MUL OR SWAP1 SSTORE POP SWAP1 POP POP PUSH3 0x49E JUMP JUMPDEST PUSH1 0x0 DUP2 MLOAD SWAP1 POP SWAP2 SWAP1 POP JUMP JUMPDEST PUSH32 0x4E487B7100000000000000000000000000000000000000000000000000000000 PUSH1 0x0 MSTORE PUSH1 0x41 PUSH1 0x4 MSTORE PUSH1 0x24 PUSH1 0x0 REVERT JUMPDEST PUSH32 0x4E487B7100000000000000000000000000000000000000000000000000000000 PUSH1 0x0 MSTORE PUSH1 0x22 PUSH1 0x4 MSTORE PUSH1 0x24 PUSH1 0x0 REVERT JUMPDEST PUSH1 0x0 PUSH1 0x2 DUP3 DIV SWAP1 POP PUSH1 0x1 DUP3 AND DUP1 PUSH3 0x1BF JUMPI PUSH1 0x7F DUP3 AND SWAP2 POP JUMPDEST PUSH1 0x20 DUP3 LT DUP2 SUB PUSH3 0x1D5 JUMPI PUSH3 0x1D4 PUSH3 0x177 JUMP JUMPDEST JUMPDEST POP SWAP2 SWAP1 POP JUMP JUMPDEST PUSH1 0x0 DUP2 SWAP1 POP DUP2 PUSH1 0x0 MSTORE PUSH1 0x20 PUSH1 0x0 KECCAK256 SWAP1 POP SWAP2 SWAP1 POP JUMP JUMPDEST PUSH1 0x0 PUSH1 0x20 PUSH1 0x1F DUP4 ADD DIV SWAP1 POP SWAP2 SWAP1 POP JUMP JUMPDEST PUSH1 0x0 DUP3 DUP3 SHL SWAP1 POP SWAP3 SWAP2 POP POP JUMP JUMPDEST PUSH1 0x0 PUSH1 0x8 DUP4 MUL PUSH3 0x23F PUSH32 0xFFFFFFFFFFFFFFFFFFFFFFFFFFFFFFFFFFFFFFFFFFFFFFFFFFFFFFFFFFFFFFFF DUP3 PUSH3 0x200 JUMP JUMPDEST PUSH3 0x24B DUP7 DUP4 PUSH3 0x200 JUMP JUMPDEST SWAP6 POP DUP1 NOT DUP5 AND SWAP4 POP DUP1 DUP7 AND DUP5 OR SWAP3 POP POP POP SWAP4 SWAP3 POP POP POP JUMP JUMPDEST PUSH1 0x0 DUP2 SWAP1 POP SWAP2 SWAP1 POP JUMP JUMPDEST PUSH1 0x0 DUP2 SWAP1 POP SWAP2 SWAP1 POP JUMP JUMPDEST PUSH1 0x0 PUSH3 0x298 PUSH3 0x292 PUSH3 0x28C DUP5 PUSH3 0x263 JUMP JUMPDEST PUSH3 0x26D JUMP JUMPDEST PUSH3 0x263 JUMP JUMPDEST SWAP1 POP SWAP2 SWAP1 POP JUMP JUMPDEST PUSH1 0x0 DUP2 SWAP1 POP SWAP2 SWAP1 POP JUMP JUMPDEST PUSH3 0x2B4 DUP4 PUSH3 0x277 JUMP JUMPDEST PUSH3 0x2CC PUSH3 0x2C3 DUP3 PUSH3 0x29F JUMP JUMPDEST DUP5 DUP5 SLOAD PUSH3 0x20D JUMP JUMPDEST DUP3 SSTORE POP POP POP POP JUMP JUMPDEST PUSH1 0x0 SWAP1 JUMP JUMPDEST PUSH3 0x2E3 PUSH3 0x2D4 JUMP JUMPDEST PUSH3 0x2F0 DUP2 DUP5 DUP5 PUSH3 0x2A9 JUMP JUMPDEST POP POP POP JUMP JUMPDEST JUMPDEST DUP2 DUP2 LT ISZERO PUSH3 0x318 JUMPI PUSH3 0x30C PUSH1 0x0 DUP3 PUSH3 0x2D9 JUMP JUMPDEST PUSH1 0x1 DUP2 ADD SWAP1 POP PUSH3 0x2F6 JUMP JUMPDEST POP POP JUMP JUMPDEST PUSH1 0x1F DUP3 GT ISZERO PUSH3 0x367 JUMPI PUSH3 0x331 DUP2 PUSH3 0x1DB JUMP JUMPDEST PUSH3 0x33C DUP5 PUSH3 0x1F0 JUMP JUMPDEST DUP2 ADD PUSH1 0x20 DUP6 LT ISZERO PUSH3 0x34C JUMPI DUP2 SWAP1 POP JUMPDEST PUSH3 0x364 PUSH3 0x35B DUP6 PUSH3 0x1F0 JUMP JUMPDEST DUP4 ADD DUP3 PUSH3 0x2F5 JUMP JUMPDEST POP POP JUMPDEST POP POP POP JUMP JUMPDEST PUSH1 0x0 DUP3 DUP3 SHR SWAP1 POP SWAP3 SWAP2 POP POP JUMP JUMPDEST PUSH1 0x0 PUSH3 0x38C PUSH1 0x0 NOT DUP5 PUSH1 0x8 MUL PUSH3 0x36C JUMP JUMPDEST NOT DUP1 DUP4 AND SWAP2 POP POP SWAP3 SWAP2 POP POP JUMP JUMPDEST PUSH1 0x0 PUSH3 0x3A7 DUP4 DUP4 PUSH3 0x379 JUMP JUMPDEST SWAP2 POP DUP3 PUSH1 0x2 MUL DUP3 OR SWAP1 POP SWAP3 SWAP2 POP POP JUMP JUMPDEST PUSH3 0x3C2 DUP3 PUSH3 0x13D JUMP JUMPDEST PUSH8 0xFFFFFFFFFFFFFFFF DUP2 GT ISZERO PUSH3 0x3DE JUMPI PUSH3 0x3DD PUSH3 0x148 JUMP JUMPDEST JUMPDEST PUSH3 0x3EA DUP3 SLOAD PUSH3 0x1A6 JUMP JUMPDEST PUSH3 0x3F7 DUP3 DUP3 DUP6 PUSH3 0x31C JUMP JUMPDEST PUSH1 0x0 PUSH1 0x20 SWAP1 POP PUSH1 0x1F DUP4 GT PUSH1 0x1 DUP2 EQ PUSH3 0x42F JUMPI PUSH1 0x0 DUP5 ISZERO PUSH3 0x41A JUMPI DUP3 DUP8 ADD MLOAD SWAP1 POP JUMPDEST PUSH3 0x426 DUP6 DUP3 PUSH3 0x399 JUMP JUMPDEST DUP7 SSTORE POP PUSH3 0x496 JUMP JUMPDEST PUSH1 0x1F NOT DUP5 AND PUSH3 0x43F DUP7 PUSH3 0x1DB JUMP JUMPDEST PUSH1 0x0 JUMPDEST DUP3 DUP2 LT ISZERO PUSH3 0x469 JUMPI DUP5 DUP10 ADD MLOAD DUP3 SSTORE PUSH1 0x1 DUP3 ADD SWAP2 POP PUSH1 0x20 DUP6 ADD SWAP5 POP PUSH1 0x20 DUP2 ADD SWAP1 POP PUSH3 0x442 JUMP JUMPDEST DUP7 DUP4 LT ISZERO PUSH3 0x489 JUMPI DUP5 DUP10 ADD MLOAD PUSH3 0x485 PUSH1 0x1F DUP10 AND DUP3 PUSH3 0x379 JUMP JUMPDEST DUP4 SSTORE POP JUMPDEST PUSH1 0x1 PUSH1 0x2 DUP9 MUL ADD DUP9 SSTORE POP POP POP JUMPDEST POP POP POP POP POP POP JUMP JUMPDEST PUSH2 0xA7A DUP1 PUSH3 0x4AE PUSH1 0x0 CODECOPY PUSH1 0x0 RETURN INVALID PUSH1 0x80 PUSH1 0x40 MSTORE PUSH1 0x4 CALLDATASIZE LT PUSH2 0x91 JUMPI PUSH1 0x0 CALLDATALOAD PUSH1 0xE0 SHR DUP1 PUSH4 0x967E6E65 GT PUSH2 0x59 JUMPI DUP1 PUSH4 0x967E6E65 EQ PUSH2 0x170 JUMPI DUP1 PUSH4 0xBC9FBF00 EQ PUSH2 0x19B JUMPI DUP1 PUSH4 0xC47F0027 EQ PUSH2 0x1C6 JUMPI DUP1 PUSH4 0xD56451F1 EQ PUSH2 0x1EF JUMPI DUP1 PUSH4 0xD5DCF127 EQ PUSH2 0x21A JUMPI PUSH2 0x91 JUMP JUMPDEST DUP1 PUSH4 0xE1D8C26 EQ PUSH2 0x96 JUMPI DUP1 PUSH4 0x17D7DE7C EQ PUSH2 0xC1 JUMPI DUP1 PUSH4 0x6266160D EQ PUSH2 0xEC JUMPI DUP1 PUSH4 0x71E5EE5F EQ PUSH2 0x117 JUMPI DUP1 PUSH4 0x73C275BC EQ PUSH2 0x154 JUMPI JUMPDEST PUSH1 0x0 DUP1 REVERT JUMPDEST CALLVALUE DUP1 ISZERO PUSH2 0xA2 JUMPI PUSH1 0x0 DUP1 REVERT JUMPDEST POP PUSH2 0xAB PUSH2 0x243 JUMP JUMPDEST PUSH1 0x40 MLOAD PUSH2 0xB8 SWAP2 SWAP1 PUSH2 0x41E JUMP JUMPDEST PUSH1 0x40 MLOAD DUP1 SWAP2 SUB SWAP1 RETURN JUMPDEST CALLVALUE DUP1 ISZERO PUSH2 0xCD JUMPI PUSH1 0x0 DUP1 REVERT JUMPDEST POP PUSH2 0xD6 PUSH2 0x25C JUMP JUMPDEST PUSH1 0x40 MLOAD PUSH2 0xE3 SWAP2 SWAP1 PUSH2 0x4C9 JUMP JUMPDEST PUSH1 0x40 MLOAD DUP1 SWAP2 SUB SWAP1 RETURN JUMPDEST CALLVALUE DUP1 ISZERO PUSH2 0xF8 JUMPI PUSH1 0x0 DUP1 REVERT JUMPDEST POP PUSH2 0x101 PUSH2 0x2EE JUMP JUMPDEST PUSH1 0x40 MLOAD PUSH2 0x10E SWAP2 SWAP1 PUSH2 0x4C9 JUMP JUMPDEST PUSH1 0x40 MLOAD DUP1 SWAP2 SUB SWAP1 RETURN JUMPDEST CALLVALUE DUP1 ISZERO PUSH2 0x123 JUMPI PUSH1 0x0 DUP1 REVERT JUMPDEST POP PUSH2 0x13E PUSH1 0x4 DUP1 CALLDATASIZE SUB DUP2 ADD SWAP1 PUSH2 0x139 SWAP2 SWAP1 PUSH2 0x535 JUMP JUMPDEST PUSH2 0x383 JUMP JUMPDEST PUSH1 0x40 MLOAD PUSH2 0x14B SWAP2 SWAP1 PUSH2 0x571 JUMP JUMPDEST PUSH1 0x40 MLOAD DUP1 SWAP2 SUB SWAP1 RETURN JUMPDEST PUSH2 0x16E PUSH1 0x4 DUP1 CALLDATASIZE SUB DUP2 ADD SWAP1 PUSH2 0x169 SWAP2 SWAP1 PUSH2 0x6C1 JUMP JUMPDEST PUSH2 0x3A7 JUMP JUMPDEST STOP JUMPDEST CALLVALUE DUP1 ISZERO PUSH2 0x17C JUMPI PUSH1 0x0 DUP1 REVERT JUMPDEST POP PUSH2 0x185 PUSH2 0x3C2 JUMP JUMPDEST PUSH1 0x40 MLOAD PUSH2 0x192 SWAP2 SWAP1 PUSH2 0x571 JUMP JUMPDEST PUSH1 0x40 MLOAD DUP1 SWAP2 SUB SWAP1 RETURN JUMPDEST CALLVALUE DUP1 ISZERO PUSH2 0x1A7 JUMPI PUSH1 0x0 DUP1 REVERT JUMPDEST POP PUSH2 0x1B0 PUSH2 0x3CC JUMP JUMPDEST PUSH1 0x40 MLOAD PUSH2 0x1BD SWAP2 SWAP1 PUSH2 0x571 JUMP JUMPDEST PUSH1 0x40 MLOAD DUP1 SWAP2 SUB SWAP1 RETURN JUMPDEST CALLVALUE DUP1 ISZERO PUSH2 0x1D2 JUMPI PUSH1 0x0 DUP1 REVERT JUMPDEST POP PUSH2 0x1ED PUSH1 0x4 DUP1 CALLDATASIZE SUB DUP2 ADD SWAP1 PUSH2 0x1E8 SWAP2 SWAP1 PUSH2 0x71D JUMP JUMPDEST PUSH2 0x3D9 JUMP JUMPDEST STOP JUMPDEST CALLVALUE DUP1 ISZERO PUSH2 0x1FB JUMPI PUSH1 0x0 DUP1 REVERT JUMPDEST POP PUSH2 0x204 PUSH2 0x3EC JUMP JUMPDEST PUSH1 0x40 MLOAD PUSH2 0x211 SWAP2 SWAP1 PUSH2 0x571 JUMP JUMPDEST PUSH1 0x40 MLOAD DUP1 SWAP2 SUB SWAP1 RETURN JUMPDEST CALLVALUE DUP1 ISZERO PUSH2 0x226 JUMPI PUSH1 0x0 DUP1 REVERT JUMPDEST POP PUSH2 0x241 PUSH1 0x4 DUP1 CALLDATASIZE SUB DUP2 ADD SWAP1 PUSH2 0x23C SWAP2 SWAP1 PUSH2 0x535 JUMP JUMPDEST PUSH2 0x3F9 JUMP JUMPDEST STOP JUMPDEST PUSH1 0x0 PUSH1 0x3 DUP1 ADD PUSH1 0x0 SWAP1 SLOAD SWAP1 PUSH2 0x100 EXP SWAP1 DIV PUSH1 0xFF AND SWAP1 POP SWAP1 JUMP JUMPDEST PUSH1 0x60 PUSH1 0x0 DUP1 SLOAD PUSH2 0x26B SWAP1 PUSH2 0x795 JUMP JUMPDEST DUP1 PUSH1 0x1F ADD PUSH1 0x20 DUP1 SWAP2 DIV MUL PUSH1 0x20 ADD PUSH1 0x40 MLOAD SWAP1 DUP2 ADD PUSH1 0x40 MSTORE DUP1 SWAP3 SWAP2 SWAP1 DUP2 DUP2 MSTORE PUSH1 0x20 ADD DUP3 DUP1 SLOAD PUSH2 0x297 SWAP1 PUSH2 0x795 JUMP JUMPDEST DUP1 ISZERO PUSH2 0x2E4 JUMPI DUP1 PUSH1 0x1F LT PUSH2 0x2B9 JUMPI PUSH2 0x100 DUP1 DUP4 SLOAD DIV MUL DUP4 MSTORE SWAP2 PUSH1 0x20 ADD SWAP2 PUSH2 0x2E4 JUMP JUMPDEST DUP3 ADD SWAP2 SWAP1 PUSH1 0x0 MSTORE PUSH1 0x20 PUSH1 0x0 KECCAK256 SWAP1 JUMPDEST DUP2 SLOAD DUP2 MSTORE SWAP1 PUSH1 0x1 ADD SWAP1 PUSH1 0x20 ADD DUP1 DUP4 GT PUSH2 0x2C7 JUMPI DUP3 SWAP1 SUB PUSH1 0x1F AND DUP3 ADD SWAP2 JUMPDEST POP POP POP POP POP SWAP1 POP SWAP1 JUMP JUMPDEST PUSH1 0x60 PUSH1 0x3 PUSH1 0x1 ADD DUP1 SLOAD PUSH2 0x300 SWAP1 PUSH2 0x795 JUMP JUMPDEST DUP1 PUSH1 0x1F ADD PUSH1 0x20 DUP1 SWAP2 DIV MUL PUSH1 0x20 ADD PUSH1 0x40 MLOAD SWAP1 DUP2 ADD PUSH1 0x40 MSTORE DUP1 SWAP3 SWAP2 SWAP1 DUP2 DUP2 MSTORE PUSH1 0x20 ADD DUP3 DUP1 SLOAD PUSH2 0x32C SWAP1 PUSH2 0x795 JUMP JUMPDEST DUP1 ISZERO PUSH2 0x379 JUMPI DUP1 PUSH1 0x1F LT PUSH2 0x34E JUMPI PUSH2 0x100 DUP1 DUP4 SLOAD DIV MUL DUP4 MSTORE SWAP2 PUSH1 0x20 ADD SWAP2 PUSH2 0x379 JUMP JUMPDEST DUP3 ADD SWAP2 SWAP1 PUSH1 0x0 MSTORE PUSH1 0x20 PUSH1 0x0 KECCAK256 SWAP1 JUMPDEST DUP2 SLOAD DUP2 MSTORE SWAP1 PUSH1 0x1 ADD SWAP1 PUSH1 0x20 ADD DUP1 DUP4 GT PUSH2 0x35C JUMPI DUP3 SWAP1 SUB PUSH1 0x1F AND DUP3 ADD SWAP2 JUMPDEST POP POP POP POP POP SWAP1 POP SWAP1 JUMP JUMPDEST PUSH1 0x2 DUP2 DUP2 SLOAD DUP2 LT PUSH2 0x393 JUMPI PUSH1 0x0 DUP1 REVERT JUMPDEST SWAP1 PUSH1 0x0 MSTORE PUSH1 0x20 PUSH1 0x0 KECCAK256 ADD PUSH1 0x0 SWAP2 POP SWAP1 POP SLOAD DUP2 JUMP JUMPDEST DUP2 PUSH1 0x0 SWAP1 DUP2 PUSH2 0x3B6 SWAP2 SWAP1 PUSH2 0x972 JUMP JUMPDEST POP DUP1 PUSH1 0x1 DUP2 SWAP1 SSTORE POP POP POP JUMP JUMPDEST PUSH1 0x0 PUSH1 0x1 SLOAD SWAP1 POP SWAP1 JUMP JUMPDEST PUSH1 0x0 PUSH1 0x3 PUSH1 0x2 ADD SLOAD SWAP1 POP SWAP1 JUMP JUMPDEST DUP1 PUSH1 0x0 SWAP1 DUP2 PUSH2 0x3E8 SWAP2 SWAP1 PUSH2 0x972 JUMP JUMPDEST POP POP JUMP JUMPDEST PUSH1 0x0 PUSH1 0x3 PUSH1 0x0 ADD SLOAD SWAP1 POP SWAP1 JUMP JUMPDEST DUP1 PUSH1 0x1 DUP2 SWAP1 SSTORE POP POP JUMP JUMPDEST PUSH1 0x0 DUP2 ISZERO ISZERO SWAP1 POP SWAP2 SWAP1 POP JUMP JUMPDEST PUSH2 0x418 DUP2 PUSH2 0x403 JUMP JUMPDEST DUP3 MSTORE POP POP JUMP JUMPDEST PUSH1 0x0 PUSH1 0x20 DUP3 ADD SWAP1 POP PUSH2 0x433 PUSH1 0x0 DUP4 ADD DUP5 PUSH2 0x40F JUMP JUMPDEST SWAP3 SWAP2 POP POP JUMP JUMPDEST PUSH1 0x0 DUP2 MLOAD SWAP1 POP SWAP2 SWAP1 POP JUMP JUMPDEST PUSH1 0x0 DUP3 DUP3 MSTORE PUSH1 0x20 DUP3 ADD SWAP1 POP SWAP3 SWAP2 POP POP JUMP JUMPDEST PUSH1 0x0 JUMPDEST DUP4 DUP2 LT ISZERO PUSH2 0x473 JUMPI DUP1 DUP3 ADD MLOAD DUP2 DUP5 ADD MSTORE PUSH1 0x20 DUP2 ADD SWAP1 POP PUSH2 0x458 JUMP JUMPDEST PUSH1 0x0 DUP5 DUP5 ADD MSTORE POP POP POP POP JUMP JUMPDEST PUSH1 0x0 PUSH1 0x1F NOT PUSH1 0x1F DUP4 ADD AND SWAP1 POP SWAP2 SWAP1 POP JUMP JUMPDEST PUSH1 0x0 PUSH2 0x49B DUP3 PUSH2 0x439 JUMP JUMPDEST PUSH2 0x4A5 DUP2 DUP6 PUSH2 0x444 JUMP JUMPDEST SWAP4 POP PUSH2 0x4B5 DUP2 DUP6 PUSH1 0x20 DUP7 ADD PUSH2 0x455 JUMP JUMPDEST PUSH2 0x4BE DUP2 PUSH2 0x47F JUMP JUMPDEST DUP5 ADD SWAP2 POP POP SWAP3 SWAP2 POP POP JUMP JUMPDEST PUSH1 0x0 PUSH1 0x20 DUP3 ADD SWAP1 POP DUP2 DUP2 SUB PUSH1 0x0 DUP4 ADD MSTORE PUSH2 0x4E3 DUP2 DUP5 PUSH2 0x490 JUMP JUMPDEST SWAP1 POP SWAP3 SWAP2 POP POP JUMP JUMPDEST PUSH1 0x0 PUSH1 0x40 MLOAD SWAP1 POP SWAP1 JUMP JUMPDEST PUSH1 0x0 DUP1 REVERT JUMPDEST PUSH1 0x0 DUP1 REVERT JUMPDEST PUSH1 0x0 DUP2 SWAP1 POP SWAP2 SWAP1 POP JUMP JUMPDEST PUSH2 0x512 DUP2 PUSH2 0x4FF JUMP JUMPDEST DUP2 EQ PUSH2 0x51D JUMPI PUSH1 0x0 DUP1 REVERT JUMPDEST POP JUMP JUMPDEST PUSH1 0x0 DUP2 CALLDATALOAD SWAP1 POP PUSH2 0x52F DUP2 PUSH2 0x509 JUMP JUMPDEST SWAP3 SWAP2 POP POP JUMP JUMPDEST PUSH1 0x0 PUSH1 0x20 DUP3 DUP5 SUB SLT ISZERO PUSH2 0x54B JUMPI PUSH2 0x54A PUSH2 0x4F5 JUMP JUMPDEST JUMPDEST PUSH1 0x0 PUSH2 0x559 DUP5 DUP3 DUP6 ADD PUSH2 0x520 JUMP JUMPDEST SWAP2 POP POP SWAP3 SWAP2 POP POP JUMP JUMPDEST PUSH2 0x56B DUP2 PUSH2 0x4FF JUMP JUMPDEST DUP3 MSTORE POP POP JUMP JUMPDEST PUSH1 0x0 PUSH1 0x20 DUP3 ADD SWAP1 POP PUSH2 0x586 PUSH1 0x0 DUP4 ADD DUP5 PUSH2 0x562 JUMP JUMPDEST SWAP3 SWAP2 POP POP JUMP JUMPDEST PUSH1 0x0 DUP1 REVERT JUMPDEST PUSH1 0x0 DUP1 REVERT JUMPDEST PUSH32 0x4E487B7100000000000000000000000000000000000000000000000000000000 PUSH1 0x0 MSTORE PUSH1 0x41 PUSH1 0x4 MSTORE PUSH1 0x24 PUSH1 0x0 REVERT JUMPDEST PUSH2 0x5CE DUP3 PUSH2 0x47F JUMP JUMPDEST DUP2 ADD DUP2 DUP2 LT PUSH8 0xFFFFFFFFFFFFFFFF DUP3 GT OR ISZERO PUSH2 0x5ED JUMPI PUSH2 0x5EC PUSH2 0x596 JUMP JUMPDEST JUMPDEST DUP1 PUSH1 0x40 MSTORE POP POP POP JUMP JUMPDEST PUSH1 0x0 PUSH2 0x600 PUSH2 0x4EB JUMP JUMPDEST SWAP1 POP PUSH2 0x60C DUP3 DUP3 PUSH2 0x5C5 JUMP JUMPDEST SWAP2 SWAP1 POP JUMP JUMPDEST PUSH1 0x0 PUSH8 0xFFFFFFFFFFFFFFFF DUP3 GT ISZERO PUSH2 0x62C JUMPI PUSH2 0x62B PUSH2 0x596 JUMP JUMPDEST JUMPDEST PUSH2 0x635 DUP3 PUSH2 0x47F JUMP JUMPDEST SWAP1 POP PUSH1 0x20 DUP2 ADD SWAP1 POP SWAP2 SWAP1 POP JUMP JUMPDEST DUP3 DUP2 DUP4 CALLDATACOPY PUSH1 0x0 DUP4 DUP4 ADD MSTORE POP POP POP JUMP JUMPDEST PUSH1 0x0 PUSH2 0x664 PUSH2 0x65F DUP5 PUSH2 0x611 JUMP JUMPDEST PUSH2 0x5F6 JUMP JUMPDEST SWAP1 POP DUP3 DUP2 MSTORE PUSH1 0x20 DUP2 ADD DUP5 DUP5 DUP5 ADD GT ISZERO PUSH2 0x680 JUMPI PUSH2 0x67F PUSH2 0x591 JUMP JUMPDEST JUMPDEST PUSH2 0x68B DUP5 DUP3 DUP6 PUSH2 0x642 JUMP JUMPDEST POP SWAP4 SWAP3 POP POP POP JUMP JUMPDEST PUSH1 0x0 DUP3 PUSH1 0x1F DUP4 ADD SLT PUSH2 0x6A8 JUMPI PUSH2 0x6A7 PUSH2 0x58C JUMP JUMPDEST JUMPDEST DUP2 CALLDATALOAD PUSH2 0x6B8 DUP5 DUP3 PUSH1 0x20 DUP7 ADD PUSH2 0x651 JUMP JUMPDEST SWAP2 POP POP SWAP3 SWAP2 POP POP JUMP JUMPDEST PUSH1 0x0 DUP1 PUSH1 0x40 DUP4 DUP6 SUB SLT ISZERO PUSH2 0x6D8 JUMPI PUSH2 0x6D7 PUSH2 0x4F5 JUMP JUMPDEST JUMPDEST PUSH1 0x0 DUP4 ADD CALLDATALOAD PUSH8 0xFFFFFFFFFFFFFFFF DUP2 GT ISZERO PUSH2 0x6F6 JUMPI PUSH2 0x6F5 PUSH2 0x4FA JUMP JUMPDEST JUMPDEST PUSH2 0x702 DUP6 DUP3 DUP7 ADD PUSH2 0x693 JUMP JUMPDEST SWAP3 POP POP PUSH1 0x20 PUSH2 0x713 DUP6 DUP3 DUP7 ADD PUSH2 0x520 JUMP JUMPDEST SWAP2 POP POP SWAP3 POP SWAP3 SWAP1 POP JUMP JUMPDEST PUSH1 0x0 PUSH1 0x20 DUP3 DUP5 SUB SLT ISZERO PUSH2 0x733 JUMPI PUSH2 0x732 PUSH2 0x4F5 JUMP JUMPDEST JUMPDEST PUSH1 0x0 DUP3 ADD CALLDATALOAD PUSH8 0xFFFFFFFFFFFFFFFF DUP2 GT ISZERO PUSH2 0x751 JUMPI PUSH2 0x750 PUSH2 0x4FA JUMP JUMPDEST JUMPDEST PUSH2 0x75D DUP5 DUP3 DUP6 ADD PUSH2 0x693 JUMP JUMPDEST SWAP2 POP POP SWAP3 SWAP2 POP POP JUMP JUMPDEST PUSH32 0x4E487B7100000000000000000000000000000000000000000000000000000000 PUSH1 0x0 MSTORE PUSH1 0x22 PUSH1 0x4 MSTORE PUSH1 0x24 PUSH1 0x0 REVERT JUMPDEST PUSH1 0x0 PUSH1 0x2 DUP3 DIV SWAP1 POP PUSH1 0x1 DUP3 AND DUP1 PUSH2 0x7AD JUMPI PUSH1 0x7F DUP3 AND SWAP2 POP JUMPDEST PUSH1 0x20 DUP3 LT DUP2 SUB PUSH2 0x7C0 JUMPI PUSH2 0x7BF PUSH2 0x766 JUMP JUMPDEST JUMPDEST POP SWAP2 SWAP1 POP JUMP JUMPDEST PUSH1 0x0 DUP2 SWAP1 POP DUP2 PUSH1 0x0 MSTORE PUSH1 0x20 PUSH1 0x0 KECCAK256 SWAP1 POP SWAP2 SWAP1 POP JUMP JUMPDEST PUSH1 0x0 PUSH1 0x20 PUSH1 0x1F DUP4 ADD DIV SWAP1 POP SWAP2 SWAP1 POP JUMP JUMPDEST PUSH1 0x0 DUP3 DUP3 SHL SWAP1 POP SWAP3 SWAP2 POP POP JUMP JUMPDEST PUSH1 0x0 PUSH1 0x8 DUP4 MUL PUSH2 0x828 PUSH32 0xFFFFFFFFFFFFFFFFFFFFFFFFFFFFFFFFFFFFFFFFFFFFFFFFFFFFFFFFFFFFFFFF DUP3 PUSH2 0x7EB JUMP JUMPDEST PUSH2 0x832 DUP7 DUP4 PUSH2 0x7EB JUMP JUMPDEST SWAP6 POP DUP1 NOT DUP5 AND SWAP4 POP DUP1 DUP7 AND DUP5 OR SWAP3 POP POP POP SWAP4 SWAP3 POP POP POP JUMP JUMPDEST PUSH1 0x0 DUP2 SWAP1 POP SWAP2 SWAP1 POP JUMP JUMPDEST PUSH1 0x0 PUSH2 0x86F PUSH2 0x86A PUSH2 0x865 DUP5 PUSH2 0x4FF JUMP JUMPDEST PUSH2 0x84A JUMP JUMPDEST PUSH2 0x4FF JUMP JUMPDEST SWAP1 POP SWAP2 SWAP1 POP JUMP JUMPDEST PUSH1 0x0 DUP2 SWAP1 POP SWAP2 SWAP1 POP JUMP JUMPDEST PUSH2 0x889 DUP4 PUSH2 0x854 JUMP JUMPDEST PUSH2 0x89D PUSH2 0x895 DUP3 PUSH2 0x876 JUMP JUMPDEST DUP5 DUP5 SLOAD PUSH2 0x7F8 JUMP JUMPDEST DUP3 SSTORE POP POP POP POP JUMP JUMPDEST PUSH1 0x0 SWAP1 JUMP JUMPDEST PUSH2 0x8B2 PUSH2 0x8A5 JUMP JUMPDEST PUSH2 0x8BD DUP2 DUP5 DUP5 PUSH2 0x880 JUMP JUMPDEST POP POP POP JUMP JUMPDEST JUMPDEST DUP2 DUP2 LT ISZERO PUSH2 0x8E1 JUMPI PUSH2 0x8D6 PUSH1 0x0 DUP3 PUSH2 0x8AA JUMP JUMPDEST PUSH1 0x1 DUP2 ADD SWAP1 POP PUSH2 0x8C3 JUMP JUMPDEST POP POP JUMP JUMPDEST PUSH1 0x1F DUP3 GT ISZERO PUSH2 0x926 JUMPI PUSH2 0x8F7 DUP2 PUSH2 0x7C6 JUMP JUMPDEST PUSH2 0x900 DUP5 PUSH2 0x7DB JUMP JUMPDEST DUP2 ADD PUSH1 0x20 DUP6 LT ISZERO PUSH2 0x90F JUMPI DUP2 SWAP1 POP JUMPDEST PUSH2 0x923 PUSH2 0x91B DUP6 PUSH2 0x7DB JUMP JUMPDEST DUP4 ADD DUP3 PUSH2 0x8C2 JUMP JUMPDEST POP POP JUMPDEST POP POP POP JUMP JUMPDEST PUSH1 0x0 DUP3 DUP3 SHR SWAP1 POP SWAP3 SWAP2 POP POP JUMP JUMPDEST PUSH1 0x0 PUSH2 0x949 PUSH1 0x0 NOT DUP5 PUSH1 0x8 MUL PUSH2 0x92B JUMP JUMPDEST NOT DUP1 DUP4 AND SWAP2 POP POP SWAP3 SWAP2 POP POP JUMP JUMPDEST PUSH1 0x0 PUSH2 0x962 DUP4 DUP4 PUSH2 0x938 JUMP JUMPDEST SWAP2 POP DUP3 PUSH1 0x2 MUL DUP3 OR SWAP1 POP SWAP3 SWAP2 POP POP JUMP JUMPDEST PUSH2 0x97B DUP3 PUSH2 0x439 JUMP JUMPDEST PUSH8 0xFFFFFFFFFFFFFFFF DUP2 GT ISZERO PUSH2 0x994 JUMPI PUSH2 0x993 PUSH2 0x596 JUMP JUMPDEST JUMPDEST PUSH2 0x99E DUP3 SLOAD PUSH2 0x795 JUMP JUMPDEST PUSH2 0x9A9 DUP3 DUP3 DUP6 PUSH2 0x8E5 JUMP JUMPDEST PUSH1 0x0 PUSH1 0x20 SWAP1 POP PUSH1 0x1F DUP4 GT PUSH1 0x1 DUP2 EQ PUSH2 0x9DC JUMPI PUSH1 0x0 DUP5 ISZERO PUSH2 0x9CA JUMPI DUP3 DUP8 ADD MLOAD SWAP1 POP JUMPDEST PUSH2 0x9D4 DUP6 DUP3 PUSH2 0x956 JUMP JUMPDEST DUP7 SSTORE POP PUSH2 0xA3C JUMP JUMPDEST PUSH1 0x1F NOT DUP5 AND PUSH2 0x9EA DUP7 PUSH2 0x7C6 JUMP JUMPDEST PUSH1 0x0 JUMPDEST DUP3 DUP2 LT ISZERO PUSH2 0xA12 JUMPI DUP5 DUP10 ADD MLOAD DUP3 SSTORE PUSH1 0x1 DUP3 ADD SWAP2 POP PUSH1 0x20 DUP6 ADD SWAP5 POP PUSH1 0x20 DUP2 ADD SWAP1 POP PUSH2 0x9ED JUMP JUMPDEST DUP7 DUP4 LT ISZERO PUSH2 0xA2F JUMPI DUP5 DUP10 ADD MLOAD PUSH2 0xA2B PUSH1 0x1F DUP10 AND DUP3 PUSH2 0x938 JUMP JUMPDEST DUP4 SSTORE POP JUMPDEST PUSH1 0x1 PUSH1 0x2 DUP9 MUL ADD DUP9 SSTORE POP POP POP JUMPDEST POP POP POP POP POP POP JUMP INVALID LOG2 PUSH5 0x6970667358 0x22 SLT KECCAK256 SWAP3 0xE LT 0x5E MLOAD PUSH30 0x69C876B0A6B28C4FB655EE9EB50BBF1C149AFE8DD902FBC3BC5964736F6C PUSH4 0x43000812 STOP CALLER "},"methodIdentifiers":{"arr(uint256)":"71e5ee5f","getAge()":"967e6e65","getName()":"17d7de7c","getStructCount()":"bc9fbf00","getStructFlag()":"0e1d8c26","getStructId()":"d56451f1","getStructTitle()":"6266160d","setAge(uint256)":"d5dcf127","setAttributes(string,uint256)":"73c275bc","setName(string)":"c47f0027"}}}}}