{"contracts/Greeting.sol":{"Greeting":{"abi":[{"inputs":[],"stateMutability":"nonpayable","type":"constructor"},{"inputs":[],"name":"getAge","outputs":[{"internalType":"uint256","name":"","type":"uint256"}],"stateMutability":"view","type":"function"},{"inputs":[],"name":"getData","outputs":[{"internalType":"uint256","name":"","type":"uint256"}],"stateMutability":"view","type":"function"},{"inputs":[],"name":"getName","outputs":[{"internalType":"string","name":"","type":"string"}],"stateMutability":"view","type":"function"},{"inputs":[{"internalType":"uint256","name":"_age","type":"uint256"}],"name":"setAge","outputs":[],"stateMutability":"nonpayable","type":"function"},{"inputs":[{"internalType":"string","name":"_name","type":"string"},{"internalType":"uint256","name":"_age","type":"uint256"}],"name":"setAttributes","outputs":[],"stateMutability":"payable","type":"function"},{"inputs":[{"internalType":"string","name":"_name","type":"string"}],"name":"setName","outputs":[],"stateMutability":"nonpayable","type":"function"}],"evm":{"bytecode":{"linkReferences":{},"object":"60806040523480156200001157600080fd5b506040518060400160405280600881526020017f4772656574696e67000000000000000000000000000000000000000000000000815250600090816200005891906200038d565b5060126001819055506040518060800160405280600181526020016040518060400160405280600481526020017f7465737400000000000000000000000000000000000000000000000000000000815250815260200160018152602001600115158152506002600082015181600001556020820151816001019081620000df91906200038d565b506040820151816002015560608201518160030160006101000a81548160ff02191690831515021790555090505062000474565b600081519050919050565b7f4e487b7100000000000000000000000000000000000000000000000000000000600052604160045260246000fd5b7f4e487b7100000000000000000000000000000000000000000000000000000000600052602260045260246000fd5b600060028204905060018216806200019557607f821691505b602082108103620001ab57620001aa6200014d565b5b50919050565b60008190508160005260206000209050919050565b60006020601f8301049050919050565b600082821b905092915050565b600060088302620002157fffffffffffffffffffffffffffffffffffffffffffffffffffffffffffffffff82620001d6565b620002218683620001d6565b95508019841693508086168417925050509392505050565b6000819050919050565b6000819050919050565b60006200026e62000268620002628462000239565b62000243565b62000239565b9050919050565b6000819050919050565b6200028a836200024d565b620002a2620002998262000275565b848454620001e3565b825550505050565b600090565b620002b9620002aa565b620002c68184846200027f565b505050565b5b81811015620002ee57620002e2600082620002af565b600181019050620002cc565b5050565b601f8211156200033d576200030781620001b1565b6200031284620001c6565b8101602085101562000322578190505b6200033a6200033185620001c6565b830182620002cb565b50505b505050565b600082821c905092915050565b6000620003626000198460080262000342565b1980831691505092915050565b60006200037d83836200034f565b9150826002028217905092915050565b620003988262000113565b67ffffffffffffffff811115620003b457620003b36200011e565b5b620003c082546200017c565b620003cd828285620002f2565b600060209050601f831160018114620004055760008415620003f0578287015190505b620003fc85826200036f565b8655506200046c565b601f1984166200041586620001b1565b60005b828110156200043f5784890151825560018201915060208501945060208101905062000418565b868310156200045f57848901516200045b601f8916826200034f565b8355505b6001600288020188555050505b505050505050565b61086b80620004846000396000f3fe6080604052600436106100555760003560e01c806317d7de7c1461005a5780633bc5de301461008557806373c275bc146100b0578063967e6e65146100cc578063c47f0027146100f7578063d5dcf12714610120575b600080fd5b34801561006657600080fd5b5061006f610149565b60405161007c91906102ba565b60405180910390f35b34801561009157600080fd5b5061009a6101db565b6040516100a791906102f5565b60405180910390f35b6100ca60048036038101906100c59190610485565b6101e8565b005b3480156100d857600080fd5b506100e1610203565b6040516100ee91906102f5565b60405180910390f35b34801561010357600080fd5b5061011e600480360381019061011991906104e1565b61020d565b005b34801561012c57600080fd5b506101476004803603810190610142919061052a565b610220565b005b60606000805461015890610586565b80601f016020809104026020016040519081016040528092919081815260200182805461018490610586565b80156101d15780601f106101a6576101008083540402835291602001916101d1565b820191906000526020600020905b8154815290600101906020018083116101b457829003601f168201915b5050505050905090565b6000600260000154905090565b81600090816101f79190610763565b50806001819055505050565b6000600154905090565b806000908161021c9190610763565b5050565b8060018190555050565b600081519050919050565b600082825260208201905092915050565b60005b83811015610264578082015181840152602081019050610249565b60008484015250505050565b6000601f19601f8301169050919050565b600061028c8261022a565b6102968185610235565b93506102a6818560208601610246565b6102af81610270565b840191505092915050565b600060208201905081810360008301526102d48184610281565b905092915050565b6000819050919050565b6102ef816102dc565b82525050565b600060208201905061030a60008301846102e6565b92915050565b6000604051905090565b600080fd5b600080fd5b600080fd5b600080fd5b7f4e487b7100000000000000000000000000000000000000000000000000000000600052604160045260246000fd5b61036682610270565b810181811067ffffffffffffffff821117156103855761038461032e565b5b80604052505050565b6000610398610310565b90506103a4828261035d565b919050565b600067ffffffffffffffff8211156103c4576103c361032e565b5b6103cd82610270565b9050602081019050919050565b82818337600083830152505050565b60006103fc6103f7846103a9565b61038e565b90508281526020810184848401111561041857610417610329565b5b6104238482856103da565b509392505050565b600082601f8301126104405761043f610324565b5b81356104508482602086016103e9565b91505092915050565b610462816102dc565b811461046d57600080fd5b50565b60008135905061047f81610459565b92915050565b6000806040838503121561049c5761049b61031a565b5b600083013567ffffffffffffffff8111156104ba576104b961031f565b5b6104c68582860161042b565b92505060206104d785828601610470565b9150509250929050565b6000602082840312156104f7576104f661031a565b5b600082013567ffffffffffffffff8111156105155761051461031f565b5b6105218482850161042b565b91505092915050565b6000602082840312156105405761053f61031a565b5b600061054e84828501610470565b91505092915050565b7f4e487b7100000000000000000000000000000000000000000000000000000000600052602260045260246000fd5b6000600282049050600182168061059e57607f821691505b6020821081036105b1576105b0610557565b5b50919050565b60008190508160005260206000209050919050565b60006020601f8301049050919050565b600082821b905092915050565b6000600883026106197fffffffffffffffffffffffffffffffffffffffffffffffffffffffffffffffff826105dc565b61062386836105dc565b95508019841693508086168417925050509392505050565b6000819050919050565b600061066061065b610656846102dc565b61063b565b6102dc565b9050919050565b6000819050919050565b61067a83610645565b61068e61068682610667565b8484546105e9565b825550505050565b600090565b6106a3610696565b6106ae818484610671565b505050565b5b818110156106d2576106c760008261069b565b6001810190506106b4565b5050565b601f821115610717576106e8816105b7565b6106f1846105cc565b81016020851015610700578190505b61071461070c856105cc565b8301826106b3565b50505b505050565b600082821c905092915050565b600061073a6000198460080261071c565b1980831691505092915050565b60006107538383610729565b9150826002028217905092915050565b61076c8261022a565b67ffffffffffffffff8111156107855761078461032e565b5b61078f8254610586565b61079a8282856106d6565b600060209050601f8311600181146107cd57600084156107bb578287015190505b6107c58582610747565b86555061082d565b601f1984166107db866105b7565b60005b82811015610803578489015182556001820191506020850194506020810190506107de565b86831015610820578489015161081c601f891682610729565b8355505b6001600288020188555050505b50505050505056fea26469706673582212207eeec451d50a4773c9077f3fda98a958bef0ee2fdd47f647095c55c8b5b0e55f64736f6c63430008120033","opcodes":"PUSH1 0x80 PUSH1 0x40 MSTORE CALLVALUE DUP1 ISZERO PUSH3 0x11 JUMPI PUSH1 0x0 DUP1 REVERT JUMPDEST POP PUSH1 0x40 MLOAD DUP1 PUSH1 0x40 ADD PUSH1 0x40 MSTORE DUP1 PUSH1 0x8 DUP2 MSTORE PUSH1 0x20 ADD PUSH32 0x4772656574696E67000000000000000000000000000000000000000000000000 DUP2 MSTORE POP PUSH1 0x0 SWAP1 DUP2 PUSH3 0x58 SWAP2 SWAP1 PUSH3 0x38D JUMP JUMPDEST POP PUSH1 0x12 PUSH1 0x1 DUP2 SWAP1 SSTORE POP PUSH1 0x40 MLOAD DUP1 PUSH1 0x80 ADD PUSH1 0x40 MSTORE DUP1 PUSH1 0x1 DUP2 MSTORE PUSH1 0x20 ADD PUSH1 0x40 MLOAD DUP1 PUSH1 0x40 ADD PUSH1 0x40 MSTORE DUP1 PUSH1 0x4 DUP2 MSTORE PUSH1 0x20 ADD PUSH32 0x7465737400000000000000000000000000000000000000000000000000000000 DUP2 MSTORE POP DUP2 MSTORE PUSH1 0x20 ADD PUSH1 0x1 DUP2 MSTORE PUSH1 0x20 ADD PUSH1 0x1 ISZERO ISZERO DUP2 MSTORE POP PUSH1 0x2 PUSH1 0x0 DUP3 ADD MLOAD DUP2 PUSH1 0x0 ADD SSTORE PUSH1 0x20 DUP3 ADD MLOAD DUP2 PUSH1 0x1 ADD SWAP1 DUP2 PUSH3 0xDF SWAP2 SWAP1 PUSH3 0x38D JUMP JUMPDEST POP PUSH1 0x40 DUP3 ADD MLOAD DUP2 PUSH1 0x2 ADD SSTORE PUSH1 0x60 DUP3 ADD MLOAD DUP2 PUSH1 0x3 ADD PUSH1 0x0 PUSH2 0x100 EXP DUP2 SLOAD DUP2 PUSH1 0xFF MUL NOT AND SWAP1 DUP4 ISZERO ISZERO MUL OR SWAP1 SSTORE POP SWAP1 POP POP PUSH3 0x474 JUMP JUMPDEST PUSH1 0x0 DUP2 MLOAD SWAP1 POP SWAP2 SWAP1 POP JUMP JUMPDEST PUSH32 0x4E487B7100000000000000000000000000000000000000000000000000000000 PUSH1 0x0 MSTORE PUSH1 0x41 PUSH1 0x4 MSTORE PUSH1 0x24 PUSH1 0x0 REVERT JUMPDEST PUSH32 0x4E487B7100000000000000000000000000000000000000000000000000000000 PUSH1 0x0 MSTORE PUSH1 0x22 PUSH1 0x4 MSTORE PUSH1 0x24 PUSH1 0x0 REVERT JUMPDEST PUSH1 0x0 PUSH1 0x2 DUP3 DIV SWAP1 POP PUSH1 0x1 DUP3 AND DUP1 PUSH3 0x195 JUMPI PUSH1 0x7F DUP3 AND SWAP2 POP JUMPDEST PUSH1 0x20 DUP3 LT DUP2 SUB PUSH3 0x1AB JUMPI PUSH3 0x1AA PUSH3 0x14D JUMP JUMPDEST JUMPDEST POP SWAP2 SWAP1 POP JUMP JUMPDEST PUSH1 0x0 DUP2 SWAP1 POP DUP2 PUSH1 0x0 MSTORE PUSH1 0x20 PUSH1 0x0 KECCAK256 SWAP1 POP SWAP2 SWAP1 POP JUMP JUMPDEST PUSH1 0x0 PUSH1 0x20 PUSH1 0x1F DUP4 ADD DIV SWAP1 POP SWAP2 SWAP1 POP JUMP JUMPDEST PUSH1 0x0 DUP3 DUP3 SHL SWAP1 POP SWAP3 SWAP2 POP POP JUMP JUMPDEST PUSH1 0x0 PUSH1 0x8 DUP4 MUL PUSH3 0x215 PUSH32 0xFFFFFFFFFFFFFFFFFFFFFFFFFFFFFFFFFFFFFFFFFFFFFFFFFFFFFFFFFFFFFFFF DUP3 PUSH3 0x1D6 JUMP JUMPDEST PUSH3 0x221 DUP7 DUP4 PUSH3 0x1D6 JUMP JUMPDEST SWAP6 POP DUP1 NOT DUP5 AND SWAP4 POP DUP1 DUP7 AND DUP5 OR SWAP3 POP POP POP SWAP4 SWAP3 POP POP POP JUMP JUMPDEST PUSH1 0x0 DUP2 SWAP1 POP SWAP2 SWAP1 POP JUMP JUMPDEST PUSH1 0x0 DUP2 SWAP1 POP SWAP2 SWAP1 POP JUMP JUMPDEST PUSH1 0x0 PUSH3 0x26E PUSH3 0x268 PUSH3 0x262 DUP5 PUSH3 0x239 JUMP JUMPDEST PUSH3 0x243 JUMP JUMPDEST PUSH3 0x239 JUMP JUMPDEST SWAP1 POP SWAP2 SWAP1 POP JUMP JUMPDEST PUSH1 0x0 DUP2 SWAP1 POP SWAP2 SWAP1 POP JUMP JUMPDEST PUSH3 0x28A DUP4 PUSH3 0x24D JUMP JUMPDEST PUSH3 0x2A2 PUSH3 0x299 DUP3 PUSH3 0x275 JUMP JUMPDEST DUP5 DUP5 SLOAD PUSH3 0x1E3 JUMP JUMPDEST DUP3 SSTORE POP POP POP POP JUMP JUMPDEST PUSH1 0x0 SWAP1 JUMP JUMPDEST PUSH3 0x2B9 PUSH3 0x2AA JUMP JUMPDEST PUSH3 0x2C6 DUP2 DUP5 DUP5 PUSH3 0x27F JUMP JUMPDEST POP POP POP JUMP JUMPDEST JUMPDEST DUP2 DUP2 LT ISZERO PUSH3 0x2EE JUMPI PUSH3 0x2E2 PUSH1 0x0 DUP3 PUSH3 0x2AF JUMP JUMPDEST PUSH1 0x1 DUP2 ADD SWAP1 POP PUSH3 0x2CC JUMP JUMPDEST POP POP JUMP JUMPDEST PUSH1 0x1F DUP3 GT ISZERO PUSH3 0x33D JUMPI PUSH3 0x307 DUP2 PUSH3 0x1B1 JUMP JUMPDEST PUSH3 0x312 DUP5 PUSH3 0x1C6 JUMP JUMPDEST DUP2 ADD PUSH1 0x20 DUP6 LT ISZERO PUSH3 0x322 JUMPI DUP2 SWAP1 POP JUMPDEST PUSH3 0x33A PUSH3 0x331 DUP6 PUSH3 0x1C6 JUMP JUMPDEST DUP4 ADD DUP3 PUSH3 0x2CB JUMP JUMPDEST POP POP JUMPDEST POP POP POP JUMP JUMPDEST PUSH1 0x0 DUP3 DUP3 SHR SWAP1 POP SWAP3 SWAP2 POP POP JUMP JUMPDEST PUSH1 0x0 PUSH3 0x362 PUSH1 0x0 NOT DUP5 PUSH1 0x8 MUL PUSH3 0x342 JUMP JUMPDEST NOT DUP1 DUP4 AND SWAP2 POP POP SWAP3 SWAP2 POP POP JUMP JUMPDEST PUSH1 0x0 PUSH3 0x37D DUP4 DUP4 PUSH3 0x34F JUMP JUMPDEST SWAP2 POP DUP3 PUSH1 0x2 MUL DUP3 OR SWAP1 POP SWAP3 SWAP2 POP POP JUMP JUMPDEST PUSH3 0x398 DUP3 PUSH3 0x113 JUMP JUMPDEST PUSH8 0xFFFFFFFFFFFFFFFF DUP2 GT ISZERO PUSH3 0x3B4 JUMPI PUSH3 0x3B3 PUSH3 0x11E JUMP JUMPDEST JUMPDEST PUSH3 0x3C0 DUP3 SLOAD PUSH3 0x17C JUMP JUMPDEST PUSH3 0x3CD DUP3 DUP3 DUP6 PUSH3 0x2F2 JUMP JUMPDEST PUSH1 0x0 PUSH1 0x20 SWAP1 POP PUSH1 0x1F DUP4 GT PUSH1 0x1 DUP2 EQ PUSH3 0x405 JUMPI PUSH1 0x0 DUP5 ISZERO PUSH3 0x3F0 JUMPI DUP3 DUP8 ADD MLOAD SWAP1 POP JUMPDEST PUSH3 0x3FC DUP6 DUP3 PUSH3 0x36F JUMP JUMPDEST DUP7 SSTORE POP PUSH3 0x46C JUMP JUMPDEST PUSH1 0x1F NOT DUP5 AND PUSH3 0x415 DUP7 PUSH3 0x1B1 JUMP JUMPDEST PUSH1 0x0 JUMPDEST DUP3 DUP2 LT ISZERO PUSH3 0x43F JUMPI DUP5 DUP10 ADD MLOAD DUP3 SSTORE PUSH1 0x1 DUP3 ADD SWAP2 POP PUSH1 0x20 DUP6 ADD SWAP5 POP PUSH1 0x20 DUP2 ADD SWAP1 POP PUSH3 0x418 JUMP JUMPDEST DUP7 DUP4 LT ISZERO PUSH3 0x45F JUMPI DUP5 DUP10 ADD MLOAD PUSH3 0x45B PUSH1 0x1F DUP10 AND DUP3 PUSH3 0x34F JUMP JUMPDEST DUP4 SSTORE POP JUMPDEST PUSH1 0x1 PUSH1 0x2 DUP9 MUL ADD DUP9 SSTORE POP POP POP JUMPDEST POP POP POP POP POP POP JUMP JUMPDEST PUSH2 0x86B DUP1 PUSH3 0x484 PUSH1 0x0 CODECOPY PUSH1 0x0 RETURN INVALID PUSH1 0x80 PUSH1 0x40 MSTORE PUSH1 0x4 CALLDATASIZE LT PUSH2 0x55 JUMPI PUSH1 0x0 CALLDATALOAD PUSH1 0xE0 SHR DUP1 PUSH4 0x17D7DE7C EQ PUSH2 0x5A JUMPI DUP1 PUSH4 0x3BC5DE30 EQ PUSH2 0x85 JUMPI DUP1 PUSH4 0x73C275BC EQ PUSH2 0xB0 JUMPI DUP1 PUSH4 0x967E6E65 EQ PUSH2 0xCC JUMPI DUP1 PUSH4 0xC47F0027 EQ PUSH2 0xF7 JUMPI DUP1 PUSH4 0xD5DCF127 EQ PUSH2 0x120 JUMPI JUMPDEST PUSH1 0x0 DUP1 REVERT JUMPDEST CALLVALUE DUP1 ISZERO PUSH2 0x66 JUMPI PUSH1 0x0 DUP1 REVERT JUMPDEST POP PUSH2 0x6F PUSH2 0x149 JUMP JUMPDEST PUSH1 0x40 MLOAD PUSH2 0x7C SWAP2 SWAP1 PUSH2 0x2BA JUMP JUMPDEST PUSH1 0x40 MLOAD DUP1 SWAP2 SUB SWAP1 RETURN JUMPDEST CALLVALUE DUP1 ISZERO PUSH2 0x91 JUMPI PUSH1 0x0 DUP1 REVERT JUMPDEST POP PUSH2 0x9A PUSH2 0x1DB JUMP JUMPDEST PUSH1 0x40 MLOAD PUSH2 0xA7 SWAP2 SWAP1 PUSH2 0x2F5 JUMP JUMPDEST PUSH1 0x40 MLOAD DUP1 SWAP2 SUB SWAP1 RETURN JUMPDEST PUSH2 0xCA PUSH1 0x4 DUP1 CALLDATASIZE SUB DUP2 ADD SWAP1 PUSH2 0xC5 SWAP2 SWAP1 PUSH2 0x485 JUMP JUMPDEST PUSH2 0x1E8 JUMP JUMPDEST STOP JUMPDEST CALLVALUE DUP1 ISZERO PUSH2 0xD8 JUMPI PUSH1 0x0 DUP1 REVERT JUMPDEST POP PUSH2 0xE1 PUSH2 0x203 JUMP JUMPDEST PUSH1 0x40 MLOAD PUSH2 0xEE SWAP2 SWAP1 PUSH2 0x2F5 JUMP JUMPDEST PUSH1 0x40 MLOAD DUP1 SWAP2 SUB SWAP1 RETURN JUMPDEST CALLVALUE DUP1 ISZERO PUSH2 0x103 JUMPI PUSH1 0x0 DUP1 REVERT JUMPDEST POP PUSH2 0x11E PUSH1 0x4 DUP1 CALLDATASIZE SUB DUP2 ADD SWAP1 PUSH2 0x119 SWAP2 SWAP1 PUSH2 0x4E1 JUMP JUMPDEST PUSH2 0x20D JUMP JUMPDEST STOP JUMPDEST CALLVALUE DUP1 ISZERO PUSH2 0x12C JUMPI PUSH1 0x0 DUP1 REVERT JUMPDEST POP PUSH2 0x147 PUSH1 0x4 DUP1 CALLDATASIZE SUB DUP2 ADD SWAP1 PUSH2 0x142 SWAP2 SWAP1 PUSH2 0x52A JUMP JUMPDEST PUSH2 0x220 JUMP JUMPDEST STOP JUMPDEST PUSH1 0x60 PUSH1 0x0 DUP1 SLOAD PUSH2 0x158 SWAP1 PUSH2 0x586 JUMP JUMPDEST DUP1 PUSH1 0x1F ADD PUSH1 0x20 DUP1 SWAP2 DIV MUL PUSH1 0x20 ADD PUSH1 0x40 MLOAD SWAP1 DUP2 ADD PUSH1 0x40 MSTORE DUP1 SWAP3 SWAP2 SWAP1 DUP2 DUP2 MSTORE PUSH1 0x20 ADD DUP3 DUP1 SLOAD PUSH2 0x184 SWAP1 PUSH2 0x586 JUMP JUMPDEST DUP1 ISZERO PUSH2 0x1D1 JUMPI DUP1 PUSH1 0x1F LT PUSH2 0x1A6 JUMPI PUSH2 0x100 DUP1 DUP4 SLOAD DIV MUL DUP4 MSTORE SWAP2 PUSH1 0x20 ADD SWAP2 PUSH2 0x1D1 JUMP JUMPDEST DUP3 ADD SWAP2 SWAP1 PUSH1 0x0 MSTORE PUSH1 0x20 PUSH1 0x0 KECCAK256 SWAP1 JUMPDEST DUP2 SLOAD DUP2 MSTORE SWAP1 PUSH1 0x1 ADD SWAP1 PUSH1 0x20 ADD DUP1 DUP4 GT PUSH2 0x1B4 JUMPI DUP3 SWAP1 SUB PUSH1 0x1F AND DUP3 ADD SWAP2 JUMPDEST POP POP POP POP POP SWAP1 POP SWAP1 JUMP JUMPDEST PUSH1 0x0 PUSH1 0x2 PUSH1 0x0 ADD SLOAD SWAP1 POP SWAP1 JUMP JUMPDEST DUP2 PUSH1 0x0 SWAP1 DUP2 PUSH2 0x1F7 SWAP2 SWAP1 PUSH2 0x763 JUMP JUMPDEST POP DUP1 PUSH1 0x1 DUP2 SWAP1 SSTORE POP POP POP JUMP JUMPDEST PUSH1 0x0 PUSH1 0x1 SLOAD SWAP1 POP SWAP1 JUMP JUMPDEST DUP1 PUSH1 0x0 SWAP1 DUP2 PUSH2 0x21C SWAP2 SWAP1 PUSH2 0x763 JUMP JUMPDEST POP POP JUMP JUMPDEST DUP1 PUSH1 0x1 DUP2 SWAP1 SSTORE POP POP JUMP JUMPDEST PUSH1 0x0 DUP2 MLOAD SWAP1 POP SWAP2 SWAP1 POP JUMP JUMPDEST PUSH1 0x0 DUP3 DUP3 MSTORE PUSH1 0x20 DUP3 ADD SWAP1 POP SWAP3 SWAP2 POP POP JUMP JUMPDEST PUSH1 0x0 JUMPDEST DUP4 DUP2 LT ISZERO PUSH2 0x264 JUMPI DUP1 DUP3 ADD MLOAD DUP2 DUP5 ADD MSTORE PUSH1 0x20 DUP2 ADD SWAP1 POP PUSH2 0x249 JUMP JUMPDEST PUSH1 0x0 DUP5 DUP5 ADD MSTORE POP POP POP POP JUMP JUMPDEST PUSH1 0x0 PUSH1 0x1F NOT PUSH1 0x1F DUP4 ADD AND SWAP1 POP SWAP2 SWAP1 POP JUMP JUMPDEST PUSH1 0x0 PUSH2 0x28C DUP3 PUSH2 0x22A JUMP JUMPDEST PUSH2 0x296 DUP2 DUP6 PUSH2 0x235 JUMP JUMPDEST SWAP4 POP PUSH2 0x2A6 DUP2 DUP6 PUSH1 0x20 DUP7 ADD PUSH2 0x246 JUMP JUMPDEST PUSH2 0x2AF DUP2 PUSH2 0x270 JUMP JUMPDEST DUP5 ADD SWAP2 POP POP SWAP3 SWAP2 POP POP JUMP JUMPDEST PUSH1 0x0 PUSH1 0x20 DUP3 ADD SWAP1 POP DUP2 DUP2 SUB PUSH1 0x0 DUP4 ADD MSTORE PUSH2 0x2D4 DUP2 DUP5 PUSH2 0x281 JUMP JUMPDEST SWAP1 POP SWAP3 SWAP2 POP POP JUMP JUMPDEST PUSH1 0x0 DUP2 SWAP1 POP SWAP2 SWAP1 POP JUMP JUMPDEST PUSH2 0x2EF DUP2 PUSH2 0x2DC JUMP JUMPDEST DUP3 MSTORE POP POP JUMP JUMPDEST PUSH1 0x0 PUSH1 0x20 DUP3 ADD SWAP1 POP PUSH2 0x30A PUSH1 0x0 DUP4 ADD DUP5 PUSH2 0x2E6 JUMP JUMPDEST SWAP3 SWAP2 POP POP JUMP JUMPDEST PUSH1 0x0 PUSH1 0x40 MLOAD SWAP1 POP SWAP1 JUMP JUMPDEST PUSH1 0x0 DUP1 REVERT JUMPDEST PUSH1 0x0 DUP1 REVERT JUMPDEST PUSH1 0x0 DUP1 REVERT JUMPDEST PUSH1 0x0 DUP1 REVERT JUMPDEST PUSH32 0x4E487B7100000000000000000000000000000000000000000000000000000000 PUSH1 0x0 MSTORE PUSH1 0x41 PUSH1 0x4 MSTORE PUSH1 0x24 PUSH1 0x0 REVERT JUMPDEST PUSH2 0x366 DUP3 PUSH2 0x270 JUMP JUMPDEST DUP2 ADD DUP2 DUP2 LT PUSH8 0xFFFFFFFFFFFFFFFF DUP3 GT OR ISZERO PUSH2 0x385 JUMPI PUSH2 0x384 PUSH2 0x32E JUMP JUMPDEST JUMPDEST DUP1 PUSH1 0x40 MSTORE POP POP POP JUMP JUMPDEST PUSH1 0x0 PUSH2 0x398 PUSH2 0x310 JUMP JUMPDEST SWAP1 POP PUSH2 0x3A4 DUP3 DUP3 PUSH2 0x35D JUMP JUMPDEST SWAP2 SWAP1 POP JUMP JUMPDEST PUSH1 0x0 PUSH8 0xFFFFFFFFFFFFFFFF DUP3 GT ISZERO PUSH2 0x3C4 JUMPI PUSH2 0x3C3 PUSH2 0x32E JUMP JUMPDEST JUMPDEST PUSH2 0x3CD DUP3 PUSH2 0x270 JUMP JUMPDEST SWAP1 POP PUSH1 0x20 DUP2 ADD SWAP1 POP SWAP2 SWAP1 POP JUMP JUMPDEST DUP3 DUP2 DUP4 CALLDATACOPY PUSH1 0x0 DUP4 DUP4 ADD MSTORE POP POP POP JUMP JUMPDEST PUSH1 0x0 PUSH2 0x3FC PUSH2 0x3F7 DUP5 PUSH2 0x3A9 JUMP JUMPDEST PUSH2 0x38E JUMP JUMPDEST SWAP1 POP DUP3 DUP2 MSTORE PUSH1 0x20 DUP2 ADD DUP5 DUP5 DUP5 ADD GT ISZERO PUSH2 0x418 JUMPI PUSH2 0x417 PUSH2 0x329 JUMP JUMPDEST JUMPDEST PUSH2 0x423 DUP5 DUP3 DUP6 PUSH2 0x3DA JUMP JUMPDEST POP SWAP4 SWAP3 POP POP POP JUMP JUMPDEST PUSH1 0x0 DUP3 PUSH1 0x1F DUP4 ADD SLT PUSH2 0x440 JUMPI PUSH2 0x43F PUSH2 0x324 JUMP JUMPDEST JUMPDEST DUP2 CALLDATALOAD PUSH2 0x450 DUP5 DUP3 PUSH1 0x20 DUP7 ADD PUSH2 0x3E9 JUMP JUMPDEST SWAP2 POP POP SWAP3 SWAP2 POP POP JUMP JUMPDEST PUSH2 0x462 DUP2 PUSH2 0x2DC JUMP JUMPDEST DUP2 EQ PUSH2 0x46D JUMPI PUSH1 0x0 DUP1 REVERT JUMPDEST POP JUMP JUMPDEST PUSH1 0x0 DUP2 CALLDATALOAD SWAP1 POP PUSH2 0x47F DUP2 PUSH2 0x459 JUMP JUMPDEST SWAP3 SWAP2 POP POP JUMP JUMPDEST PUSH1 0x0 DUP1 PUSH1 0x40 DUP4 DUP6 SUB SLT ISZERO PUSH2 0x49C JUMPI PUSH2 0x49B PUSH2 0x31A JUMP JUMPDEST JUMPDEST PUSH1 0x0 DUP4 ADD CALLDATALOAD PUSH8 0xFFFFFFFFFFFFFFFF DUP2 GT ISZERO PUSH2 0x4BA JUMPI PUSH2 0x4B9 PUSH2 0x31F JUMP JUMPDEST JUMPDEST PUSH2 0x4C6 DUP6 DUP3 DUP7 ADD PUSH2 0x42B JUMP JUMPDEST SWAP3 POP POP PUSH1 0x20 PUSH2 0x4D7 DUP6 DUP3 DUP7 ADD PUSH2 0x470 JUMP JUMPDEST SWAP2 POP POP SWAP3 POP SWAP3 SWAP1 POP JUMP JUMPDEST PUSH1 0x0 PUSH1 0x20 DUP3 DUP5 SUB SLT ISZERO PUSH2 0x4F7 JUMPI PUSH2 0x4F6 PUSH2 0x31A JUMP JUMPDEST JUMPDEST PUSH1 0x0 DUP3 ADD CALLDATALOAD PUSH8 0xFFFFFFFFFFFFFFFF DUP2 GT ISZERO PUSH2 0x515 JUMPI PUSH2 0x514 PUSH2 0x31F JUMP JUMPDEST JUMPDEST PUSH2 0x521 DUP5 DUP3 DUP6 ADD PUSH2 0x42B JUMP JUMPDEST SWAP2 POP POP SWAP3 SWAP2 POP POP JUMP JUMPDEST PUSH1 0x0 PUSH1 0x20 DUP3 DUP5 SUB SLT ISZERO PUSH2 0x540 JUMPI PUSH2 0x53F PUSH2 0x31A JUMP JUMPDEST JUMPDEST PUSH1 0x0 PUSH2 0x54E DUP5 DUP3 DUP6 ADD PUSH2 0x470 JUMP JUMPDEST SWAP2 POP POP SWAP3 SWAP2 POP POP JUMP JUMPDEST PUSH32 0x4E487B7100000000000000000000000000000000000000000000000000000000 PUSH1 0x0 MSTORE PUSH1 0x22 PUSH1 0x4 MSTORE PUSH1 0x24 PUSH1 0x0 REVERT JUMPDEST PUSH1 0x0 PUSH1 0x2 DUP3 DIV SWAP1 POP PUSH1 0x1 DUP3 AND DUP1 PUSH2 0x59E JUMPI PUSH1 0x7F DUP3 AND SWAP2 POP JUMPDEST PUSH1 0x20 DUP3 LT DUP2 SUB PUSH2 0x5B1 JUMPI PUSH2 0x5B0 PUSH2 0x557 JUMP JUMPDEST JUMPDEST POP SWAP2 SWAP1 POP JUMP JUMPDEST PUSH1 0x0 DUP2 SWAP1 POP DUP2 PUSH1 0x0 MSTORE PUSH1 0x20 PUSH1 0x0 KECCAK256 SWAP1 POP SWAP2 SWAP1 POP JUMP JUMPDEST PUSH1 0x0 PUSH1 0x20 PUSH1 0x1F DUP4 ADD DIV SWAP1 POP SWAP2 SWAP1 POP JUMP JUMPDEST PUSH1 0x0 DUP3 DUP3 SHL SWAP1 POP SWAP3 SWAP2 POP POP JUMP JUMPDEST PUSH1 0x0 PUSH1 0x8 DUP4 MUL PUSH2 0x619 PUSH32 0xFFFFFFFFFFFFFFFFFFFFFFFFFFFFFFFFFFFFFFFFFFFFFFFFFFFFFFFFFFFFFFFF DUP3 PUSH2 0x5DC JUMP JUMPDEST PUSH2 0x623 DUP7 DUP4 PUSH2 0x5DC JUMP JUMPDEST SWAP6 POP DUP1 NOT DUP5 AND SWAP4 POP DUP1 DUP7 AND DUP5 OR SWAP3 POP POP POP SWAP4 SWAP3 POP POP POP JUMP JUMPDEST PUSH1 0x0 DUP2 SWAP1 POP SWAP2 SWAP1 POP JUMP JUMPDEST PUSH1 0x0 PUSH2 0x660 PUSH2 0x65B PUSH2 0x656 DUP5 PUSH2 0x2DC JUMP JUMPDEST PUSH2 0x63B JUMP JUMPDEST PUSH2 0x2DC JUMP JUMPDEST SWAP1 POP SWAP2 SWAP1 POP JUMP JUMPDEST PUSH1 0x0 DUP2 SWAP1 POP SWAP2 SWAP1 POP JUMP JUMPDEST PUSH2 0x67A DUP4 PUSH2 0x645 JUMP JUMPDEST PUSH2 0x68E PUSH2 0x686 DUP3 PUSH2 0x667 JUMP JUMPDEST DUP5 DUP5 SLOAD PUSH2 0x5E9 JUMP JUMPDEST DUP3 SSTORE POP POP POP POP JUMP JUMPDEST PUSH1 0x0 SWAP1 JUMP JUMPDEST PUSH2 0x6A3 PUSH2 0x696 JUMP JUMPDEST PUSH2 0x6AE DUP2 DUP5 DUP5 PUSH2 0x671 JUMP JUMPDEST POP POP POP JUMP JUMPDEST JUMPDEST DUP2 DUP2 LT ISZERO PUSH2 0x6D2 JUMPI PUSH2 0x6C7 PUSH1 0x0 DUP3 PUSH2 0x69B JUMP JUMPDEST PUSH1 0x1 DUP2 ADD SWAP1 POP PUSH2 0x6B4 JUMP JUMPDEST POP POP JUMP JUMPDEST PUSH1 0x1F DUP3 GT ISZERO PUSH2 0x717 JUMPI PUSH2 0x6E8 DUP2 PUSH2 0x5B7 JUMP JUMPDEST PUSH2 0x6F1 DUP5 PUSH2 0x5CC JUMP JUMPDEST DUP2 ADD PUSH1 0x20 DUP6 LT ISZERO PUSH2 0x700 JUMPI DUP2 SWAP1 POP JUMPDEST PUSH2 0x714 PUSH2 0x70C DUP6 PUSH2 0x5CC JUMP JUMPDEST DUP4 ADD DUP3 PUSH2 0x6B3 JUMP JUMPDEST POP POP JUMPDEST POP POP POP JUMP JUMPDEST PUSH1 0x0 DUP3 DUP3 SHR SWAP1 POP SWAP3 SWAP2 POP POP JUMP JUMPDEST PUSH1 0x0 PUSH2 0x73A PUSH1 0x0 NOT DUP5 PUSH1 0x8 MUL PUSH2 0x71C JUMP JUMPDEST NOT DUP1 DUP4 AND SWAP2 POP POP SWAP3 SWAP2 POP POP JUMP JUMPDEST PUSH1 0x0 PUSH2 0x753 DUP4 DUP4 PUSH2 0x729 JUMP JUMPDEST SWAP2 POP DUP3 PUSH1 0x2 MUL DUP3 OR SWAP1 POP SWAP3 SWAP2 POP POP JUMP JUMPDEST PUSH2 0x76C DUP3 PUSH2 0x22A JUMP JUMPDEST PUSH8 0xFFFFFFFFFFFFFFFF DUP2 GT ISZERO PUSH2 0x785 JUMPI PUSH2 0x784 PUSH2 0x32E JUMP JUMPDEST JUMPDEST PUSH2 0x78F DUP3 SLOAD PUSH2 0x586 JUMP JUMPDEST PUSH2 0x79A DUP3 DUP3 DUP6 PUSH2 0x6D6 JUMP JUMPDEST PUSH1 0x0 PUSH1 0x20 SWAP1 POP PUSH1 0x1F DUP4 GT PUSH1 0x1 DUP2 EQ PUSH2 0x7CD JUMPI PUSH1 0x0 DUP5 ISZERO PUSH2 0x7BB JUMPI DUP3 DUP8 ADD MLOAD SWAP1 POP JUMPDEST PUSH2 0x7C5 DUP6 DUP3 PUSH2 0x747 JUMP JUMPDEST DUP7 SSTORE POP PUSH2 0x82D JUMP JUMPDEST PUSH1 0x1F NOT DUP5 AND PUSH2 0x7DB DUP7 PUSH2 0x5B7 JUMP JUMPDEST PUSH1 0x0 JUMPDEST DUP3 DUP2 LT ISZERO PUSH2 0x803 JUMPI DUP5 DUP10 ADD MLOAD DUP3 SSTORE PUSH1 0x1 DUP3 ADD SWAP2 POP PUSH1 0x20 DUP6 ADD SWAP5 POP PUSH1 0x20 DUP2 ADD SWAP1 POP PUSH2 0x7DE JUMP JUMPDEST DUP7 DUP4 LT ISZERO PUSH2 0x820 JUMPI DUP5 DUP10 ADD MLOAD PUSH2 0x81C PUSH1 0x1F DUP10 AND DUP3 PUSH2 0x729 JUMP JUMPDEST DUP4 SSTORE POP JUMPDEST PUSH1 0x1 PUSH1 0x2 DUP9 MUL ADD DUP9 SSTORE POP POP POP JUMPDEST POP POP POP POP POP POP JUMP INVALID LOG2 PUSH5 0x6970667358 0x22 SLT KECCAK256 PUSH31 0xEEC451D50A4773C9077F3FDA98A958BEF0EE2FDD47F647095C55C8B5B0E55F PUSH5 0x736F6C6343 STOP ADDMOD SLT STOP CALLER "},"methodIdentifiers":{"getAge()":"967e6e65","getData()":"3bc5de30","getName()":"17d7de7c","setAge(uint256)":"d5dcf127","setAttributes(string,uint256)":"73c275bc","setName(string)":"c47f0027"}}}}}