{"contracts/Greeting.sol":{"Greeting":{"abi":[{"inputs":[],"stateMutability":"nonpayable","type":"constructor"},{"inputs":[],"name":"age","outputs":[{"internalType":"uint256","name":"","type":"uint256"}],"stateMutability":"view","type":"function"},{"inputs":[],"name":"getAge","outputs":[{"internalType":"uint256","name":"","type":"uint256"}],"stateMutability":"view","type":"function"},{"inputs":[],"name":"getName","outputs":[{"internalType":"string","name":"","type":"string"}],"stateMutability":"view","type":"function"},{"inputs":[],"name":"name","outputs":[{"internalType":"string","name":"","type":"string"}],"stateMutability":"view","type":"function"},{"inputs":[{"internalType":"uint256","name":"_age","type":"uint256"}],"name":"setAge","outputs":[],"stateMutability":"nonpayable","type":"function"},{"inputs":[{"internalType":"string","name":"_name","type":"string"},{"internalType":"uint256","name":"_age","type":"uint256"}],"name":"setAttributes","outputs":[],"stateMutability":"payable","type":"function"},{"inputs":[{"internalType":"string","name":"_name","type":"string"}],"name":"setName","outputs":[],"stateMutability":"nonpayable","type":"function"}],"evm":{"bytecode":{"linkReferences":{},"object":"60806040523480156200001157600080fd5b506040518060400160405280600881526020017f4772656574696e6700000000000000000000000000000000000000000000000081525060009081620000589190620002e1565b506012600181905550620003c8565b600081519050919050565b7f4e487b7100000000000000000000000000000000000000000000000000000000600052604160045260246000fd5b7f4e487b7100000000000000000000000000000000000000000000000000000000600052602260045260246000fd5b60006002820490506001821680620000e957607f821691505b602082108103620000ff57620000fe620000a1565b5b50919050565b60008190508160005260206000209050919050565b60006020601f8301049050919050565b600082821b905092915050565b600060088302620001697fffffffffffffffffffffffffffffffffffffffffffffffffffffffffffffffff826200012a565b6200017586836200012a565b95508019841693508086168417925050509392505050565b6000819050919050565b6000819050919050565b6000620001c2620001bc620001b6846200018d565b62000197565b6200018d565b9050919050565b6000819050919050565b620001de83620001a1565b620001f6620001ed82620001c9565b84845462000137565b825550505050565b600090565b6200020d620001fe565b6200021a818484620001d3565b505050565b5b8181101562000242576200023660008262000203565b60018101905062000220565b5050565b601f82111562000291576200025b8162000105565b62000266846200011a565b8101602085101562000276578190505b6200028e62000285856200011a565b8301826200021f565b50505b505050565b600082821c905092915050565b6000620002b66000198460080262000296565b1980831691505092915050565b6000620002d18383620002a3565b9150826002028217905092915050565b620002ec8262000067565b67ffffffffffffffff81111562000308576200030762000072565b5b620003148254620000d0565b6200032182828562000246565b600060209050601f83116001811462000359576000841562000344578287015190505b620003508582620002c3565b865550620003c0565b601f198416620003698662000105565b60005b8281101562000393578489015182556001820191506020850194506020810190506200036c565b86831015620003b35784890151620003af601f891682620002a3565b8355505b6001600288020188555050505b505050505050565b61093880620003d86000396000f3fe6080604052600436106100705760003560e01c806373c275bc1161004e57806373c275bc146100f6578063967e6e6514610112578063c47f00271461013d578063d5dcf1271461016657610070565b806306fdde031461007557806317d7de7c146100a0578063262a9dff146100cb575b600080fd5b34801561008157600080fd5b5061008a61018f565b6040516100979190610387565b60405180910390f35b3480156100ac57600080fd5b506100b561021d565b6040516100c29190610387565b60405180910390f35b3480156100d757600080fd5b506100e06102af565b6040516100ed91906103c2565b60405180910390f35b610110600480360381019061010b9190610552565b6102b5565b005b34801561011e57600080fd5b506101276102d0565b60405161013491906103c2565b60405180910390f35b34801561014957600080fd5b50610164600480360381019061015f91906105ae565b6102da565b005b34801561017257600080fd5b5061018d600480360381019061018891906105f7565b6102ed565b005b6000805461019c90610653565b80601f01602080910402602001604051908101604052809291908181526020018280546101c890610653565b80156102155780601f106101ea57610100808354040283529160200191610215565b820191906000526020600020905b8154815290600101906020018083116101f857829003601f168201915b505050505081565b60606000805461022c90610653565b80601f016020809104026020016040519081016040528092919081815260200182805461025890610653565b80156102a55780601f1061027a576101008083540402835291602001916102a5565b820191906000526020600020905b81548152906001019060200180831161028857829003601f168201915b5050505050905090565b60015481565b81600090816102c49190610830565b50806001819055505050565b6000600154905090565b80600090816102e99190610830565b5050565b8060018190555050565b600081519050919050565b600082825260208201905092915050565b60005b83811015610331578082015181840152602081019050610316565b60008484015250505050565b6000601f19601f8301169050919050565b6000610359826102f7565b6103638185610302565b9350610373818560208601610313565b61037c8161033d565b840191505092915050565b600060208201905081810360008301526103a1818461034e565b905092915050565b6000819050919050565b6103bc816103a9565b82525050565b60006020820190506103d760008301846103b3565b92915050565b6000604051905090565b600080fd5b600080fd5b600080fd5b600080fd5b7f4e487b7100000000000000000000000000000000000000000000000000000000600052604160045260246000fd5b6104338261033d565b810181811067ffffffffffffffff82111715610452576104516103fb565b5b80604052505050565b60006104656103dd565b9050610471828261042a565b919050565b600067ffffffffffffffff821115610491576104906103fb565b5b61049a8261033d565b9050602081019050919050565b82818337600083830152505050565b60006104c96104c484610476565b61045b565b9050828152602081018484840111156104e5576104e46103f6565b5b6104f08482856104a7565b509392505050565b600082601f83011261050d5761050c6103f1565b5b813561051d8482602086016104b6565b91505092915050565b61052f816103a9565b811461053a57600080fd5b50565b60008135905061054c81610526565b92915050565b60008060408385031215610569576105686103e7565b5b600083013567ffffffffffffffff811115610587576105866103ec565b5b610593858286016104f8565b92505060206105a48582860161053d565b9150509250929050565b6000602082840312156105c4576105c36103e7565b5b600082013567ffffffffffffffff8111156105e2576105e16103ec565b5b6105ee848285016104f8565b91505092915050565b60006020828403121561060d5761060c6103e7565b5b600061061b8482850161053d565b91505092915050565b7f4e487b7100000000000000000000000000000000000000000000000000000000600052602260045260246000fd5b6000600282049050600182168061066b57607f821691505b60208210810361067e5761067d610624565b5b50919050565b60008190508160005260206000209050919050565b60006020601f8301049050919050565b600082821b905092915050565b6000600883026106e67fffffffffffffffffffffffffffffffffffffffffffffffffffffffffffffffff826106a9565b6106f086836106a9565b95508019841693508086168417925050509392505050565b6000819050919050565b600061072d610728610723846103a9565b610708565b6103a9565b9050919050565b6000819050919050565b61074783610712565b61075b61075382610734565b8484546106b6565b825550505050565b600090565b610770610763565b61077b81848461073e565b505050565b5b8181101561079f57610794600082610768565b600181019050610781565b5050565b601f8211156107e4576107b581610684565b6107be84610699565b810160208510156107cd578190505b6107e16107d985610699565b830182610780565b50505b505050565b600082821c905092915050565b6000610807600019846008026107e9565b1980831691505092915050565b600061082083836107f6565b9150826002028217905092915050565b610839826102f7565b67ffffffffffffffff811115610852576108516103fb565b5b61085c8254610653565b6108678282856107a3565b600060209050601f83116001811461089a5760008415610888578287015190505b6108928582610814565b8655506108fa565b601f1984166108a886610684565b60005b828110156108d0578489015182556001820191506020850194506020810190506108ab565b868310156108ed57848901516108e9601f8916826107f6565b8355505b6001600288020188555050505b50505050505056fea264697066735822122035924418fe28f8c211c22230bcceb9f7aafd1e11696968c3060edb513d64501f64736f6c63430008120033","opcodes":"PUSH1 0x80 PUSH1 0x40 MSTORE CALLVALUE DUP1 ISZERO PUSH3 0x11 JUMPI PUSH1 0x0 DUP1 REVERT JUMPDEST POP PUSH1 0x40 MLOAD DUP1 PUSH1 0x40 ADD PUSH1 0x40 MSTORE DUP1 PUSH1 0x8 DUP2 MSTORE PUSH1 0x20 ADD PUSH32 0x4772656574696E67000000000000000000000000000000000000000000000000 DUP2 MSTORE POP PUSH1 0x0 SWAP1 DUP2 PUSH3 0x58 SWAP2 SWAP1 PUSH3 0x2E1 JUMP JUMPDEST POP PUSH1 0x12 PUSH1 0x1 DUP2 SWAP1 SSTORE POP PUSH3 0x3C8 JUMP JUMPDEST PUSH1 0x0 DUP2 MLOAD SWAP1 POP SWAP2 SWAP1 POP JUMP JUMPDEST PUSH32 0x4E487B7100000000000000000000000000000000000000000000000000000000 PUSH1 0x0 MSTORE PUSH1 0x41 PUSH1 0x4 MSTORE PUSH1 0x24 PUSH1 0x0 REVERT JUMPDEST PUSH32 0x4E487B7100000000000000000000000000000000000000000000000000000000 PUSH1 0x0 MSTORE PUSH1 0x22 PUSH1 0x4 MSTORE PUSH1 0x24 PUSH1 0x0 REVERT JUMPDEST PUSH1 0x0 PUSH1 0x2 DUP3 DIV SWAP1 POP PUSH1 0x1 DUP3 AND DUP1 PUSH3 0xE9 JUMPI PUSH1 0x7F DUP3 AND SWAP2 POP JUMPDEST PUSH1 0x20 DUP3 LT DUP2 SUB PUSH3 0xFF JUMPI PUSH3 0xFE PUSH3 0xA1 JUMP JUMPDEST JUMPDEST POP SWAP2 SWAP1 POP JUMP JUMPDEST PUSH1 0x0 DUP2 SWAP1 POP DUP2 PUSH1 0x0 MSTORE PUSH1 0x20 PUSH1 0x0 KECCAK256 SWAP1 POP SWAP2 SWAP1 POP JUMP JUMPDEST PUSH1 0x0 PUSH1 0x20 PUSH1 0x1F DUP4 ADD DIV SWAP1 POP SWAP2 SWAP1 POP JUMP JUMPDEST PUSH1 0x0 DUP3 DUP3 SHL SWAP1 POP SWAP3 SWAP2 POP POP JUMP JUMPDEST PUSH1 0x0 PUSH1 0x8 DUP4 MUL PUSH3 0x169 PUSH32 0xFFFFFFFFFFFFFFFFFFFFFFFFFFFFFFFFFFFFFFFFFFFFFFFFFFFFFFFFFFFFFFFF DUP3 PUSH3 0x12A JUMP JUMPDEST PUSH3 0x175 DUP7 DUP4 PUSH3 0x12A JUMP JUMPDEST SWAP6 POP DUP1 NOT DUP5 AND SWAP4 POP DUP1 DUP7 AND DUP5 OR SWAP3 POP POP POP SWAP4 SWAP3 POP POP POP JUMP JUMPDEST PUSH1 0x0 DUP2 SWAP1 POP SWAP2 SWAP1 POP JUMP JUMPDEST PUSH1 0x0 DUP2 SWAP1 POP SWAP2 SWAP1 POP JUMP JUMPDEST PUSH1 0x0 PUSH3 0x1C2 PUSH3 0x1BC PUSH3 0x1B6 DUP5 PUSH3 0x18D JUMP JUMPDEST PUSH3 0x197 JUMP JUMPDEST PUSH3 0x18D JUMP JUMPDEST SWAP1 POP SWAP2 SWAP1 POP JUMP JUMPDEST PUSH1 0x0 DUP2 SWAP1 POP SWAP2 SWAP1 POP JUMP JUMPDEST PUSH3 0x1DE DUP4 PUSH3 0x1A1 JUMP JUMPDEST PUSH3 0x1F6 PUSH3 0x1ED DUP3 PUSH3 0x1C9 JUMP JUMPDEST DUP5 DUP5 SLOAD PUSH3 0x137 JUMP JUMPDEST DUP3 SSTORE POP POP POP POP JUMP JUMPDEST PUSH1 0x0 SWAP1 JUMP JUMPDEST PUSH3 0x20D PUSH3 0x1FE JUMP JUMPDEST PUSH3 0x21A DUP2 DUP5 DUP5 PUSH3 0x1D3 JUMP JUMPDEST POP POP POP JUMP JUMPDEST JUMPDEST DUP2 DUP2 LT ISZERO PUSH3 0x242 JUMPI PUSH3 0x236 PUSH1 0x0 DUP3 PUSH3 0x203 JUMP JUMPDEST PUSH1 0x1 DUP2 ADD SWAP1 POP PUSH3 0x220 JUMP JUMPDEST POP POP JUMP JUMPDEST PUSH1 0x1F DUP3 GT ISZERO PUSH3 0x291 JUMPI PUSH3 0x25B DUP2 PUSH3 0x105 JUMP JUMPDEST PUSH3 0x266 DUP5 PUSH3 0x11A JUMP JUMPDEST DUP2 ADD PUSH1 0x20 DUP6 LT ISZERO PUSH3 0x276 JUMPI DUP2 SWAP1 POP JUMPDEST PUSH3 0x28E PUSH3 0x285 DUP6 PUSH3 0x11A JUMP JUMPDEST DUP4 ADD DUP3 PUSH3 0x21F JUMP JUMPDEST POP POP JUMPDEST POP POP POP JUMP JUMPDEST PUSH1 0x0 DUP3 DUP3 SHR SWAP1 POP SWAP3 SWAP2 POP POP JUMP JUMPDEST PUSH1 0x0 PUSH3 0x2B6 PUSH1 0x0 NOT DUP5 PUSH1 0x8 MUL PUSH3 0x296 JUMP JUMPDEST NOT DUP1 DUP4 AND SWAP2 POP POP SWAP3 SWAP2 POP POP JUMP JUMPDEST PUSH1 0x0 PUSH3 0x2D1 DUP4 DUP4 PUSH3 0x2A3 JUMP JUMPDEST SWAP2 POP DUP3 PUSH1 0x2 MUL DUP3 OR SWAP1 POP SWAP3 SWAP2 POP POP JUMP JUMPDEST PUSH3 0x2EC DUP3 PUSH3 0x67 JUMP JUMPDEST PUSH8 0xFFFFFFFFFFFFFFFF DUP2 GT ISZERO PUSH3 0x308 JUMPI PUSH3 0x307 PUSH3 0x72 JUMP JUMPDEST JUMPDEST PUSH3 0x314 DUP3 SLOAD PUSH3 0xD0 JUMP JUMPDEST PUSH3 0x321 DUP3 DUP3 DUP6 PUSH3 0x246 JUMP JUMPDEST PUSH1 0x0 PUSH1 0x20 SWAP1 POP PUSH1 0x1F DUP4 GT PUSH1 0x1 DUP2 EQ PUSH3 0x359 JUMPI PUSH1 0x0 DUP5 ISZERO PUSH3 0x344 JUMPI DUP3 DUP8 ADD MLOAD SWAP1 POP JUMPDEST PUSH3 0x350 DUP6 DUP3 PUSH3 0x2C3 JUMP JUMPDEST DUP7 SSTORE POP PUSH3 0x3C0 JUMP JUMPDEST PUSH1 0x1F NOT DUP5 AND PUSH3 0x369 DUP7 PUSH3 0x105 JUMP JUMPDEST PUSH1 0x0 JUMPDEST DUP3 DUP2 LT ISZERO PUSH3 0x393 JUMPI DUP5 DUP10 ADD MLOAD DUP3 SSTORE PUSH1 0x1 DUP3 ADD SWAP2 POP PUSH1 0x20 DUP6 ADD SWAP5 POP PUSH1 0x20 DUP2 ADD SWAP1 POP PUSH3 0x36C JUMP JUMPDEST DUP7 DUP4 LT ISZERO PUSH3 0x3B3 JUMPI DUP5 DUP10 ADD MLOAD PUSH3 0x3AF PUSH1 0x1F DUP10 AND DUP3 PUSH3 0x2A3 JUMP JUMPDEST DUP4 SSTORE POP JUMPDEST PUSH1 0x1 PUSH1 0x2 DUP9 MUL ADD DUP9 SSTORE POP POP POP JUMPDEST POP POP POP POP POP POP JUMP JUMPDEST PUSH2 0x938 DUP1 PUSH3 0x3D8 PUSH1 0x0 CODECOPY PUSH1 0x0 RETURN INVALID PUSH1 0x80 PUSH1 0x40 MSTORE PUSH1 0x4 CALLDATASIZE LT PUSH2 0x70 JUMPI PUSH1 0x0 CALLDATALOAD PUSH1 0xE0 SHR DUP1 PUSH4 0x73C275BC GT PUSH2 0x4E JUMPI DUP1 PUSH4 0x73C275BC EQ PUSH2 0xF6 JUMPI DUP1 PUSH4 0x967E6E65 EQ PUSH2 0x112 JUMPI DUP1 PUSH4 0xC47F0027 EQ PUSH2 0x13D JUMPI DUP1 PUSH4 0xD5DCF127 EQ PUSH2 0x166 JUMPI PUSH2 0x70 JUMP JUMPDEST DUP1 PUSH4 0x6FDDE03 EQ PUSH2 0x75 JUMPI DUP1 PUSH4 0x17D7DE7C EQ PUSH2 0xA0 JUMPI DUP1 PUSH4 0x262A9DFF EQ PUSH2 0xCB JUMPI JUMPDEST PUSH1 0x0 DUP1 REVERT JUMPDEST CALLVALUE DUP1 ISZERO PUSH2 0x81 JUMPI PUSH1 0x0 DUP1 REVERT JUMPDEST POP PUSH2 0x8A PUSH2 0x18F JUMP JUMPDEST PUSH1 0x40 MLOAD PUSH2 0x97 SWAP2 SWAP1 PUSH2 0x387 JUMP JUMPDEST PUSH1 0x40 MLOAD DUP1 SWAP2 SUB SWAP1 RETURN JUMPDEST CALLVALUE DUP1 ISZERO PUSH2 0xAC JUMPI PUSH1 0x0 DUP1 REVERT JUMPDEST POP PUSH2 0xB5 PUSH2 0x21D JUMP JUMPDEST PUSH1 0x40 MLOAD PUSH2 0xC2 SWAP2 SWAP1 PUSH2 0x387 JUMP JUMPDEST PUSH1 0x40 MLOAD DUP1 SWAP2 SUB SWAP1 RETURN JUMPDEST CALLVALUE DUP1 ISZERO PUSH2 0xD7 JUMPI PUSH1 0x0 DUP1 REVERT JUMPDEST POP PUSH2 0xE0 PUSH2 0x2AF JUMP JUMPDEST PUSH1 0x40 MLOAD PUSH2 0xED SWAP2 SWAP1 PUSH2 0x3C2 JUMP JUMPDEST PUSH1 0x40 MLOAD DUP1 SWAP2 SUB SWAP1 RETURN JUMPDEST PUSH2 0x110 PUSH1 0x4 DUP1 CALLDATASIZE SUB DUP2 ADD SWAP1 PUSH2 0x10B SWAP2 SWAP1 PUSH2 0x552 JUMP JUMPDEST PUSH2 0x2B5 JUMP JUMPDEST STOP JUMPDEST CALLVALUE DUP1 ISZERO PUSH2 0x11E JUMPI PUSH1 0x0 DUP1 REVERT JUMPDEST POP PUSH2 0x127 PUSH2 0x2D0 JUMP JUMPDEST PUSH1 0x40 MLOAD PUSH2 0x134 SWAP2 SWAP1 PUSH2 0x3C2 JUMP JUMPDEST PUSH1 0x40 MLOAD DUP1 SWAP2 SUB SWAP1 RETURN JUMPDEST CALLVALUE DUP1 ISZERO PUSH2 0x149 JUMPI PUSH1 0x0 DUP1 REVERT JUMPDEST POP PUSH2 0x164 PUSH1 0x4 DUP1 CALLDATASIZE SUB DUP2 ADD SWAP1 PUSH2 0x15F SWAP2 SWAP1 PUSH2 0x5AE JUMP JUMPDEST PUSH2 0x2DA JUMP JUMPDEST STOP JUMPDEST CALLVALUE DUP1 ISZERO PUSH2 0x172 JUMPI PUSH1 0x0 DUP1 REVERT JUMPDEST POP PUSH2 0x18D PUSH1 0x4 DUP1 CALLDATASIZE SUB DUP2 ADD SWAP1 PUSH2 0x188 SWAP2 SWAP1 PUSH2 0x5F7 JUMP JUMPDEST PUSH2 0x2ED JUMP JUMPDEST STOP JUMPDEST PUSH1 0x0 DUP1 SLOAD PUSH2 0x19C SWAP1 PUSH2 0x653 JUMP JUMPDEST DUP1 PUSH1 0x1F ADD PUSH1 0x20 DUP1 SWAP2 DIV MUL PUSH1 0x20 ADD PUSH1 0x40 MLOAD SWAP1 DUP2 ADD PUSH1 0x40 MSTORE DUP1 SWAP3 SWAP2 SWAP1 DUP2 DUP2 MSTORE PUSH1 0x20 ADD DUP3 DUP1 SLOAD PUSH2 0x1C8 SWAP1 PUSH2 0x653 JUMP JUMPDEST DUP1 ISZERO PUSH2 0x215 JUMPI DUP1 PUSH1 0x1F LT PUSH2 0x1EA JUMPI PUSH2 0x100 DUP1 DUP4 SLOAD DIV MUL DUP4 MSTORE SWAP2 PUSH1 0x20 ADD SWAP2 PUSH2 0x215 JUMP JUMPDEST DUP3 ADD SWAP2 SWAP1 PUSH1 0x0 MSTORE PUSH1 0x20 PUSH1 0x0 KECCAK256 SWAP1 JUMPDEST DUP2 SLOAD DUP2 MSTORE SWAP1 PUSH1 0x1 ADD SWAP1 PUSH1 0x20 ADD DUP1 DUP4 GT PUSH2 0x1F8 JUMPI DUP3 SWAP1 SUB PUSH1 0x1F AND DUP3 ADD SWAP2 JUMPDEST POP POP POP POP POP DUP2 JUMP JUMPDEST PUSH1 0x60 PUSH1 0x0 DUP1 SLOAD PUSH2 0x22C SWAP1 PUSH2 0x653 JUMP JUMPDEST DUP1 PUSH1 0x1F ADD PUSH1 0x20 DUP1 SWAP2 DIV MUL PUSH1 0x20 ADD PUSH1 0x40 MLOAD SWAP1 DUP2 ADD PUSH1 0x40 MSTORE DUP1 SWAP3 SWAP2 SWAP1 DUP2 DUP2 MSTORE PUSH1 0x20 ADD DUP3 DUP1 SLOAD PUSH2 0x258 SWAP1 PUSH2 0x653 JUMP JUMPDEST DUP1 ISZERO PUSH2 0x2A5 JUMPI DUP1 PUSH1 0x1F LT PUSH2 0x27A JUMPI PUSH2 0x100 DUP1 DUP4 SLOAD DIV MUL DUP4 MSTORE SWAP2 PUSH1 0x20 ADD SWAP2 PUSH2 0x2A5 JUMP JUMPDEST DUP3 ADD SWAP2 SWAP1 PUSH1 0x0 MSTORE PUSH1 0x20 PUSH1 0x0 KECCAK256 SWAP1 JUMPDEST DUP2 SLOAD DUP2 MSTORE SWAP1 PUSH1 0x1 ADD SWAP1 PUSH1 0x20 ADD DUP1 DUP4 GT PUSH2 0x288 JUMPI DUP3 SWAP1 SUB PUSH1 0x1F AND DUP3 ADD SWAP2 JUMPDEST POP POP POP POP POP SWAP1 POP SWAP1 JUMP JUMPDEST PUSH1 0x1 SLOAD DUP2 JUMP JUMPDEST DUP2 PUSH1 0x0 SWAP1 DUP2 PUSH2 0x2C4 SWAP2 SWAP1 PUSH2 0x830 JUMP JUMPDEST POP DUP1 PUSH1 0x1 DUP2 SWAP1 SSTORE POP POP POP JUMP JUMPDEST PUSH1 0x0 PUSH1 0x1 SLOAD SWAP1 POP SWAP1 JUMP JUMPDEST DUP1 PUSH1 0x0 SWAP1 DUP2 PUSH2 0x2E9 SWAP2 SWAP1 PUSH2 0x830 JUMP JUMPDEST POP POP JUMP JUMPDEST DUP1 PUSH1 0x1 DUP2 SWAP1 SSTORE POP POP JUMP JUMPDEST PUSH1 0x0 DUP2 MLOAD SWAP1 POP SWAP2 SWAP1 POP JUMP JUMPDEST PUSH1 0x0 DUP3 DUP3 MSTORE PUSH1 0x20 DUP3 ADD SWAP1 POP SWAP3 SWAP2 POP POP JUMP JUMPDEST PUSH1 0x0 JUMPDEST DUP4 DUP2 LT ISZERO PUSH2 0x331 JUMPI DUP1 DUP3 ADD MLOAD DUP2 DUP5 ADD MSTORE PUSH1 0x20 DUP2 ADD SWAP1 POP PUSH2 0x316 JUMP JUMPDEST PUSH1 0x0 DUP5 DUP5 ADD MSTORE POP POP POP POP JUMP JUMPDEST PUSH1 0x0 PUSH1 0x1F NOT PUSH1 0x1F DUP4 ADD AND SWAP1 POP SWAP2 SWAP1 POP JUMP JUMPDEST PUSH1 0x0 PUSH2 0x359 DUP3 PUSH2 0x2F7 JUMP JUMPDEST PUSH2 0x363 DUP2 DUP6 PUSH2 0x302 JUMP JUMPDEST SWAP4 POP PUSH2 0x373 DUP2 DUP6 PUSH1 0x20 DUP7 ADD PUSH2 0x313 JUMP JUMPDEST PUSH2 0x37C DUP2 PUSH2 0x33D JUMP JUMPDEST DUP5 ADD SWAP2 POP POP SWAP3 SWAP2 POP POP JUMP JUMPDEST PUSH1 0x0 PUSH1 0x20 DUP3 ADD SWAP1 POP DUP2 DUP2 SUB PUSH1 0x0 DUP4 ADD MSTORE PUSH2 0x3A1 DUP2 DUP5 PUSH2 0x34E JUMP JUMPDEST SWAP1 POP SWAP3 SWAP2 POP POP JUMP JUMPDEST PUSH1 0x0 DUP2 SWAP1 POP SWAP2 SWAP1 POP JUMP JUMPDEST PUSH2 0x3BC DUP2 PUSH2 0x3A9 JUMP JUMPDEST DUP3 MSTORE POP POP JUMP JUMPDEST PUSH1 0x0 PUSH1 0x20 DUP3 ADD SWAP1 POP PUSH2 0x3D7 PUSH1 0x0 DUP4 ADD DUP5 PUSH2 0x3B3 JUMP JUMPDEST SWAP3 SWAP2 POP POP JUMP JUMPDEST PUSH1 0x0 PUSH1 0x40 MLOAD SWAP1 POP SWAP1 JUMP JUMPDEST PUSH1 0x0 DUP1 REVERT JUMPDEST PUSH1 0x0 DUP1 REVERT JUMPDEST PUSH1 0x0 DUP1 REVERT JUMPDEST PUSH1 0x0 DUP1 REVERT JUMPDEST PUSH32 0x4E487B7100000000000000000000000000000000000000000000000000000000 PUSH1 0x0 MSTORE PUSH1 0x41 PUSH1 0x4 MSTORE PUSH1 0x24 PUSH1 0x0 REVERT JUMPDEST PUSH2 0x433 DUP3 PUSH2 0x33D JUMP JUMPDEST DUP2 ADD DUP2 DUP2 LT PUSH8 0xFFFFFFFFFFFFFFFF DUP3 GT OR ISZERO PUSH2 0x452 JUMPI PUSH2 0x451 PUSH2 0x3FB JUMP JUMPDEST JUMPDEST DUP1 PUSH1 0x40 MSTORE POP POP POP JUMP JUMPDEST PUSH1 0x0 PUSH2 0x465 PUSH2 0x3DD JUMP JUMPDEST SWAP1 POP PUSH2 0x471 DUP3 DUP3 PUSH2 0x42A JUMP JUMPDEST SWAP2 SWAP1 POP JUMP JUMPDEST PUSH1 0x0 PUSH8 0xFFFFFFFFFFFFFFFF DUP3 GT ISZERO PUSH2 0x491 JUMPI PUSH2 0x490 PUSH2 0x3FB JUMP JUMPDEST JUMPDEST PUSH2 0x49A DUP3 PUSH2 0x33D JUMP JUMPDEST SWAP1 POP PUSH1 0x20 DUP2 ADD SWAP1 POP SWAP2 SWAP1 POP JUMP JUMPDEST DUP3 DUP2 DUP4 CALLDATACOPY PUSH1 0x0 DUP4 DUP4 ADD MSTORE POP POP POP JUMP JUMPDEST PUSH1 0x0 PUSH2 0x4C9 PUSH2 0x4C4 DUP5 PUSH2 0x476 JUMP JUMPDEST PUSH2 0x45B JUMP JUMPDEST SWAP1 POP DUP3 DUP2 MSTORE PUSH1 0x20 DUP2 ADD DUP5 DUP5 DUP5 ADD GT ISZERO PUSH2 0x4E5 JUMPI PUSH2 0x4E4 PUSH2 0x3F6 JUMP JUMPDEST JUMPDEST PUSH2 0x4F0 DUP5 DUP3 DUP6 PUSH2 0x4A7 JUMP JUMPDEST POP SWAP4 SWAP3 POP POP POP JUMP JUMPDEST PUSH1 0x0 DUP3 PUSH1 0x1F DUP4 ADD SLT PUSH2 0x50D JUMPI PUSH2 0x50C PUSH2 0x3F1 JUMP JUMPDEST JUMPDEST DUP2 CALLDATALOAD PUSH2 0x51D DUP5 DUP3 PUSH1 0x20 DUP7 ADD PUSH2 0x4B6 JUMP JUMPDEST SWAP2 POP POP SWAP3 SWAP2 POP POP JUMP JUMPDEST PUSH2 0x52F DUP2 PUSH2 0x3A9 JUMP JUMPDEST DUP2 EQ PUSH2 0x53A JUMPI PUSH1 0x0 DUP1 REVERT JUMPDEST POP JUMP JUMPDEST PUSH1 0x0 DUP2 CALLDATALOAD SWAP1 POP PUSH2 0x54C DUP2 PUSH2 0x526 JUMP JUMPDEST SWAP3 SWAP2 POP POP JUMP JUMPDEST PUSH1 0x0 DUP1 PUSH1 0x40 DUP4 DUP6 SUB SLT ISZERO PUSH2 0x569 JUMPI PUSH2 0x568 PUSH2 0x3E7 JUMP JUMPDEST JUMPDEST PUSH1 0x0 DUP4 ADD CALLDATALOAD PUSH8 0xFFFFFFFFFFFFFFFF DUP2 GT ISZERO PUSH2 0x587 JUMPI PUSH2 0x586 PUSH2 0x3EC JUMP JUMPDEST JUMPDEST PUSH2 0x593 DUP6 DUP3 DUP7 ADD PUSH2 0x4F8 JUMP JUMPDEST SWAP3 POP POP PUSH1 0x20 PUSH2 0x5A4 DUP6 DUP3 DUP7 ADD PUSH2 0x53D JUMP JUMPDEST SWAP2 POP POP SWAP3 POP SWAP3 SWAP1 POP JUMP JUMPDEST PUSH1 0x0 PUSH1 0x20 DUP3 DUP5 SUB SLT ISZERO PUSH2 0x5C4 JUMPI PUSH2 0x5C3 PUSH2 0x3E7 JUMP JUMPDEST JUMPDEST PUSH1 0x0 DUP3 ADD CALLDATALOAD PUSH8 0xFFFFFFFFFFFFFFFF DUP2 GT ISZERO PUSH2 0x5E2 JUMPI PUSH2 0x5E1 PUSH2 0x3EC JUMP JUMPDEST JUMPDEST PUSH2 0x5EE DUP5 DUP3 DUP6 ADD PUSH2 0x4F8 JUMP JUMPDEST SWAP2 POP POP SWAP3 SWAP2 POP POP JUMP JUMPDEST PUSH1 0x0 PUSH1 0x20 DUP3 DUP5 SUB SLT ISZERO PUSH2 0x60D JUMPI PUSH2 0x60C PUSH2 0x3E7 JUMP JUMPDEST JUMPDEST PUSH1 0x0 PUSH2 0x61B DUP5 DUP3 DUP6 ADD PUSH2 0x53D JUMP JUMPDEST SWAP2 POP POP SWAP3 SWAP2 POP POP JUMP JUMPDEST PUSH32 0x4E487B7100000000000000000000000000000000000000000000000000000000 PUSH1 0x0 MSTORE PUSH1 0x22 PUSH1 0x4 MSTORE PUSH1 0x24 PUSH1 0x0 REVERT JUMPDEST PUSH1 0x0 PUSH1 0x2 DUP3 DIV SWAP1 POP PUSH1 0x1 DUP3 AND DUP1 PUSH2 0x66B JUMPI PUSH1 0x7F DUP3 AND SWAP2 POP JUMPDEST PUSH1 0x20 DUP3 LT DUP2 SUB PUSH2 0x67E JUMPI PUSH2 0x67D PUSH2 0x624 JUMP JUMPDEST JUMPDEST POP SWAP2 SWAP1 POP JUMP JUMPDEST PUSH1 0x0 DUP2 SWAP1 POP DUP2 PUSH1 0x0 MSTORE PUSH1 0x20 PUSH1 0x0 KECCAK256 SWAP1 POP SWAP2 SWAP1 POP JUMP JUMPDEST PUSH1 0x0 PUSH1 0x20 PUSH1 0x1F DUP4 ADD DIV SWAP1 POP SWAP2 SWAP1 POP JUMP JUMPDEST PUSH1 0x0 DUP3 DUP3 SHL SWAP1 POP SWAP3 SWAP2 POP POP JUMP JUMPDEST PUSH1 0x0 PUSH1 0x8 DUP4 MUL PUSH2 0x6E6 PUSH32 0xFFFFFFFFFFFFFFFFFFFFFFFFFFFFFFFFFFFFFFFFFFFFFFFFFFFFFFFFFFFFFFFF DUP3 PUSH2 0x6A9 JUMP JUMPDEST PUSH2 0x6F0 DUP7 DUP4 PUSH2 0x6A9 JUMP JUMPDEST SWAP6 POP DUP1 NOT DUP5 AND SWAP4 POP DUP1 DUP7 AND DUP5 OR SWAP3 POP POP POP SWAP4 SWAP3 POP POP POP JUMP JUMPDEST PUSH1 0x0 DUP2 SWAP1 POP SWAP2 SWAP1 POP JUMP JUMPDEST PUSH1 0x0 PUSH2 0x72D PUSH2 0x728 PUSH2 0x723 DUP5 PUSH2 0x3A9 JUMP JUMPDEST PUSH2 0x708 JUMP JUMPDEST PUSH2 0x3A9 JUMP JUMPDEST SWAP1 POP SWAP2 SWAP1 POP JUMP JUMPDEST PUSH1 0x0 DUP2 SWAP1 POP SWAP2 SWAP1 POP JUMP JUMPDEST PUSH2 0x747 DUP4 PUSH2 0x712 JUMP JUMPDEST PUSH2 0x75B PUSH2 0x753 DUP3 PUSH2 0x734 JUMP JUMPDEST DUP5 DUP5 SLOAD PUSH2 0x6B6 JUMP JUMPDEST DUP3 SSTORE POP POP POP POP JUMP JUMPDEST PUSH1 0x0 SWAP1 JUMP JUMPDEST PUSH2 0x770 PUSH2 0x763 JUMP JUMPDEST PUSH2 0x77B DUP2 DUP5 DUP5 PUSH2 0x73E JUMP JUMPDEST POP POP POP JUMP JUMPDEST JUMPDEST DUP2 DUP2 LT ISZERO PUSH2 0x79F JUMPI PUSH2 0x794 PUSH1 0x0 DUP3 PUSH2 0x768 JUMP JUMPDEST PUSH1 0x1 DUP2 ADD SWAP1 POP PUSH2 0x781 JUMP JUMPDEST POP POP JUMP JUMPDEST PUSH1 0x1F DUP3 GT ISZERO PUSH2 0x7E4 JUMPI PUSH2 0x7B5 DUP2 PUSH2 0x684 JUMP JUMPDEST PUSH2 0x7BE DUP5 PUSH2 0x699 JUMP JUMPDEST DUP2 ADD PUSH1 0x20 DUP6 LT ISZERO PUSH2 0x7CD JUMPI DUP2 SWAP1 POP JUMPDEST PUSH2 0x7E1 PUSH2 0x7D9 DUP6 PUSH2 0x699 JUMP JUMPDEST DUP4 ADD DUP3 PUSH2 0x780 JUMP JUMPDEST POP POP JUMPDEST POP POP POP JUMP JUMPDEST PUSH1 0x0 DUP3 DUP3 SHR SWAP1 POP SWAP3 SWAP2 POP POP JUMP JUMPDEST PUSH1 0x0 PUSH2 0x807 PUSH1 0x0 NOT DUP5 PUSH1 0x8 MUL PUSH2 0x7E9 JUMP JUMPDEST NOT DUP1 DUP4 AND SWAP2 POP POP SWAP3 SWAP2 POP POP JUMP JUMPDEST PUSH1 0x0 PUSH2 0x820 DUP4 DUP4 PUSH2 0x7F6 JUMP JUMPDEST SWAP2 POP DUP3 PUSH1 0x2 MUL DUP3 OR SWAP1 POP SWAP3 SWAP2 POP POP JUMP JUMPDEST PUSH2 0x839 DUP3 PUSH2 0x2F7 JUMP JUMPDEST PUSH8 0xFFFFFFFFFFFFFFFF DUP2 GT ISZERO PUSH2 0x852 JUMPI PUSH2 0x851 PUSH2 0x3FB JUMP JUMPDEST JUMPDEST PUSH2 0x85C DUP3 SLOAD PUSH2 0x653 JUMP JUMPDEST PUSH2 0x867 DUP3 DUP3 DUP6 PUSH2 0x7A3 JUMP JUMPDEST PUSH1 0x0 PUSH1 0x20 SWAP1 POP PUSH1 0x1F DUP4 GT PUSH1 0x1 DUP2 EQ PUSH2 0x89A JUMPI PUSH1 0x0 DUP5 ISZERO PUSH2 0x888 JUMPI DUP3 DUP8 ADD MLOAD SWAP1 POP JUMPDEST PUSH2 0x892 DUP6 DUP3 PUSH2 0x814 JUMP JUMPDEST DUP7 SSTORE POP PUSH2 0x8FA JUMP JUMPDEST PUSH1 0x1F NOT DUP5 AND PUSH2 0x8A8 DUP7 PUSH2 0x684 JUMP JUMPDEST PUSH1 0x0 JUMPDEST DUP3 DUP2 LT ISZERO PUSH2 0x8D0 JUMPI DUP5 DUP10 ADD MLOAD DUP3 SSTORE PUSH1 0x1 DUP3 ADD SWAP2 POP PUSH1 0x20 DUP6 ADD SWAP5 POP PUSH1 0x20 DUP2 ADD SWAP1 POP PUSH2 0x8AB JUMP JUMPDEST DUP7 DUP4 LT ISZERO PUSH2 0x8ED JUMPI DUP5 DUP10 ADD MLOAD PUSH2 0x8E9 PUSH1 0x1F DUP10 AND DUP3 PUSH2 0x7F6 JUMP JUMPDEST DUP4 SSTORE POP JUMPDEST PUSH1 0x1 PUSH1 0x2 DUP9 MUL ADD DUP9 SSTORE POP POP POP JUMPDEST POP POP POP POP POP POP JUMP INVALID LOG2 PUSH5 0x6970667358 0x22 SLT KECCAK256 CALLDATALOAD SWAP3 PREVRANDAO XOR INVALID 0x28 0xF8 0xC2 GT 0xC2 0x22 ADDRESS 0xBC 0xCE 0xB9 0xF7 0xAA REVERT 0x1E GT PUSH10 0x6968C3060EDB513D6450 0x1F PUSH5 0x736F6C6343 STOP ADDMOD SLT STOP CALLER "},"methodIdentifiers":{"age()":"262a9dff","getAge()":"967e6e65","getName()":"17d7de7c","name()":"06fdde03","setAge(uint256)":"d5dcf127","setAttributes(string,uint256)":"73c275bc","setName(string)":"c47f0027"}}}}}