{"contracts/Greeting.sol":{"Greeting":{"abi":[{"inputs":[],"stateMutability":"nonpayable","type":"constructor"},{"inputs":[],"name":"data","outputs":[{"internalType":"uint256","name":"id","type":"uint256"},{"internalType":"string","name":"title","type":"string"},{"internalType":"uint256","name":"count","type":"uint256"},{"internalType":"bool","name":"flag","type":"bool"}],"stateMutability":"view","type":"function"},{"inputs":[],"name":"getAge","outputs":[{"internalType":"uint256","name":"","type":"uint256"}],"stateMutability":"view","type":"function"},{"inputs":[],"name":"getData","outputs":[{"internalType":"uint256","name":"","type":"uint256"}],"stateMutability":"view","type":"function"},{"inputs":[],"name":"getName","outputs":[{"internalType":"string","name":"","type":"string"}],"stateMutability":"view","type":"function"},{"inputs":[{"internalType":"uint256","name":"_age","type":"uint256"}],"name":"setAge","outputs":[],"stateMutability":"nonpayable","type":"function"},{"inputs":[{"internalType":"string","name":"_name","type":"string"},{"internalType":"uint256","name":"_age","type":"uint256"}],"name":"setAttributes","outputs":[],"stateMutability":"payable","type":"function"},{"inputs":[{"internalType":"string","name":"_name","type":"string"}],"name":"setName","outputs":[],"stateMutability":"nonpayable","type":"function"}],"evm":{"bytecode":{"linkReferences":{},"object":"60806040523480156200001157600080fd5b506040518060400160405280600881526020017f4772656574696e67000000000000000000000000000000000000000000000000815250600090816200005891906200033d565b5060126001819055506040518060800160405280600181526020016040518060400160405280600481526020017f7465737400000000000000000000000000000000000000000000000000000000815250815260200160018152602001600115158152505062000424565b600081519050919050565b7f4e487b7100000000000000000000000000000000000000000000000000000000600052604160045260246000fd5b7f4e487b7100000000000000000000000000000000000000000000000000000000600052602260045260246000fd5b600060028204905060018216806200014557607f821691505b6020821081036200015b576200015a620000fd565b5b50919050565b60008190508160005260206000209050919050565b60006020601f8301049050919050565b600082821b905092915050565b600060088302620001c57fffffffffffffffffffffffffffffffffffffffffffffffffffffffffffffffff8262000186565b620001d1868362000186565b95508019841693508086168417925050509392505050565b6000819050919050565b6000819050919050565b60006200021e620002186200021284620001e9565b620001f3565b620001e9565b9050919050565b6000819050919050565b6200023a83620001fd565b62000252620002498262000225565b84845462000193565b825550505050565b600090565b620002696200025a565b620002768184846200022f565b505050565b5b818110156200029e57620002926000826200025f565b6001810190506200027c565b5050565b601f821115620002ed57620002b78162000161565b620002c28462000176565b81016020851015620002d2578190505b620002ea620002e18562000176565b8301826200027b565b50505b505050565b600082821c905092915050565b60006200031260001984600802620002f2565b1980831691505092915050565b60006200032d8383620002ff565b9150826002028217905092915050565b6200034882620000c3565b67ffffffffffffffff811115620003645762000363620000ce565b5b6200037082546200012c565b6200037d828285620002a2565b600060209050601f831160018114620003b55760008415620003a0578287015190505b620003ac85826200031f565b8655506200041c565b601f198416620003c58662000161565b60005b82811015620003ef57848901518255600182019150602085019450602081019050620003c8565b868310156200040f57848901516200040b601f891682620002ff565b8355505b6001600288020188555050505b505050505050565b6109ce80620004346000396000f3fe6080604052600436106100705760003560e01c806373d4a13a1161004e57806373d4a13a146100e7578063967e6e6514610115578063c47f002714610140578063d5dcf1271461016957610070565b806317d7de7c146100755780633bc5de30146100a057806373c275bc146100cb575b600080fd5b34801561008157600080fd5b5061008a610192565b60405161009791906103b6565b60405180910390f35b3480156100ac57600080fd5b506100b5610224565b6040516100c291906103f1565b60405180910390f35b6100e560048036038101906100e09190610581565b610231565b005b3480156100f357600080fd5b506100fc61024c565b60405161010c94939291906105f8565b60405180910390f35b34801561012157600080fd5b5061012a6102ff565b60405161013791906103f1565b60405180910390f35b34801561014c57600080fd5b5061016760048036038101906101629190610644565b610309565b005b34801561017557600080fd5b50610190600480360381019061018b919061068d565b61031c565b005b6060600080546101a1906106e9565b80601f01602080910402602001604051908101604052809291908181526020018280546101cd906106e9565b801561021a5780601f106101ef5761010080835404028352916020019161021a565b820191906000526020600020905b8154815290600101906020018083116101fd57829003601f168201915b5050505050905090565b6000600260000154905090565b816000908161024091906108c6565b50806001819055505050565b6002806000015490806001018054610263906106e9565b80601f016020809104026020016040519081016040528092919081815260200182805461028f906106e9565b80156102dc5780601f106102b1576101008083540402835291602001916102dc565b820191906000526020600020905b8154815290600101906020018083116102bf57829003601f168201915b5050505050908060020154908060030160009054906101000a900460ff16905084565b6000600154905090565b806000908161031891906108c6565b5050565b8060018190555050565b600081519050919050565b600082825260208201905092915050565b60005b83811015610360578082015181840152602081019050610345565b60008484015250505050565b6000601f19601f8301169050919050565b600061038882610326565b6103928185610331565b93506103a2818560208601610342565b6103ab8161036c565b840191505092915050565b600060208201905081810360008301526103d0818461037d565b905092915050565b6000819050919050565b6103eb816103d8565b82525050565b600060208201905061040660008301846103e2565b92915050565b6000604051905090565b600080fd5b600080fd5b600080fd5b600080fd5b7f4e487b7100000000000000000000000000000000000000000000000000000000600052604160045260246000fd5b6104628261036c565b810181811067ffffffffffffffff821117156104815761048061042a565b5b80604052505050565b600061049461040c565b90506104a08282610459565b919050565b600067ffffffffffffffff8211156104c0576104bf61042a565b5b6104c98261036c565b9050602081019050919050565b82818337600083830152505050565b60006104f86104f3846104a5565b61048a565b90508281526020810184848401111561051457610513610425565b5b61051f8482856104d6565b509392505050565b600082601f83011261053c5761053b610420565b5b813561054c8482602086016104e5565b91505092915050565b61055e816103d8565b811461056957600080fd5b50565b60008135905061057b81610555565b92915050565b6000806040838503121561059857610597610416565b5b600083013567ffffffffffffffff8111156105b6576105b561041b565b5b6105c285828601610527565b92505060206105d38582860161056c565b9150509250929050565b60008115159050919050565b6105f2816105dd565b82525050565b600060808201905061060d60008301876103e2565b818103602083015261061f818661037d565b905061062e60408301856103e2565b61063b60608301846105e9565b95945050505050565b60006020828403121561065a57610659610416565b5b600082013567ffffffffffffffff8111156106785761067761041b565b5b61068484828501610527565b91505092915050565b6000602082840312156106a3576106a2610416565b5b60006106b18482850161056c565b91505092915050565b7f4e487b7100000000000000000000000000000000000000000000000000000000600052602260045260246000fd5b6000600282049050600182168061070157607f821691505b602082108103610714576107136106ba565b5b50919050565b60008190508160005260206000209050919050565b60006020601f8301049050919050565b600082821b905092915050565b60006008830261077c7fffffffffffffffffffffffffffffffffffffffffffffffffffffffffffffffff8261073f565b610786868361073f565b95508019841693508086168417925050509392505050565b6000819050919050565b60006107c36107be6107b9846103d8565b61079e565b6103d8565b9050919050565b6000819050919050565b6107dd836107a8565b6107f16107e9826107ca565b84845461074c565b825550505050565b600090565b6108066107f9565b6108118184846107d4565b505050565b5b818110156108355761082a6000826107fe565b600181019050610817565b5050565b601f82111561087a5761084b8161071a565b6108548461072f565b81016020851015610863578190505b61087761086f8561072f565b830182610816565b50505b505050565b600082821c905092915050565b600061089d6000198460080261087f565b1980831691505092915050565b60006108b6838361088c565b9150826002028217905092915050565b6108cf82610326565b67ffffffffffffffff8111156108e8576108e761042a565b5b6108f282546106e9565b6108fd828285610839565b600060209050601f831160018114610930576000841561091e578287015190505b61092885826108aa565b865550610990565b601f19841661093e8661071a565b60005b8281101561096657848901518255600182019150602085019450602081019050610941565b86831015610983578489015161097f601f89168261088c565b8355505b6001600288020188555050505b50505050505056fea2646970667358221220c273b4501482b343dd1e22685b4a1c6592368527a8c9ff383e7b8fe4d5dc229f64736f6c63430008120033","opcodes":"PUSH1 0x80 PUSH1 0x40 MSTORE CALLVALUE DUP1 ISZERO PUSH3 0x11 JUMPI PUSH1 0x0 DUP1 REVERT JUMPDEST POP PUSH1 0x40 MLOAD DUP1 PUSH1 0x40 ADD PUSH1 0x40 MSTORE DUP1 PUSH1 0x8 DUP2 MSTORE PUSH1 0x20 ADD PUSH32 0x4772656574696E67000000000000000000000000000000000000000000000000 DUP2 MSTORE POP PUSH1 0x0 SWAP1 DUP2 PUSH3 0x58 SWAP2 SWAP1 PUSH3 0x33D JUMP JUMPDEST POP PUSH1 0x12 PUSH1 0x1 DUP2 SWAP1 SSTORE POP PUSH1 0x40 MLOAD DUP1 PUSH1 0x80 ADD PUSH1 0x40 MSTORE DUP1 PUSH1 0x1 DUP2 MSTORE PUSH1 0x20 ADD PUSH1 0x40 MLOAD DUP1 PUSH1 0x40 ADD PUSH1 0x40 MSTORE DUP1 PUSH1 0x4 DUP2 MSTORE PUSH1 0x20 ADD PUSH32 0x7465737400000000000000000000000000000000000000000000000000000000 DUP2 MSTORE POP DUP2 MSTORE PUSH1 0x20 ADD PUSH1 0x1 DUP2 MSTORE PUSH1 0x20 ADD PUSH1 0x1 ISZERO ISZERO DUP2 MSTORE POP POP PUSH3 0x424 JUMP JUMPDEST PUSH1 0x0 DUP2 MLOAD SWAP1 POP SWAP2 SWAP1 POP JUMP JUMPDEST PUSH32 0x4E487B7100000000000000000000000000000000000000000000000000000000 PUSH1 0x0 MSTORE PUSH1 0x41 PUSH1 0x4 MSTORE PUSH1 0x24 PUSH1 0x0 REVERT JUMPDEST PUSH32 0x4E487B7100000000000000000000000000000000000000000000000000000000 PUSH1 0x0 MSTORE PUSH1 0x22 PUSH1 0x4 MSTORE PUSH1 0x24 PUSH1 0x0 REVERT JUMPDEST PUSH1 0x0 PUSH1 0x2 DUP3 DIV SWAP1 POP PUSH1 0x1 DUP3 AND DUP1 PUSH3 0x145 JUMPI PUSH1 0x7F DUP3 AND SWAP2 POP JUMPDEST PUSH1 0x20 DUP3 LT DUP2 SUB PUSH3 0x15B JUMPI PUSH3 0x15A PUSH3 0xFD JUMP JUMPDEST JUMPDEST POP SWAP2 SWAP1 POP JUMP JUMPDEST PUSH1 0x0 DUP2 SWAP1 POP DUP2 PUSH1 0x0 MSTORE PUSH1 0x20 PUSH1 0x0 KECCAK256 SWAP1 POP SWAP2 SWAP1 POP JUMP JUMPDEST PUSH1 0x0 PUSH1 0x20 PUSH1 0x1F DUP4 ADD DIV SWAP1 POP SWAP2 SWAP1 POP JUMP JUMPDEST PUSH1 0x0 DUP3 DUP3 SHL SWAP1 POP SWAP3 SWAP2 POP POP JUMP JUMPDEST PUSH1 0x0 PUSH1 0x8 DUP4 MUL PUSH3 0x1C5 PUSH32 0xFFFFFFFFFFFFFFFFFFFFFFFFFFFFFFFFFFFFFFFFFFFFFFFFFFFFFFFFFFFFFFFF DUP3 PUSH3 0x186 JUMP JUMPDEST PUSH3 0x1D1 DUP7 DUP4 PUSH3 0x186 JUMP JUMPDEST SWAP6 POP DUP1 NOT DUP5 AND SWAP4 POP DUP1 DUP7 AND DUP5 OR SWAP3 POP POP POP SWAP4 SWAP3 POP POP POP JUMP JUMPDEST PUSH1 0x0 DUP2 SWAP1 POP SWAP2 SWAP1 POP JUMP JUMPDEST PUSH1 0x0 DUP2 SWAP1 POP SWAP2 SWAP1 POP JUMP JUMPDEST PUSH1 0x0 PUSH3 0x21E PUSH3 0x218 PUSH3 0x212 DUP5 PUSH3 0x1E9 JUMP JUMPDEST PUSH3 0x1F3 JUMP JUMPDEST PUSH3 0x1E9 JUMP JUMPDEST SWAP1 POP SWAP2 SWAP1 POP JUMP JUMPDEST PUSH1 0x0 DUP2 SWAP1 POP SWAP2 SWAP1 POP JUMP JUMPDEST PUSH3 0x23A DUP4 PUSH3 0x1FD JUMP JUMPDEST PUSH3 0x252 PUSH3 0x249 DUP3 PUSH3 0x225 JUMP JUMPDEST DUP5 DUP5 SLOAD PUSH3 0x193 JUMP JUMPDEST DUP3 SSTORE POP POP POP POP JUMP JUMPDEST PUSH1 0x0 SWAP1 JUMP JUMPDEST PUSH3 0x269 PUSH3 0x25A JUMP JUMPDEST PUSH3 0x276 DUP2 DUP5 DUP5 PUSH3 0x22F JUMP JUMPDEST POP POP POP JUMP JUMPDEST JUMPDEST DUP2 DUP2 LT ISZERO PUSH3 0x29E JUMPI PUSH3 0x292 PUSH1 0x0 DUP3 PUSH3 0x25F JUMP JUMPDEST PUSH1 0x1 DUP2 ADD SWAP1 POP PUSH3 0x27C JUMP JUMPDEST POP POP JUMP JUMPDEST PUSH1 0x1F DUP3 GT ISZERO PUSH3 0x2ED JUMPI PUSH3 0x2B7 DUP2 PUSH3 0x161 JUMP JUMPDEST PUSH3 0x2C2 DUP5 PUSH3 0x176 JUMP JUMPDEST DUP2 ADD PUSH1 0x20 DUP6 LT ISZERO PUSH3 0x2D2 JUMPI DUP2 SWAP1 POP JUMPDEST PUSH3 0x2EA PUSH3 0x2E1 DUP6 PUSH3 0x176 JUMP JUMPDEST DUP4 ADD DUP3 PUSH3 0x27B JUMP JUMPDEST POP POP JUMPDEST POP POP POP JUMP JUMPDEST PUSH1 0x0 DUP3 DUP3 SHR SWAP1 POP SWAP3 SWAP2 POP POP JUMP JUMPDEST PUSH1 0x0 PUSH3 0x312 PUSH1 0x0 NOT DUP5 PUSH1 0x8 MUL PUSH3 0x2F2 JUMP JUMPDEST NOT DUP1 DUP4 AND SWAP2 POP POP SWAP3 SWAP2 POP POP JUMP JUMPDEST PUSH1 0x0 PUSH3 0x32D DUP4 DUP4 PUSH3 0x2FF JUMP JUMPDEST SWAP2 POP DUP3 PUSH1 0x2 MUL DUP3 OR SWAP1 POP SWAP3 SWAP2 POP POP JUMP JUMPDEST PUSH3 0x348 DUP3 PUSH3 0xC3 JUMP JUMPDEST PUSH8 0xFFFFFFFFFFFFFFFF DUP2 GT ISZERO PUSH3 0x364 JUMPI PUSH3 0x363 PUSH3 0xCE JUMP JUMPDEST JUMPDEST PUSH3 0x370 DUP3 SLOAD PUSH3 0x12C JUMP JUMPDEST PUSH3 0x37D DUP3 DUP3 DUP6 PUSH3 0x2A2 JUMP JUMPDEST PUSH1 0x0 PUSH1 0x20 SWAP1 POP PUSH1 0x1F DUP4 GT PUSH1 0x1 DUP2 EQ PUSH3 0x3B5 JUMPI PUSH1 0x0 DUP5 ISZERO PUSH3 0x3A0 JUMPI DUP3 DUP8 ADD MLOAD SWAP1 POP JUMPDEST PUSH3 0x3AC DUP6 DUP3 PUSH3 0x31F JUMP JUMPDEST DUP7 SSTORE POP PUSH3 0x41C JUMP JUMPDEST PUSH1 0x1F NOT DUP5 AND PUSH3 0x3C5 DUP7 PUSH3 0x161 JUMP JUMPDEST PUSH1 0x0 JUMPDEST DUP3 DUP2 LT ISZERO PUSH3 0x3EF JUMPI DUP5 DUP10 ADD MLOAD DUP3 SSTORE PUSH1 0x1 DUP3 ADD SWAP2 POP PUSH1 0x20 DUP6 ADD SWAP5 POP PUSH1 0x20 DUP2 ADD SWAP1 POP PUSH3 0x3C8 JUMP JUMPDEST DUP7 DUP4 LT ISZERO PUSH3 0x40F JUMPI DUP5 DUP10 ADD MLOAD PUSH3 0x40B PUSH1 0x1F DUP10 AND DUP3 PUSH3 0x2FF JUMP JUMPDEST DUP4 SSTORE POP JUMPDEST PUSH1 0x1 PUSH1 0x2 DUP9 MUL ADD DUP9 SSTORE POP POP POP JUMPDEST POP POP POP POP POP POP JUMP JUMPDEST PUSH2 0x9CE DUP1 PUSH3 0x434 PUSH1 0x0 CODECOPY PUSH1 0x0 RETURN INVALID PUSH1 0x80 PUSH1 0x40 MSTORE PUSH1 0x4 CALLDATASIZE LT PUSH2 0x70 JUMPI PUSH1 0x0 CALLDATALOAD PUSH1 0xE0 SHR DUP1 PUSH4 0x73D4A13A GT PUSH2 0x4E JUMPI DUP1 PUSH4 0x73D4A13A EQ PUSH2 0xE7 JUMPI DUP1 PUSH4 0x967E6E65 EQ PUSH2 0x115 JUMPI DUP1 PUSH4 0xC47F0027 EQ PUSH2 0x140 JUMPI DUP1 PUSH4 0xD5DCF127 EQ PUSH2 0x169 JUMPI PUSH2 0x70 JUMP JUMPDEST DUP1 PUSH4 0x17D7DE7C EQ PUSH2 0x75 JUMPI DUP1 PUSH4 0x3BC5DE30 EQ PUSH2 0xA0 JUMPI DUP1 PUSH4 0x73C275BC EQ PUSH2 0xCB JUMPI JUMPDEST PUSH1 0x0 DUP1 REVERT JUMPDEST CALLVALUE DUP1 ISZERO PUSH2 0x81 JUMPI PUSH1 0x0 DUP1 REVERT JUMPDEST POP PUSH2 0x8A PUSH2 0x192 JUMP JUMPDEST PUSH1 0x40 MLOAD PUSH2 0x97 SWAP2 SWAP1 PUSH2 0x3B6 JUMP JUMPDEST PUSH1 0x40 MLOAD DUP1 SWAP2 SUB SWAP1 RETURN JUMPDEST CALLVALUE DUP1 ISZERO PUSH2 0xAC JUMPI PUSH1 0x0 DUP1 REVERT JUMPDEST POP PUSH2 0xB5 PUSH2 0x224 JUMP JUMPDEST PUSH1 0x40 MLOAD PUSH2 0xC2 SWAP2 SWAP1 PUSH2 0x3F1 JUMP JUMPDEST PUSH1 0x40 MLOAD DUP1 SWAP2 SUB SWAP1 RETURN JUMPDEST PUSH2 0xE5 PUSH1 0x4 DUP1 CALLDATASIZE SUB DUP2 ADD SWAP1 PUSH2 0xE0 SWAP2 SWAP1 PUSH2 0x581 JUMP JUMPDEST PUSH2 0x231 JUMP JUMPDEST STOP JUMPDEST CALLVALUE DUP1 ISZERO PUSH2 0xF3 JUMPI PUSH1 0x0 DUP1 REVERT JUMPDEST POP PUSH2 0xFC PUSH2 0x24C JUMP JUMPDEST PUSH1 0x40 MLOAD PUSH2 0x10C SWAP5 SWAP4 SWAP3 SWAP2 SWAP1 PUSH2 0x5F8 JUMP JUMPDEST PUSH1 0x40 MLOAD DUP1 SWAP2 SUB SWAP1 RETURN JUMPDEST CALLVALUE DUP1 ISZERO PUSH2 0x121 JUMPI PUSH1 0x0 DUP1 REVERT JUMPDEST POP PUSH2 0x12A PUSH2 0x2FF JUMP JUMPDEST PUSH1 0x40 MLOAD PUSH2 0x137 SWAP2 SWAP1 PUSH2 0x3F1 JUMP JUMPDEST PUSH1 0x40 MLOAD DUP1 SWAP2 SUB SWAP1 RETURN JUMPDEST CALLVALUE DUP1 ISZERO PUSH2 0x14C JUMPI PUSH1 0x0 DUP1 REVERT JUMPDEST POP PUSH2 0x167 PUSH1 0x4 DUP1 CALLDATASIZE SUB DUP2 ADD SWAP1 PUSH2 0x162 SWAP2 SWAP1 PUSH2 0x644 JUMP JUMPDEST PUSH2 0x309 JUMP JUMPDEST STOP JUMPDEST CALLVALUE DUP1 ISZERO PUSH2 0x175 JUMPI PUSH1 0x0 DUP1 REVERT JUMPDEST POP PUSH2 0x190 PUSH1 0x4 DUP1 CALLDATASIZE SUB DUP2 ADD SWAP1 PUSH2 0x18B SWAP2 SWAP1 PUSH2 0x68D JUMP JUMPDEST PUSH2 0x31C JUMP JUMPDEST STOP JUMPDEST PUSH1 0x60 PUSH1 0x0 DUP1 SLOAD PUSH2 0x1A1 SWAP1 PUSH2 0x6E9 JUMP JUMPDEST DUP1 PUSH1 0x1F ADD PUSH1 0x20 DUP1 SWAP2 DIV MUL PUSH1 0x20 ADD PUSH1 0x40 MLOAD SWAP1 DUP2 ADD PUSH1 0x40 MSTORE DUP1 SWAP3 SWAP2 SWAP1 DUP2 DUP2 MSTORE PUSH1 0x20 ADD DUP3 DUP1 SLOAD PUSH2 0x1CD SWAP1 PUSH2 0x6E9 JUMP JUMPDEST DUP1 ISZERO PUSH2 0x21A JUMPI DUP1 PUSH1 0x1F LT PUSH2 0x1EF JUMPI PUSH2 0x100 DUP1 DUP4 SLOAD DIV MUL DUP4 MSTORE SWAP2 PUSH1 0x20 ADD SWAP2 PUSH2 0x21A JUMP JUMPDEST DUP3 ADD SWAP2 SWAP1 PUSH1 0x0 MSTORE PUSH1 0x20 PUSH1 0x0 KECCAK256 SWAP1 JUMPDEST DUP2 SLOAD DUP2 MSTORE SWAP1 PUSH1 0x1 ADD SWAP1 PUSH1 0x20 ADD DUP1 DUP4 GT PUSH2 0x1FD JUMPI DUP3 SWAP1 SUB PUSH1 0x1F AND DUP3 ADD SWAP2 JUMPDEST POP POP POP POP POP SWAP1 POP SWAP1 JUMP JUMPDEST PUSH1 0x0 PUSH1 0x2 PUSH1 0x0 ADD SLOAD SWAP1 POP SWAP1 JUMP JUMPDEST DUP2 PUSH1 0x0 SWAP1 DUP2 PUSH2 0x240 SWAP2 SWAP1 PUSH2 0x8C6 JUMP JUMPDEST POP DUP1 PUSH1 0x1 DUP2 SWAP1 SSTORE POP POP POP JUMP JUMPDEST PUSH1 0x2 DUP1 PUSH1 0x0 ADD SLOAD SWAP1 DUP1 PUSH1 0x1 ADD DUP1 SLOAD PUSH2 0x263 SWAP1 PUSH2 0x6E9 JUMP JUMPDEST DUP1 PUSH1 0x1F ADD PUSH1 0x20 DUP1 SWAP2 DIV MUL PUSH1 0x20 ADD PUSH1 0x40 MLOAD SWAP1 DUP2 ADD PUSH1 0x40 MSTORE DUP1 SWAP3 SWAP2 SWAP1 DUP2 DUP2 MSTORE PUSH1 0x20 ADD DUP3 DUP1 SLOAD PUSH2 0x28F SWAP1 PUSH2 0x6E9 JUMP JUMPDEST DUP1 ISZERO PUSH2 0x2DC JUMPI DUP1 PUSH1 0x1F LT PUSH2 0x2B1 JUMPI PUSH2 0x100 DUP1 DUP4 SLOAD DIV MUL DUP4 MSTORE SWAP2 PUSH1 0x20 ADD SWAP2 PUSH2 0x2DC JUMP JUMPDEST DUP3 ADD SWAP2 SWAP1 PUSH1 0x0 MSTORE PUSH1 0x20 PUSH1 0x0 KECCAK256 SWAP1 JUMPDEST DUP2 SLOAD DUP2 MSTORE SWAP1 PUSH1 0x1 ADD SWAP1 PUSH1 0x20 ADD DUP1 DUP4 GT PUSH2 0x2BF JUMPI DUP3 SWAP1 SUB PUSH1 0x1F AND DUP3 ADD SWAP2 JUMPDEST POP POP POP POP POP SWAP1 DUP1 PUSH1 0x2 ADD SLOAD SWAP1 DUP1 PUSH1 0x3 ADD PUSH1 0x0 SWAP1 SLOAD SWAP1 PUSH2 0x100 EXP SWAP1 DIV PUSH1 0xFF AND SWAP1 POP DUP5 JUMP JUMPDEST PUSH1 0x0 PUSH1 0x1 SLOAD SWAP1 POP SWAP1 JUMP JUMPDEST DUP1 PUSH1 0x0 SWAP1 DUP2 PUSH2 0x318 SWAP2 SWAP1 PUSH2 0x8C6 JUMP JUMPDEST POP POP JUMP JUMPDEST DUP1 PUSH1 0x1 DUP2 SWAP1 SSTORE POP POP JUMP JUMPDEST PUSH1 0x0 DUP2 MLOAD SWAP1 POP SWAP2 SWAP1 POP JUMP JUMPDEST PUSH1 0x0 DUP3 DUP3 MSTORE PUSH1 0x20 DUP3 ADD SWAP1 POP SWAP3 SWAP2 POP POP JUMP JUMPDEST PUSH1 0x0 JUMPDEST DUP4 DUP2 LT ISZERO PUSH2 0x360 JUMPI DUP1 DUP3 ADD MLOAD DUP2 DUP5 ADD MSTORE PUSH1 0x20 DUP2 ADD SWAP1 POP PUSH2 0x345 JUMP JUMPDEST PUSH1 0x0 DUP5 DUP5 ADD MSTORE POP POP POP POP JUMP JUMPDEST PUSH1 0x0 PUSH1 0x1F NOT PUSH1 0x1F DUP4 ADD AND SWAP1 POP SWAP2 SWAP1 POP JUMP JUMPDEST PUSH1 0x0 PUSH2 0x388 DUP3 PUSH2 0x326 JUMP JUMPDEST PUSH2 0x392 DUP2 DUP6 PUSH2 0x331 JUMP JUMPDEST SWAP4 POP PUSH2 0x3A2 DUP2 DUP6 PUSH1 0x20 DUP7 ADD PUSH2 0x342 JUMP JUMPDEST PUSH2 0x3AB DUP2 PUSH2 0x36C JUMP JUMPDEST DUP5 ADD SWAP2 POP POP SWAP3 SWAP2 POP POP JUMP JUMPDEST PUSH1 0x0 PUSH1 0x20 DUP3 ADD SWAP1 POP DUP2 DUP2 SUB PUSH1 0x0 DUP4 ADD MSTORE PUSH2 0x3D0 DUP2 DUP5 PUSH2 0x37D JUMP JUMPDEST SWAP1 POP SWAP3 SWAP2 POP POP JUMP JUMPDEST PUSH1 0x0 DUP2 SWAP1 POP SWAP2 SWAP1 POP JUMP JUMPDEST PUSH2 0x3EB DUP2 PUSH2 0x3D8 JUMP JUMPDEST DUP3 MSTORE POP POP JUMP JUMPDEST PUSH1 0x0 PUSH1 0x20 DUP3 ADD SWAP1 POP PUSH2 0x406 PUSH1 0x0 DUP4 ADD DUP5 PUSH2 0x3E2 JUMP JUMPDEST SWAP3 SWAP2 POP POP JUMP JUMPDEST PUSH1 0x0 PUSH1 0x40 MLOAD SWAP1 POP SWAP1 JUMP JUMPDEST PUSH1 0x0 DUP1 REVERT JUMPDEST PUSH1 0x0 DUP1 REVERT JUMPDEST PUSH1 0x0 DUP1 REVERT JUMPDEST PUSH1 0x0 DUP1 REVERT JUMPDEST PUSH32 0x4E487B7100000000000000000000000000000000000000000000000000000000 PUSH1 0x0 MSTORE PUSH1 0x41 PUSH1 0x4 MSTORE PUSH1 0x24 PUSH1 0x0 REVERT JUMPDEST PUSH2 0x462 DUP3 PUSH2 0x36C JUMP JUMPDEST DUP2 ADD DUP2 DUP2 LT PUSH8 0xFFFFFFFFFFFFFFFF DUP3 GT OR ISZERO PUSH2 0x481 JUMPI PUSH2 0x480 PUSH2 0x42A JUMP JUMPDEST JUMPDEST DUP1 PUSH1 0x40 MSTORE POP POP POP JUMP JUMPDEST PUSH1 0x0 PUSH2 0x494 PUSH2 0x40C JUMP JUMPDEST SWAP1 POP PUSH2 0x4A0 DUP3 DUP3 PUSH2 0x459 JUMP JUMPDEST SWAP2 SWAP1 POP JUMP JUMPDEST PUSH1 0x0 PUSH8 0xFFFFFFFFFFFFFFFF DUP3 GT ISZERO PUSH2 0x4C0 JUMPI PUSH2 0x4BF PUSH2 0x42A JUMP JUMPDEST JUMPDEST PUSH2 0x4C9 DUP3 PUSH2 0x36C JUMP JUMPDEST SWAP1 POP PUSH1 0x20 DUP2 ADD SWAP1 POP SWAP2 SWAP1 POP JUMP JUMPDEST DUP3 DUP2 DUP4 CALLDATACOPY PUSH1 0x0 DUP4 DUP4 ADD MSTORE POP POP POP JUMP JUMPDEST PUSH1 0x0 PUSH2 0x4F8 PUSH2 0x4F3 DUP5 PUSH2 0x4A5 JUMP JUMPDEST PUSH2 0x48A JUMP JUMPDEST SWAP1 POP DUP3 DUP2 MSTORE PUSH1 0x20 DUP2 ADD DUP5 DUP5 DUP5 ADD GT ISZERO PUSH2 0x514 JUMPI PUSH2 0x513 PUSH2 0x425 JUMP JUMPDEST JUMPDEST PUSH2 0x51F DUP5 DUP3 DUP6 PUSH2 0x4D6 JUMP JUMPDEST POP SWAP4 SWAP3 POP POP POP JUMP JUMPDEST PUSH1 0x0 DUP3 PUSH1 0x1F DUP4 ADD SLT PUSH2 0x53C JUMPI PUSH2 0x53B PUSH2 0x420 JUMP JUMPDEST JUMPDEST DUP2 CALLDATALOAD PUSH2 0x54C DUP5 DUP3 PUSH1 0x20 DUP7 ADD PUSH2 0x4E5 JUMP JUMPDEST SWAP2 POP POP SWAP3 SWAP2 POP POP JUMP JUMPDEST PUSH2 0x55E DUP2 PUSH2 0x3D8 JUMP JUMPDEST DUP2 EQ PUSH2 0x569 JUMPI PUSH1 0x0 DUP1 REVERT JUMPDEST POP JUMP JUMPDEST PUSH1 0x0 DUP2 CALLDATALOAD SWAP1 POP PUSH2 0x57B DUP2 PUSH2 0x555 JUMP JUMPDEST SWAP3 SWAP2 POP POP JUMP JUMPDEST PUSH1 0x0 DUP1 PUSH1 0x40 DUP4 DUP6 SUB SLT ISZERO PUSH2 0x598 JUMPI PUSH2 0x597 PUSH2 0x416 JUMP JUMPDEST JUMPDEST PUSH1 0x0 DUP4 ADD CALLDATALOAD PUSH8 0xFFFFFFFFFFFFFFFF DUP2 GT ISZERO PUSH2 0x5B6 JUMPI PUSH2 0x5B5 PUSH2 0x41B JUMP JUMPDEST JUMPDEST PUSH2 0x5C2 DUP6 DUP3 DUP7 ADD PUSH2 0x527 JUMP JUMPDEST SWAP3 POP POP PUSH1 0x20 PUSH2 0x5D3 DUP6 DUP3 DUP7 ADD PUSH2 0x56C JUMP JUMPDEST SWAP2 POP POP SWAP3 POP SWAP3 SWAP1 POP JUMP JUMPDEST PUSH1 0x0 DUP2 ISZERO ISZERO SWAP1 POP SWAP2 SWAP1 POP JUMP JUMPDEST PUSH2 0x5F2 DUP2 PUSH2 0x5DD JUMP JUMPDEST DUP3 MSTORE POP POP JUMP JUMPDEST PUSH1 0x0 PUSH1 0x80 DUP3 ADD SWAP1 POP PUSH2 0x60D PUSH1 0x0 DUP4 ADD DUP8 PUSH2 0x3E2 JUMP JUMPDEST DUP2 DUP2 SUB PUSH1 0x20 DUP4 ADD MSTORE PUSH2 0x61F DUP2 DUP7 PUSH2 0x37D JUMP JUMPDEST SWAP1 POP PUSH2 0x62E PUSH1 0x40 DUP4 ADD DUP6 PUSH2 0x3E2 JUMP JUMPDEST PUSH2 0x63B PUSH1 0x60 DUP4 ADD DUP5 PUSH2 0x5E9 JUMP JUMPDEST SWAP6 SWAP5 POP POP POP POP POP JUMP JUMPDEST PUSH1 0x0 PUSH1 0x20 DUP3 DUP5 SUB SLT ISZERO PUSH2 0x65A JUMPI PUSH2 0x659 PUSH2 0x416 JUMP JUMPDEST JUMPDEST PUSH1 0x0 DUP3 ADD CALLDATALOAD PUSH8 0xFFFFFFFFFFFFFFFF DUP2 GT ISZERO PUSH2 0x678 JUMPI PUSH2 0x677 PUSH2 0x41B JUMP JUMPDEST JUMPDEST PUSH2 0x684 DUP5 DUP3 DUP6 ADD PUSH2 0x527 JUMP JUMPDEST SWAP2 POP POP SWAP3 SWAP2 POP POP JUMP JUMPDEST PUSH1 0x0 PUSH1 0x20 DUP3 DUP5 SUB SLT ISZERO PUSH2 0x6A3 JUMPI PUSH2 0x6A2 PUSH2 0x416 JUMP JUMPDEST JUMPDEST PUSH1 0x0 PUSH2 0x6B1 DUP5 DUP3 DUP6 ADD PUSH2 0x56C JUMP JUMPDEST SWAP2 POP POP SWAP3 SWAP2 POP POP JUMP JUMPDEST PUSH32 0x4E487B7100000000000000000000000000000000000000000000000000000000 PUSH1 0x0 MSTORE PUSH1 0x22 PUSH1 0x4 MSTORE PUSH1 0x24 PUSH1 0x0 REVERT JUMPDEST PUSH1 0x0 PUSH1 0x2 DUP3 DIV SWAP1 POP PUSH1 0x1 DUP3 AND DUP1 PUSH2 0x701 JUMPI PUSH1 0x7F DUP3 AND SWAP2 POP JUMPDEST PUSH1 0x20 DUP3 LT DUP2 SUB PUSH2 0x714 JUMPI PUSH2 0x713 PUSH2 0x6BA JUMP JUMPDEST JUMPDEST POP SWAP2 SWAP1 POP JUMP JUMPDEST PUSH1 0x0 DUP2 SWAP1 POP DUP2 PUSH1 0x0 MSTORE PUSH1 0x20 PUSH1 0x0 KECCAK256 SWAP1 POP SWAP2 SWAP1 POP JUMP JUMPDEST PUSH1 0x0 PUSH1 0x20 PUSH1 0x1F DUP4 ADD DIV SWAP1 POP SWAP2 SWAP1 POP JUMP JUMPDEST PUSH1 0x0 DUP3 DUP3 SHL SWAP1 POP SWAP3 SWAP2 POP POP JUMP JUMPDEST PUSH1 0x0 PUSH1 0x8 DUP4 MUL PUSH2 0x77C PUSH32 0xFFFFFFFFFFFFFFFFFFFFFFFFFFFFFFFFFFFFFFFFFFFFFFFFFFFFFFFFFFFFFFFF DUP3 PUSH2 0x73F JUMP JUMPDEST PUSH2 0x786 DUP7 DUP4 PUSH2 0x73F JUMP JUMPDEST SWAP6 POP DUP1 NOT DUP5 AND SWAP4 POP DUP1 DUP7 AND DUP5 OR SWAP3 POP POP POP SWAP4 SWAP3 POP POP POP JUMP JUMPDEST PUSH1 0x0 DUP2 SWAP1 POP SWAP2 SWAP1 POP JUMP JUMPDEST PUSH1 0x0 PUSH2 0x7C3 PUSH2 0x7BE PUSH2 0x7B9 DUP5 PUSH2 0x3D8 JUMP JUMPDEST PUSH2 0x79E JUMP JUMPDEST PUSH2 0x3D8 JUMP JUMPDEST SWAP1 POP SWAP2 SWAP1 POP JUMP JUMPDEST PUSH1 0x0 DUP2 SWAP1 POP SWAP2 SWAP1 POP JUMP JUMPDEST PUSH2 0x7DD DUP4 PUSH2 0x7A8 JUMP JUMPDEST PUSH2 0x7F1 PUSH2 0x7E9 DUP3 PUSH2 0x7CA JUMP JUMPDEST DUP5 DUP5 SLOAD PUSH2 0x74C JUMP JUMPDEST DUP3 SSTORE POP POP POP POP JUMP JUMPDEST PUSH1 0x0 SWAP1 JUMP JUMPDEST PUSH2 0x806 PUSH2 0x7F9 JUMP JUMPDEST PUSH2 0x811 DUP2 DUP5 DUP5 PUSH2 0x7D4 JUMP JUMPDEST POP POP POP JUMP JUMPDEST JUMPDEST DUP2 DUP2 LT ISZERO PUSH2 0x835 JUMPI PUSH2 0x82A PUSH1 0x0 DUP3 PUSH2 0x7FE JUMP JUMPDEST PUSH1 0x1 DUP2 ADD SWAP1 POP PUSH2 0x817 JUMP JUMPDEST POP POP JUMP JUMPDEST PUSH1 0x1F DUP3 GT ISZERO PUSH2 0x87A JUMPI PUSH2 0x84B DUP2 PUSH2 0x71A JUMP JUMPDEST PUSH2 0x854 DUP5 PUSH2 0x72F JUMP JUMPDEST DUP2 ADD PUSH1 0x20 DUP6 LT ISZERO PUSH2 0x863 JUMPI DUP2 SWAP1 POP JUMPDEST PUSH2 0x877 PUSH2 0x86F DUP6 PUSH2 0x72F JUMP JUMPDEST DUP4 ADD DUP3 PUSH2 0x816 JUMP JUMPDEST POP POP JUMPDEST POP POP POP JUMP JUMPDEST PUSH1 0x0 DUP3 DUP3 SHR SWAP1 POP SWAP3 SWAP2 POP POP JUMP JUMPDEST PUSH1 0x0 PUSH2 0x89D PUSH1 0x0 NOT DUP5 PUSH1 0x8 MUL PUSH2 0x87F JUMP JUMPDEST NOT DUP1 DUP4 AND SWAP2 POP POP SWAP3 SWAP2 POP POP JUMP JUMPDEST PUSH1 0x0 PUSH2 0x8B6 DUP4 DUP4 PUSH2 0x88C JUMP JUMPDEST SWAP2 POP DUP3 PUSH1 0x2 MUL DUP3 OR SWAP1 POP SWAP3 SWAP2 POP POP JUMP JUMPDEST PUSH2 0x8CF DUP3 PUSH2 0x326 JUMP JUMPDEST PUSH8 0xFFFFFFFFFFFFFFFF DUP2 GT ISZERO PUSH2 0x8E8 JUMPI PUSH2 0x8E7 PUSH2 0x42A JUMP JUMPDEST JUMPDEST PUSH2 0x8F2 DUP3 SLOAD PUSH2 0x6E9 JUMP JUMPDEST PUSH2 0x8FD DUP3 DUP3 DUP6 PUSH2 0x839 JUMP JUMPDEST PUSH1 0x0 PUSH1 0x20 SWAP1 POP PUSH1 0x1F DUP4 GT PUSH1 0x1 DUP2 EQ PUSH2 0x930 JUMPI PUSH1 0x0 DUP5 ISZERO PUSH2 0x91E JUMPI DUP3 DUP8 ADD MLOAD SWAP1 POP JUMPDEST PUSH2 0x928 DUP6 DUP3 PUSH2 0x8AA JUMP JUMPDEST DUP7 SSTORE POP PUSH2 0x990 JUMP JUMPDEST PUSH1 0x1F NOT DUP5 AND PUSH2 0x93E DUP7 PUSH2 0x71A JUMP JUMPDEST PUSH1 0x0 JUMPDEST DUP3 DUP2 LT ISZERO PUSH2 0x966 JUMPI DUP5 DUP10 ADD MLOAD DUP3 SSTORE PUSH1 0x1 DUP3 ADD SWAP2 POP PUSH1 0x20 DUP6 ADD SWAP5 POP PUSH1 0x20 DUP2 ADD SWAP1 POP PUSH2 0x941 JUMP JUMPDEST DUP7 DUP4 LT ISZERO PUSH2 0x983 JUMPI DUP5 DUP10 ADD MLOAD PUSH2 0x97F PUSH1 0x1F DUP10 AND DUP3 PUSH2 0x88C JUMP JUMPDEST DUP4 SSTORE POP JUMPDEST PUSH1 0x1 PUSH1 0x2 DUP9 MUL ADD DUP9 SSTORE POP POP POP JUMPDEST POP POP POP POP POP POP JUMP INVALID LOG2 PUSH5 0x6970667358 0x22 SLT KECCAK256 0xC2 PUSH20 0xB4501482B343DD1E22685B4A1C6592368527A8C9 SELFDESTRUCT CODESIZE RETURNDATACOPY PUSH28 0x8FE4D5DC229F64736F6C634300081200330000000000000000000000 "},"methodIdentifiers":{"data()":"73d4a13a","getAge()":"967e6e65","getData()":"3bc5de30","getName()":"17d7de7c","setAge(uint256)":"d5dcf127","setAttributes(string,uint256)":"73c275bc","setName(string)":"c47f0027"}}}}}