{
  "_format": "hh-sol-artifact-1",
  "contractName": "Greeting",
  "sourceName": "contracts/Greeting.sol",
  "abi": [
    {
      "inputs": [],
      "stateMutability": "nonpayable",
      "type": "constructor"
    },
    {
      "inputs": [],
      "name": "getAge",
      "outputs": [
        {
          "internalType": "uint256",
          "name": "",
          "type": "uint256"
        }
      ],
      "stateMutability": "view",
      "type": "function"
    },
    {
      "inputs": [],
      "name": "getName",
      "outputs": [
        {
          "internalType": "string",
          "name": "",
          "type": "string"
        }
      ],
      "stateMutability": "view",
      "type": "function"
    },
    {
      "inputs": [],
      "name": "getStructCount",
      "outputs": [
        {
          "internalType": "uint256",
          "name": "",
          "type": "uint256"
        }
      ],
      "stateMutability": "view",
      "type": "function"
    },
    {
      "inputs": [],
      "name": "getStructFlag",
      "outputs": [
        {
          "internalType": "bool",
          "name": "",
          "type": "bool"
        }
      ],
      "stateMutability": "view",
      "type": "function"
    },
    {
      "inputs": [],
      "name": "getStructId",
      "outputs": [
        {
          "internalType": "uint256",
          "name": "",
          "type": "uint256"
        }
      ],
      "stateMutability": "view",
      "type": "function"
    },
    {
      "inputs": [],
      "name": "getStructTitle",
      "outputs": [
        {
          "internalType": "string",
          "name": "",
          "type": "string"
        }
      ],
      "stateMutability": "view",
      "type": "function"
    },
    {
      "inputs": [
        {
          "internalType": "uint256",
          "name": "_age",
          "type": "uint256"
        }
      ],
      "name": "setAge",
      "outputs": [],
      "stateMutability": "nonpayable",
      "type": "function"
    },
    {
      "inputs": [
        {
          "internalType": "string",
          "name": "_name",
          "type": "string"
        },
        {
          "internalType": "uint256",
          "name": "_age",
          "type": "uint256"
        }
      ],
      "name": "setAttributes",
      "outputs": [],
      "stateMutability": "payable",
      "type": "function"
    },
    {
      "inputs": [
        {
          "internalType": "string",
          "name": "_name",
          "type": "string"
        }
      ],
      "name": "setName",
      "outputs": [],
      "stateMutability": "nonpayable",
      "type": "function"
    }
  ],
  "bytecode": "0x60806040523480156200001157600080fd5b506040518060400160405280600881526020017f4772656574696e67000000000000000000000000000000000000000000000000815250600090816200005891906200038d565b5060126001819055506040518060800160405280600181526020016040518060400160405280600481526020017f7465737400000000000000000000000000000000000000000000000000000000815250815260200160018152602001600015158152506002600082015181600001556020820151816001019081620000df91906200038d565b506040820151816002015560608201518160030160006101000a81548160ff02191690831515021790555090505062000474565b600081519050919050565b7f4e487b7100000000000000000000000000000000000000000000000000000000600052604160045260246000fd5b7f4e487b7100000000000000000000000000000000000000000000000000000000600052602260045260246000fd5b600060028204905060018216806200019557607f821691505b602082108103620001ab57620001aa6200014d565b5b50919050565b60008190508160005260206000209050919050565b60006020601f8301049050919050565b600082821b905092915050565b600060088302620002157fffffffffffffffffffffffffffffffffffffffffffffffffffffffffffffffff82620001d6565b620002218683620001d6565b95508019841693508086168417925050509392505050565b6000819050919050565b6000819050919050565b60006200026e62000268620002628462000239565b62000243565b62000239565b9050919050565b6000819050919050565b6200028a836200024d565b620002a2620002998262000275565b848454620001e3565b825550505050565b600090565b620002b9620002aa565b620002c68184846200027f565b505050565b5b81811015620002ee57620002e2600082620002af565b600181019050620002cc565b5050565b601f8211156200033d576200030781620001b1565b6200031284620001c6565b8101602085101562000322578190505b6200033a6200033185620001c6565b830182620002cb565b50505b505050565b600082821c905092915050565b6000620003626000198460080262000342565b1980831691505092915050565b60006200037d83836200034f565b9150826002028217905092915050565b620003988262000113565b67ffffffffffffffff811115620003b457620003b36200011e565b5b620003c082546200017c565b620003cd828285620002f2565b600060209050601f831160018114620004055760008415620003f0578287015190505b620003fc85826200036f565b8655506200046c565b601f1984166200041586620001b1565b60005b828110156200043f5784890151825560018201915060208501945060208101905062000418565b868310156200045f57848901516200045b601f8916826200034f565b8355505b6001600288020188555050505b505050505050565b610a0e80620004846000396000f3fe6080604052600436106100865760003560e01c8063967e6e6511610059578063967e6e6514610128578063bc9fbf0014610153578063c47f00271461017e578063d56451f1146101a7578063d5dcf127146101d257610086565b80630e1d8c261461008b57806317d7de7c146100b65780636266160d146100e157806373c275bc1461010c575b600080fd5b34801561009757600080fd5b506100a06101fb565b6040516100ad91906103b2565b60405180910390f35b3480156100c257600080fd5b506100cb610215565b6040516100d8919061045d565b60405180910390f35b3480156100ed57600080fd5b506100f66102a7565b604051610103919061045d565b60405180910390f35b610126600480360381019061012191906105fe565b61033c565b005b34801561013457600080fd5b5061013d610357565b60405161014a9190610669565b60405180910390f35b34801561015f57600080fd5b50610168610361565b6040516101759190610669565b60405180910390f35b34801561018a57600080fd5b506101a560048036038101906101a09190610684565b61036d565b005b3480156101b357600080fd5b506101bc610380565b6040516101c99190610669565b60405180910390f35b3480156101de57600080fd5b506101f960048036038101906101f491906106cd565b61038d565b005b6000600260030160009054906101000a900460ff16905090565b60606000805461022490610729565b80601f016020809104026020016040519081016040528092919081815260200182805461025090610729565b801561029d5780601f106102725761010080835404028352916020019161029d565b820191906000526020600020905b81548152906001019060200180831161028057829003601f168201915b5050505050905090565b6060600260010180546102b990610729565b80601f01602080910402602001604051908101604052809291908181526020018280546102e590610729565b80156103325780601f1061030757610100808354040283529160200191610332565b820191906000526020600020905b81548152906001019060200180831161031557829003601f168201915b5050505050905090565b816000908161034b9190610906565b50806001819055505050565b6000600154905090565b60006002800154905090565b806000908161037c9190610906565b5050565b6000600260000154905090565b8060018190555050565b60008115159050919050565b6103ac81610397565b82525050565b60006020820190506103c760008301846103a3565b92915050565b600081519050919050565b600082825260208201905092915050565b60005b838110156104075780820151818401526020810190506103ec565b60008484015250505050565b6000601f19601f8301169050919050565b600061042f826103cd565b61043981856103d8565b93506104498185602086016103e9565b61045281610413565b840191505092915050565b600060208201905081810360008301526104778184610424565b905092915050565b6000604051905090565b600080fd5b600080fd5b600080fd5b600080fd5b7f4e487b7100000000000000000000000000000000000000000000000000000000600052604160045260246000fd5b6104d582610413565b810181811067ffffffffffffffff821117156104f4576104f361049d565b5b80604052505050565b600061050761047f565b905061051382826104cc565b919050565b600067ffffffffffffffff8211156105335761053261049d565b5b61053c82610413565b9050602081019050919050565b82818337600083830152505050565b600061056b61056684610518565b6104fd565b90508281526020810184848401111561058757610586610498565b5b610592848285610549565b509392505050565b600082601f8301126105af576105ae610493565b5b81356105bf848260208601610558565b91505092915050565b6000819050919050565b6105db816105c8565b81146105e657600080fd5b50565b6000813590506105f8816105d2565b92915050565b6000806040838503121561061557610614610489565b5b600083013567ffffffffffffffff8111156106335761063261048e565b5b61063f8582860161059a565b9250506020610650858286016105e9565b9150509250929050565b610663816105c8565b82525050565b600060208201905061067e600083018461065a565b92915050565b60006020828403121561069a57610699610489565b5b600082013567ffffffffffffffff8111156106b8576106b761048e565b5b6106c48482850161059a565b91505092915050565b6000602082840312156106e3576106e2610489565b5b60006106f1848285016105e9565b91505092915050565b7f4e487b7100000000000000000000000000000000000000000000000000000000600052602260045260246000fd5b6000600282049050600182168061074157607f821691505b602082108103610754576107536106fa565b5b50919050565b60008190508160005260206000209050919050565b60006020601f8301049050919050565b600082821b905092915050565b6000600883026107bc7fffffffffffffffffffffffffffffffffffffffffffffffffffffffffffffffff8261077f565b6107c6868361077f565b95508019841693508086168417925050509392505050565b6000819050919050565b60006108036107fe6107f9846105c8565b6107de565b6105c8565b9050919050565b6000819050919050565b61081d836107e8565b6108316108298261080a565b84845461078c565b825550505050565b600090565b610846610839565b610851818484610814565b505050565b5b818110156108755761086a60008261083e565b600181019050610857565b5050565b601f8211156108ba5761088b8161075a565b6108948461076f565b810160208510156108a3578190505b6108b76108af8561076f565b830182610856565b50505b505050565b600082821c905092915050565b60006108dd600019846008026108bf565b1980831691505092915050565b60006108f683836108cc565b9150826002028217905092915050565b61090f826103cd565b67ffffffffffffffff8111156109285761092761049d565b5b6109328254610729565b61093d828285610879565b600060209050601f831160018114610970576000841561095e578287015190505b61096885826108ea565b8655506109d0565b601f19841661097e8661075a565b60005b828110156109a657848901518255600182019150602085019450602081019050610981565b868310156109c357848901516109bf601f8916826108cc565b8355505b6001600288020188555050505b50505050505056fea26469706673582212207868ebdf5739033d7fed7280b47c46b74bafd64485492e656264f09137b1609e64736f6c63430008120033",
  "linkReferences": {},
  "deployedLinkReferences": {}
}