{
  "_format": "hh-sol-artifact-1",
  "contractName": "Greeting",
  "sourceName": "contracts/Greeting.sol",
  "abi": [
    {
      "inputs": [],
      "stateMutability": "nonpayable",
      "type": "constructor"
    },
    {
      "inputs": [],
      "name": "getAge",
      "outputs": [
        {
          "internalType": "uint256",
          "name": "",
          "type": "uint256"
        }
      ],
      "stateMutability": "view",
      "type": "function"
    },
    {
      "inputs": [],
      "name": "getData",
      "outputs": [
        {
          "internalType": "uint256",
          "name": "",
          "type": "uint256"
        }
      ],
      "stateMutability": "view",
      "type": "function"
    },
    {
      "inputs": [],
      "name": "getName",
      "outputs": [
        {
          "internalType": "string",
          "name": "",
          "type": "string"
        }
      ],
      "stateMutability": "view",
      "type": "function"
    },
    {
      "inputs": [
        {
          "internalType": "uint256",
          "name": "_age",
          "type": "uint256"
        }
      ],
      "name": "setAge",
      "outputs": [],
      "stateMutability": "nonpayable",
      "type": "function"
    },
    {
      "inputs": [
        {
          "internalType": "string",
          "name": "_name",
          "type": "string"
        },
        {
          "internalType": "uint256",
          "name": "_age",
          "type": "uint256"
        }
      ],
      "name": "setAttributes",
      "outputs": [],
      "stateMutability": "payable",
      "type": "function"
    },
    {
      "inputs": [
        {
          "internalType": "string",
          "name": "_name",
          "type": "string"
        }
      ],
      "name": "setName",
      "outputs": [],
      "stateMutability": "nonpayable",
      "type": "function"
    }
  ],
  "bytecode": "0x60806040523480156200001157600080fd5b506040518060400160405280600881526020017f4772656574696e67000000000000000000000000000000000000000000000000815250600090816200005891906200038d565b5060126001819055506040518060800160405280600181526020016040518060400160405280600481526020017f7465737400000000000000000000000000000000000000000000000000000000815250815260200160018152602001600115158152506002600082015181600001556020820151816001019081620000df91906200038d565b506040820151816002015560608201518160030160006101000a81548160ff02191690831515021790555090505062000474565b600081519050919050565b7f4e487b7100000000000000000000000000000000000000000000000000000000600052604160045260246000fd5b7f4e487b7100000000000000000000000000000000000000000000000000000000600052602260045260246000fd5b600060028204905060018216806200019557607f821691505b602082108103620001ab57620001aa6200014d565b5b50919050565b60008190508160005260206000209050919050565b60006020601f8301049050919050565b600082821b905092915050565b600060088302620002157fffffffffffffffffffffffffffffffffffffffffffffffffffffffffffffffff82620001d6565b620002218683620001d6565b95508019841693508086168417925050509392505050565b6000819050919050565b6000819050919050565b60006200026e62000268620002628462000239565b62000243565b62000239565b9050919050565b6000819050919050565b6200028a836200024d565b620002a2620002998262000275565b848454620001e3565b825550505050565b600090565b620002b9620002aa565b620002c68184846200027f565b505050565b5b81811015620002ee57620002e2600082620002af565b600181019050620002cc565b5050565b601f8211156200033d576200030781620001b1565b6200031284620001c6565b8101602085101562000322578190505b6200033a6200033185620001c6565b830182620002cb565b50505b505050565b600082821c905092915050565b6000620003626000198460080262000342565b1980831691505092915050565b60006200037d83836200034f565b9150826002028217905092915050565b620003988262000113565b67ffffffffffffffff811115620003b457620003b36200011e565b5b620003c082546200017c565b620003cd828285620002f2565b600060209050601f831160018114620004055760008415620003f0578287015190505b620003fc85826200036f565b8655506200046c565b601f1984166200041586620001b1565b60005b828110156200043f5784890151825560018201915060208501945060208101905062000418565b868310156200045f57848901516200045b601f8916826200034f565b8355505b6001600288020188555050505b505050505050565b61086b80620004846000396000f3fe6080604052600436106100555760003560e01c806317d7de7c1461005a5780633bc5de301461008557806373c275bc146100b0578063967e6e65146100cc578063c47f0027146100f7578063d5dcf12714610120575b600080fd5b34801561006657600080fd5b5061006f610149565b60405161007c91906102ba565b60405180910390f35b34801561009157600080fd5b5061009a6101db565b6040516100a791906102f5565b60405180910390f35b6100ca60048036038101906100c59190610485565b6101e8565b005b3480156100d857600080fd5b506100e1610203565b6040516100ee91906102f5565b60405180910390f35b34801561010357600080fd5b5061011e600480360381019061011991906104e1565b61020d565b005b34801561012c57600080fd5b506101476004803603810190610142919061052a565b610220565b005b60606000805461015890610586565b80601f016020809104026020016040519081016040528092919081815260200182805461018490610586565b80156101d15780601f106101a6576101008083540402835291602001916101d1565b820191906000526020600020905b8154815290600101906020018083116101b457829003601f168201915b5050505050905090565b6000600260000154905090565b81600090816101f79190610763565b50806001819055505050565b6000600154905090565b806000908161021c9190610763565b5050565b8060018190555050565b600081519050919050565b600082825260208201905092915050565b60005b83811015610264578082015181840152602081019050610249565b60008484015250505050565b6000601f19601f8301169050919050565b600061028c8261022a565b6102968185610235565b93506102a6818560208601610246565b6102af81610270565b840191505092915050565b600060208201905081810360008301526102d48184610281565b905092915050565b6000819050919050565b6102ef816102dc565b82525050565b600060208201905061030a60008301846102e6565b92915050565b6000604051905090565b600080fd5b600080fd5b600080fd5b600080fd5b7f4e487b7100000000000000000000000000000000000000000000000000000000600052604160045260246000fd5b61036682610270565b810181811067ffffffffffffffff821117156103855761038461032e565b5b80604052505050565b6000610398610310565b90506103a4828261035d565b919050565b600067ffffffffffffffff8211156103c4576103c361032e565b5b6103cd82610270565b9050602081019050919050565b82818337600083830152505050565b60006103fc6103f7846103a9565b61038e565b90508281526020810184848401111561041857610417610329565b5b6104238482856103da565b509392505050565b600082601f8301126104405761043f610324565b5b81356104508482602086016103e9565b91505092915050565b610462816102dc565b811461046d57600080fd5b50565b60008135905061047f81610459565b92915050565b6000806040838503121561049c5761049b61031a565b5b600083013567ffffffffffffffff8111156104ba576104b961031f565b5b6104c68582860161042b565b92505060206104d785828601610470565b9150509250929050565b6000602082840312156104f7576104f661031a565b5b600082013567ffffffffffffffff8111156105155761051461031f565b5b6105218482850161042b565b91505092915050565b6000602082840312156105405761053f61031a565b5b600061054e84828501610470565b91505092915050565b7f4e487b7100000000000000000000000000000000000000000000000000000000600052602260045260246000fd5b6000600282049050600182168061059e57607f821691505b6020821081036105b1576105b0610557565b5b50919050565b60008190508160005260206000209050919050565b60006020601f8301049050919050565b600082821b905092915050565b6000600883026106197fffffffffffffffffffffffffffffffffffffffffffffffffffffffffffffffff826105dc565b61062386836105dc565b95508019841693508086168417925050509392505050565b6000819050919050565b600061066061065b610656846102dc565b61063b565b6102dc565b9050919050565b6000819050919050565b61067a83610645565b61068e61068682610667565b8484546105e9565b825550505050565b600090565b6106a3610696565b6106ae818484610671565b505050565b5b818110156106d2576106c760008261069b565b6001810190506106b4565b5050565b601f821115610717576106e8816105b7565b6106f1846105cc565b81016020851015610700578190505b61071461070c856105cc565b8301826106b3565b50505b505050565b600082821c905092915050565b600061073a6000198460080261071c565b1980831691505092915050565b60006107538383610729565b9150826002028217905092915050565b61076c8261022a565b67ffffffffffffffff8111156107855761078461032e565b5b61078f8254610586565b61079a8282856106d6565b600060209050601f8311600181146107cd57600084156107bb578287015190505b6107c58582610747565b86555061082d565b601f1984166107db866105b7565b60005b82811015610803578489015182556001820191506020850194506020810190506107de565b86831015610820578489015161081c601f891682610729565b8355505b6001600288020188555050505b50505050505056fea26469706673582212207eeec451d50a4773c9077f3fda98a958bef0ee2fdd47f647095c55c8b5b0e55f64736f6c63430008120033",
  "linkReferences": {},
  "deployedLinkReferences": {}
}