{
  "_format": "hh-sol-artifact-1",
  "contractName": "Greeting",
  "sourceName": "contracts/Greeting.sol",
  "abi": [
    {
      "inputs": [],
      "stateMutability": "nonpayable",
      "type": "constructor"
    },
    {
      "inputs": [
        {
          "internalType": "uint256",
          "name": "",
          "type": "uint256"
        }
      ],
      "name": "arr",
      "outputs": [
        {
          "internalType": "uint256",
          "name": "",
          "type": "uint256"
        }
      ],
      "stateMutability": "view",
      "type": "function"
    },
    {
      "inputs": [],
      "name": "getAge",
      "outputs": [
        {
          "internalType": "uint256",
          "name": "",
          "type": "uint256"
        }
      ],
      "stateMutability": "view",
      "type": "function"
    },
    {
      "inputs": [],
      "name": "getCounter",
      "outputs": [
        {
          "internalType": "uint256",
          "name": "",
          "type": "uint256"
        }
      ],
      "stateMutability": "view",
      "type": "function"
    },
    {
      "inputs": [],
      "name": "getCounterMap",
      "outputs": [
        {
          "internalType": "uint256",
          "name": "",
          "type": "uint256"
        }
      ],
      "stateMutability": "view",
      "type": "function"
    },
    {
      "inputs": [],
      "name": "getData",
      "outputs": [
        {
          "components": [
            {
              "internalType": "uint256",
              "name": "id",
              "type": "uint256"
            },
            {
              "internalType": "string",
              "name": "title",
              "type": "string"
            },
            {
              "internalType": "uint256",
              "name": "count",
              "type": "uint256"
            },
            {
              "internalType": "bool",
              "name": "flag",
              "type": "bool"
            }
          ],
          "internalType": "struct Greeting.Data",
          "name": "",
          "type": "tuple"
        }
      ],
      "stateMutability": "view",
      "type": "function"
    },
    {
      "inputs": [],
      "name": "getDataCustom",
      "outputs": [
        {
          "components": [
            {
              "internalType": "uint256",
              "name": "id",
              "type": "uint256"
            },
            {
              "internalType": "string",
              "name": "title",
              "type": "string"
            },
            {
              "internalType": "uint256",
              "name": "count",
              "type": "uint256"
            },
            {
              "internalType": "bool",
              "name": "flag",
              "type": "bool"
            }
          ],
          "internalType": "struct Greeting.Data",
          "name": "",
          "type": "tuple"
        }
      ],
      "stateMutability": "view",
      "type": "function"
    },
    {
      "inputs": [
        {
          "internalType": "uint256",
          "name": "_index",
          "type": "uint256"
        }
      ],
      "name": "getMapping",
      "outputs": [
        {
          "components": [
            {
              "internalType": "uint256",
              "name": "id",
              "type": "uint256"
            },
            {
              "internalType": "string",
              "name": "title",
              "type": "string"
            },
            {
              "internalType": "uint256",
              "name": "count",
              "type": "uint256"
            },
            {
              "internalType": "bool",
              "name": "flag",
              "type": "bool"
            }
          ],
          "internalType": "struct Greeting.Data",
          "name": "",
          "type": "tuple"
        }
      ],
      "stateMutability": "view",
      "type": "function"
    },
    {
      "inputs": [],
      "name": "getName",
      "outputs": [
        {
          "internalType": "string",
          "name": "",
          "type": "string"
        }
      ],
      "stateMutability": "view",
      "type": "function"
    },
    {
      "inputs": [
        {
          "internalType": "uint256",
          "name": "_index",
          "type": "uint256"
        }
      ],
      "name": "getStructArray",
      "outputs": [
        {
          "components": [
            {
              "internalType": "uint256",
              "name": "id",
              "type": "uint256"
            },
            {
              "internalType": "string",
              "name": "title",
              "type": "string"
            },
            {
              "internalType": "uint256",
              "name": "count",
              "type": "uint256"
            },
            {
              "internalType": "bool",
              "name": "flag",
              "type": "bool"
            }
          ],
          "internalType": "struct Greeting.Data",
          "name": "",
          "type": "tuple"
        }
      ],
      "stateMutability": "view",
      "type": "function"
    },
    {
      "inputs": [],
      "name": "getStructCount",
      "outputs": [
        {
          "internalType": "uint256",
          "name": "",
          "type": "uint256"
        }
      ],
      "stateMutability": "view",
      "type": "function"
    },
    {
      "inputs": [],
      "name": "getStructFlag",
      "outputs": [
        {
          "internalType": "bool",
          "name": "",
          "type": "bool"
        }
      ],
      "stateMutability": "view",
      "type": "function"
    },
    {
      "inputs": [],
      "name": "getStructId",
      "outputs": [
        {
          "internalType": "uint256",
          "name": "",
          "type": "uint256"
        }
      ],
      "stateMutability": "view",
      "type": "function"
    },
    {
      "inputs": [],
      "name": "getStructTitle",
      "outputs": [
        {
          "internalType": "string",
          "name": "",
          "type": "string"
        }
      ],
      "stateMutability": "view",
      "type": "function"
    },
    {
      "inputs": [
        {
          "internalType": "uint256",
          "name": "_age",
          "type": "uint256"
        }
      ],
      "name": "setAge",
      "outputs": [],
      "stateMutability": "nonpayable",
      "type": "function"
    },
    {
      "inputs": [
        {
          "internalType": "string",
          "name": "_name",
          "type": "string"
        },
        {
          "internalType": "uint256",
          "name": "_age",
          "type": "uint256"
        }
      ],
      "name": "setAttributes",
      "outputs": [],
      "stateMutability": "payable",
      "type": "function"
    },
    {
      "inputs": [
        {
          "internalType": "string",
          "name": "_title",
          "type": "string"
        },
        {
          "internalType": "uint256",
          "name": "_count",
          "type": "uint256"
        },
        {
          "internalType": "bool",
          "name": "_flag",
          "type": "bool"
        }
      ],
      "name": "setData",
      "outputs": [],
      "stateMutability": "nonpayable",
      "type": "function"
    },
    {
      "inputs": [
        {
          "internalType": "string",
          "name": "_title",
          "type": "string"
        },
        {
          "internalType": "uint256",
          "name": "_count",
          "type": "uint256"
        },
        {
          "internalType": "bool",
          "name": "_flag",
          "type": "bool"
        }
      ],
      "name": "setMapping",
      "outputs": [],
      "stateMutability": "nonpayable",
      "type": "function"
    },
    {
      "inputs": [
        {
          "internalType": "string",
          "name": "_name",
          "type": "string"
        }
      ],
      "name": "setName",
      "outputs": [],
      "stateMutability": "nonpayable",
      "type": "function"
    },
    {
      "inputs": [
        {
          "internalType": "string",
          "name": "_title",
          "type": "string"
        },
        {
          "internalType": "uint256",
          "name": "_count",
          "type": "uint256"
        },
        {
          "internalType": "bool",
          "name": "_flag",
          "type": "bool"
        }
      ],
      "name": "setStructArray",
      "outputs": [],
      "stateMutability": "nonpayable",
      "type": "function"
    }
  ],
  "bytecode": "0x60806040523480156200001157600080fd5b506040518060400160405280600881526020017f4772656574696e670000000000000000000000000000000000000000000000008152506000908162000058919062000548565b5060126001819055506004600590806001815401808255809150506001900390600052602060002001600090919091909150556040518060800160405280600181526020016040518060400160405280600b81526020017f436f6e7374727563746f7200000000000000000000000000000000000000000081525081526020016001815260200160001515815250600560008201518160000155602082015181600101908162000109919062000548565b506040820151816002015560608201518160030160006101000a81548160ff02191690831515021790555090505060116040518060800160405280606581526020016040518060400160405280600b81526020017f436f6e7374727563746f72000000000000000000000000000000000000000000815250815260200160018152602001600015158152509080600181540180825580915050600190039060005260206000209060040201600090919091909150600082015181600001556020820151816001019081620001de919062000548565b506040820151816002015560608201518160030160006101000a81548160ff02191690831515021790555050506040518060800160405280606581526020016040518060400160405280600b81526020017f436f6e7374727563746f7200000000000000000000000000000000000000000081525081526020016001815260200160001515815250601260008081526020019081526020016000206000820151816000015560208201518160010190816200029a919062000548565b506040820151816002015560608201518160030160006101000a81548160ff0219169083151502179055509050506200062f565b600081519050919050565b7f4e487b7100000000000000000000000000000000000000000000000000000000600052604160045260246000fd5b7f4e487b7100000000000000000000000000000000000000000000000000000000600052602260045260246000fd5b600060028204905060018216806200035057607f821691505b60208210810362000366576200036562000308565b5b50919050565b60008190508160005260206000209050919050565b60006020601f8301049050919050565b600082821b905092915050565b600060088302620003d07fffffffffffffffffffffffffffffffffffffffffffffffffffffffffffffffff8262000391565b620003dc868362000391565b95508019841693508086168417925050509392505050565b6000819050919050565b6000819050919050565b600062000429620004236200041d84620003f4565b620003fe565b620003f4565b9050919050565b6000819050919050565b620004458362000408565b6200045d620004548262000430565b8484546200039e565b825550505050565b600090565b6200047462000465565b620004818184846200043a565b505050565b5b81811015620004a9576200049d6000826200046a565b60018101905062000487565b5050565b601f821115620004f857620004c2816200036c565b620004cd8462000381565b81016020851015620004dd578190505b620004f5620004ec8562000381565b83018262000486565b50505b505050565b600082821c905092915050565b60006200051d60001984600802620004fd565b1980831691505092915050565b60006200053883836200050a565b9150826002028217905092915050565b6200055382620002ce565b67ffffffffffffffff8111156200056f576200056e620002d9565b5b6200057b825462000337565b62000588828285620004ad565b600060209050601f831160018114620005c05760008415620005ab578287015190505b620005b785826200052a565b86555062000627565b601f198416620005d0866200036c565b60005b82811015620005fa57848901518255600182019150602085019450602081019050620005d3565b868310156200061a578489015162000616601f8916826200050a565b8355505b6001600288020188555050505b505050505050565b6115dc806200063f6000396000f3fe6080604052600436106101145760003560e01c806373c275bc116100a0578063d56451f111610064578063d56451f114610382578063d5dcf127146103ad578063e3c1c78d146103d6578063e53201e6146103ff578063ede9ba8b1461042a57610114565b806373c275bc146102bc5780638ada066e146102d8578063967e6e6514610303578063bc9fbf001461032e578063c47f00271461035957610114565b806349a0c808116100e757806349a0c808146101c35780634ee270dd146101ec5780636266160d146102295780636957fb5f1461025457806371e5ee5f1461027f57610114565b80630e1d8c261461011957806317d7de7c146101445780632036eb791461016f5780633bc5de3014610198575b600080fd5b34801561012557600080fd5b5061012e610467565b60405161013b9190610c54565b60405180910390f35b34801561015057600080fd5b50610159610481565b6040516101669190610cff565b60405180910390f35b34801561017b57600080fd5b5061019660048036038101906101919190610ecc565b610513565b005b3480156101a457600080fd5b506101ad610614565b6040516101ba9190611006565b60405180910390f35b3480156101cf57600080fd5b506101ea60048036038101906101e59190610ecc565b6106ef565b005b3480156101f857600080fd5b50610213600480360381019061020e9190611028565b610767565b6040516102209190611006565b60405180910390f35b34801561023557600080fd5b5061023e610864565b60405161024b9190610cff565b60405180910390f35b34801561026057600080fd5b506102696108f9565b6040516102769190611006565b60405180910390f35b34801561028b57600080fd5b506102a660048036038101906102a19190611028565b6109d4565b6040516102b39190611064565b60405180910390f35b6102d660048036038101906102d1919061107f565b6109f8565b005b3480156102e457600080fd5b506102ed610a13565b6040516102fa9190611064565b60405180910390f35b34801561030f57600080fd5b50610318610a1d565b6040516103259190611064565b60405180910390f35b34801561033a57600080fd5b50610343610a27565b6040516103509190611064565b60405180910390f35b34801561036557600080fd5b50610380600480360381019061037b91906110db565b610a34565b005b34801561038e57600080fd5b50610397610a47565b6040516103a49190611064565b60405180910390f35b3480156103b957600080fd5b506103d460048036038101906103cf9190611028565b610a54565b005b3480156103e257600080fd5b506103fd60048036038101906103f89190610ecc565b610a5e565b005b34801561040b57600080fd5b50610414610b17565b6040516104219190611064565b60405180910390f35b34801561043657600080fd5b50610451600480360381019061044c9190611028565b610b21565b60405161045e9190611006565b60405180910390f35b6000600560030160009054906101000a900460ff16905090565b60606000805461049090611153565b80601f01602080910402602001604051908101604052809291908181526020018280546104bc90611153565b80156105095780601f106104de57610100808354040283529160200191610509565b820191906000526020600020905b8154815290600101906020018083116104ec57829003601f168201915b5050505050905090565b60036000815480929190610526906111b3565b919050555060405180608001604052806003548152602001848152602001838152602001821515815250600d60008201518160000155602082015181600101908161057191906113a7565b506040820151816002015560608201518160030160006101000a81548160ff021916908315150217905550905050600d60126000600354815260200190815260200160002060008201548160000155600182018160010190816105d4919061148f565b50600282015481600201556003820160009054906101000a900460ff168160030160006101000a81548160ff021916908315150217905550905050505050565b61061c610c0f565b60056040518060800160405290816000820154815260200160018201805461064390611153565b80601f016020809104026020016040519081016040528092919081815260200182805461066f90611153565b80156106bc5780601f10610691576101008083540402835291602001916106bc565b820191906000526020600020905b81548152906001019060200180831161069f57829003601f168201915b50505050508152602001600282015481526020016003820160009054906101000a900460ff161515151581525050905090565b604051806080016040528060018152602001848152602001838152602001821515815250600960008201518160000155602082015181600101908161073491906113a7565b506040820151816002015560608201518160030160006101000a81548160ff021916908315150217905550905050505050565b61076f610c0f565b6011828154811061078357610782611577565b5b9060005260206000209060040201604051806080016040529081600082015481526020016001820180546107b690611153565b80601f01602080910402602001604051908101604052809291908181526020018280546107e290611153565b801561082f5780601f106108045761010080835404028352916020019161082f565b820191906000526020600020905b81548152906001019060200180831161081257829003601f168201915b50505050508152602001600282015481526020016003820160009054906101000a900460ff1615151515815250509050919050565b60606005600101805461087690611153565b80601f01602080910402602001604051908101604052809291908181526020018280546108a290611153565b80156108ef5780601f106108c4576101008083540402835291602001916108ef565b820191906000526020600020905b8154815290600101906020018083116108d257829003601f168201915b5050505050905090565b610901610c0f565b60096040518060800160405290816000820154815260200160018201805461092890611153565b80601f016020809104026020016040519081016040528092919081815260200182805461095490611153565b80156109a15780601f10610976576101008083540402835291602001916109a1565b820191906000526020600020905b81548152906001019060200180831161098457829003601f168201915b50505050508152602001600282015481526020016003820160009054906101000a900460ff161515151581525050905090565b600481815481106109e457600080fd5b906000526020600020016000915090505481565b8160009081610a0791906113a7565b50806001819055505050565b6000600254905090565b6000600154905090565b6000600560020154905090565b8060009081610a4391906113a7565b5050565b6000600560000154905090565b8060018190555050565b60026000815480929190610a71906111b3565b91905055506011604051806080016040528060025481526020018581526020018481526020018315158152509080600181540180825580915050600190039060005260206000209060040201600090919091909150600082015181600001556020820151816001019081610ae591906113a7565b506040820151816002015560608201518160030160006101000a81548160ff0219169083151502179055505050505050565b6000600354905090565b610b29610c0f565b6012600083815260200190815260200160002060405180608001604052908160008201548152602001600182018054610b6190611153565b80601f0160208091040260200160405190810160405280929190818152602001828054610b8d90611153565b8015610bda5780601f10610baf57610100808354040283529160200191610bda565b820191906000526020600020905b815481529060010190602001808311610bbd57829003601f168201915b50505050508152602001600282015481526020016003820160009054906101000a900460ff1615151515815250509050919050565b60405180608001604052806000815260200160608152602001600081526020016000151581525090565b60008115159050919050565b610c4e81610c39565b82525050565b6000602082019050610c696000830184610c45565b92915050565b600081519050919050565b600082825260208201905092915050565b60005b83811015610ca9578082015181840152602081019050610c8e565b60008484015250505050565b6000601f19601f8301169050919050565b6000610cd182610c6f565b610cdb8185610c7a565b9350610ceb818560208601610c8b565b610cf481610cb5565b840191505092915050565b60006020820190508181036000830152610d198184610cc6565b905092915050565b6000604051905090565b600080fd5b600080fd5b600080fd5b600080fd5b7f4e487b7100000000000000000000000000000000000000000000000000000000600052604160045260246000fd5b610d7782610cb5565b810181811067ffffffffffffffff82111715610d9657610d95610d3f565b5b80604052505050565b6000610da9610d21565b9050610db58282610d6e565b919050565b600067ffffffffffffffff821115610dd557610dd4610d3f565b5b610dde82610cb5565b9050602081019050919050565b82818337600083830152505050565b6000610e0d610e0884610dba565b610d9f565b905082815260208101848484011115610e2957610e28610d3a565b5b610e34848285610deb565b509392505050565b600082601f830112610e5157610e50610d35565b5b8135610e61848260208601610dfa565b91505092915050565b6000819050919050565b610e7d81610e6a565b8114610e8857600080fd5b50565b600081359050610e9a81610e74565b92915050565b610ea981610c39565b8114610eb457600080fd5b50565b600081359050610ec681610ea0565b92915050565b600080600060608486031215610ee557610ee4610d2b565b5b600084013567ffffffffffffffff811115610f0357610f02610d30565b5b610f0f86828701610e3c565b9350506020610f2086828701610e8b565b9250506040610f3186828701610eb7565b9150509250925092565b610f4481610e6a565b82525050565b600082825260208201905092915050565b6000610f6682610c6f565b610f708185610f4a565b9350610f80818560208601610c8b565b610f8981610cb5565b840191505092915050565b610f9d81610c39565b82525050565b6000608083016000830151610fbb6000860182610f3b565b5060208301518482036020860152610fd38282610f5b565b9150506040830151610fe86040860182610f3b565b506060830151610ffb6060860182610f94565b508091505092915050565b600060208201905081810360008301526110208184610fa3565b905092915050565b60006020828403121561103e5761103d610d2b565b5b600061104c84828501610e8b565b91505092915050565b61105e81610e6a565b82525050565b60006020820190506110796000830184611055565b92915050565b6000806040838503121561109657611095610d2b565b5b600083013567ffffffffffffffff8111156110b4576110b3610d30565b5b6110c085828601610e3c565b92505060206110d185828601610e8b565b9150509250929050565b6000602082840312156110f1576110f0610d2b565b5b600082013567ffffffffffffffff81111561110f5761110e610d30565b5b61111b84828501610e3c565b91505092915050565b7f4e487b7100000000000000000000000000000000000000000000000000000000600052602260045260246000fd5b6000600282049050600182168061116b57607f821691505b60208210810361117e5761117d611124565b5b50919050565b7f4e487b7100000000000000000000000000000000000000000000000000000000600052601160045260246000fd5b60006111be82610e6a565b91507fffffffffffffffffffffffffffffffffffffffffffffffffffffffffffffffff82036111f0576111ef611184565b5b600182019050919050565b60008190508160005260206000209050919050565b60006020601f8301049050919050565b600082821b905092915050565b60006008830261125d7fffffffffffffffffffffffffffffffffffffffffffffffffffffffffffffffff82611220565b6112678683611220565b95508019841693508086168417925050509392505050565b6000819050919050565b60006112a461129f61129a84610e6a565b61127f565b610e6a565b9050919050565b6000819050919050565b6112be83611289565b6112d26112ca826112ab565b84845461122d565b825550505050565b600090565b6112e76112da565b6112f28184846112b5565b505050565b5b818110156113165761130b6000826112df565b6001810190506112f8565b5050565b601f82111561135b5761132c816111fb565b61133584611210565b81016020851015611344578190505b61135861135085611210565b8301826112f7565b50505b505050565b600082821c905092915050565b600061137e60001984600802611360565b1980831691505092915050565b6000611397838361136d565b9150826002028217905092915050565b6113b082610c6f565b67ffffffffffffffff8111156113c9576113c8610d3f565b5b6113d38254611153565b6113de82828561131a565b600060209050601f83116001811461141157600084156113ff578287015190505b611409858261138b565b865550611471565b601f19841661141f866111fb565b60005b8281101561144757848901518255600182019150602085019450602081019050611422565b868310156114645784890151611460601f89168261136d565b8355505b6001600288020188555050505b505050505050565b60008154905061148881611153565b9050919050565b81810361149d575050611575565b6114a682611479565b67ffffffffffffffff8111156114bf576114be610d3f565b5b6114c98254611153565b6114d482828561131a565b6000601f83116001811461150357600084156114f1578287015490505b6114fb858261138b565b86555061156e565b601f198416611511876111fb565b965061151c866111fb565b60005b828110156115445784890154825560018201915060018501945060208101905061151f565b86831015611561578489015461155d601f89168261136d565b8355505b6001600288020188555050505b5050505050505b565b7f4e487b7100000000000000000000000000000000000000000000000000000000600052603260045260246000fdfea264697066735822122065d5278bca8f2453d584b8724978204e50b0fae9a3a933b770ae580edfb9af4264736f6c63430008120033",
  "linkReferences": {},
  "deployedLinkReferences": {}
}