{
  "_format": "hh-sol-artifact-1",
  "contractName": "Greeting",
  "sourceName": "contracts/Greeting.sol",
  "abi": [
    {
      "inputs": [],
      "stateMutability": "nonpayable",
      "type": "constructor"
    },
    {
      "inputs": [
        {
          "internalType": "uint256",
          "name": "",
          "type": "uint256"
        }
      ],
      "name": "arr",
      "outputs": [
        {
          "internalType": "uint256",
          "name": "",
          "type": "uint256"
        }
      ],
      "stateMutability": "view",
      "type": "function"
    },
    {
      "inputs": [],
      "name": "getAge",
      "outputs": [
        {
          "internalType": "uint256",
          "name": "",
          "type": "uint256"
        }
      ],
      "stateMutability": "view",
      "type": "function"
    },
    {
      "inputs": [],
      "name": "getCounter",
      "outputs": [
        {
          "internalType": "uint256",
          "name": "",
          "type": "uint256"
        }
      ],
      "stateMutability": "view",
      "type": "function"
    },
    {
      "inputs": [],
      "name": "getData",
      "outputs": [
        {
          "components": [
            {
              "internalType": "uint256",
              "name": "id",
              "type": "uint256"
            },
            {
              "internalType": "string",
              "name": "title",
              "type": "string"
            },
            {
              "internalType": "uint256",
              "name": "count",
              "type": "uint256"
            },
            {
              "internalType": "bool",
              "name": "flag",
              "type": "bool"
            }
          ],
          "internalType": "struct Greeting.Data",
          "name": "",
          "type": "tuple"
        }
      ],
      "stateMutability": "view",
      "type": "function"
    },
    {
      "inputs": [],
      "name": "getDataCustom",
      "outputs": [
        {
          "components": [
            {
              "internalType": "uint256",
              "name": "id",
              "type": "uint256"
            },
            {
              "internalType": "string",
              "name": "title",
              "type": "string"
            },
            {
              "internalType": "uint256",
              "name": "count",
              "type": "uint256"
            },
            {
              "internalType": "bool",
              "name": "flag",
              "type": "bool"
            }
          ],
          "internalType": "struct Greeting.Data",
          "name": "",
          "type": "tuple"
        }
      ],
      "stateMutability": "view",
      "type": "function"
    },
    {
      "inputs": [
        {
          "internalType": "uint256",
          "name": "_index",
          "type": "uint256"
        }
      ],
      "name": "getMapping",
      "outputs": [
        {
          "components": [
            {
              "internalType": "uint256",
              "name": "id",
              "type": "uint256"
            },
            {
              "internalType": "string",
              "name": "title",
              "type": "string"
            },
            {
              "internalType": "uint256",
              "name": "count",
              "type": "uint256"
            },
            {
              "internalType": "bool",
              "name": "flag",
              "type": "bool"
            }
          ],
          "internalType": "struct Greeting.Data",
          "name": "",
          "type": "tuple"
        }
      ],
      "stateMutability": "view",
      "type": "function"
    },
    {
      "inputs": [],
      "name": "getName",
      "outputs": [
        {
          "internalType": "string",
          "name": "",
          "type": "string"
        }
      ],
      "stateMutability": "view",
      "type": "function"
    },
    {
      "inputs": [
        {
          "internalType": "uint256",
          "name": "_index",
          "type": "uint256"
        }
      ],
      "name": "getStructArray",
      "outputs": [
        {
          "components": [
            {
              "internalType": "uint256",
              "name": "id",
              "type": "uint256"
            },
            {
              "internalType": "string",
              "name": "title",
              "type": "string"
            },
            {
              "internalType": "uint256",
              "name": "count",
              "type": "uint256"
            },
            {
              "internalType": "bool",
              "name": "flag",
              "type": "bool"
            }
          ],
          "internalType": "struct Greeting.Data",
          "name": "",
          "type": "tuple"
        }
      ],
      "stateMutability": "view",
      "type": "function"
    },
    {
      "inputs": [],
      "name": "getStructCount",
      "outputs": [
        {
          "internalType": "uint256",
          "name": "",
          "type": "uint256"
        }
      ],
      "stateMutability": "view",
      "type": "function"
    },
    {
      "inputs": [],
      "name": "getStructFlag",
      "outputs": [
        {
          "internalType": "bool",
          "name": "",
          "type": "bool"
        }
      ],
      "stateMutability": "view",
      "type": "function"
    },
    {
      "inputs": [],
      "name": "getStructId",
      "outputs": [
        {
          "internalType": "uint256",
          "name": "",
          "type": "uint256"
        }
      ],
      "stateMutability": "view",
      "type": "function"
    },
    {
      "inputs": [],
      "name": "getStructTitle",
      "outputs": [
        {
          "internalType": "string",
          "name": "",
          "type": "string"
        }
      ],
      "stateMutability": "view",
      "type": "function"
    },
    {
      "inputs": [
        {
          "internalType": "uint256",
          "name": "_age",
          "type": "uint256"
        }
      ],
      "name": "setAge",
      "outputs": [],
      "stateMutability": "nonpayable",
      "type": "function"
    },
    {
      "inputs": [
        {
          "internalType": "string",
          "name": "_name",
          "type": "string"
        },
        {
          "internalType": "uint256",
          "name": "_age",
          "type": "uint256"
        }
      ],
      "name": "setAttributes",
      "outputs": [],
      "stateMutability": "payable",
      "type": "function"
    },
    {
      "inputs": [
        {
          "internalType": "string",
          "name": "_title",
          "type": "string"
        },
        {
          "internalType": "uint256",
          "name": "_count",
          "type": "uint256"
        },
        {
          "internalType": "bool",
          "name": "_flag",
          "type": "bool"
        }
      ],
      "name": "setData",
      "outputs": [],
      "stateMutability": "nonpayable",
      "type": "function"
    },
    {
      "inputs": [
        {
          "internalType": "string",
          "name": "_title",
          "type": "string"
        },
        {
          "internalType": "uint256",
          "name": "_count",
          "type": "uint256"
        },
        {
          "internalType": "bool",
          "name": "_flag",
          "type": "bool"
        }
      ],
      "name": "setMapping",
      "outputs": [],
      "stateMutability": "nonpayable",
      "type": "function"
    },
    {
      "inputs": [
        {
          "internalType": "string",
          "name": "_name",
          "type": "string"
        }
      ],
      "name": "setName",
      "outputs": [],
      "stateMutability": "nonpayable",
      "type": "function"
    },
    {
      "inputs": [
        {
          "internalType": "string",
          "name": "_title",
          "type": "string"
        },
        {
          "internalType": "uint256",
          "name": "_count",
          "type": "uint256"
        },
        {
          "internalType": "bool",
          "name": "_flag",
          "type": "bool"
        }
      ],
      "name": "setStructArray",
      "outputs": [],
      "stateMutability": "nonpayable",
      "type": "function"
    }
  ],
  "bytecode": "0x60806040523480156200001157600080fd5b506040518060400160405280600881526020017f4772656574696e670000000000000000000000000000000000000000000000008152506000908162000058919062000548565b5060126001819055506003600590806001815401808255809150506001900390600052602060002001600090919091909150556040518060800160405280600181526020016040518060400160405280600481526020017f746573740000000000000000000000000000000000000000000000000000000081525081526020016001815260200160001515815250600460008201518160000155602082015181600101908162000109919062000548565b506040820151816002015560608201518160030160006101000a81548160ff02191690831515021790555090505060106040518060800160405280600181526020016040518060400160405280600481526020017f7465737400000000000000000000000000000000000000000000000000000000815250815260200160018152602001600015158152509080600181540180825580915050600190039060005260206000209060040201600090919091909150600082015181600001556020820151816001019081620001de919062000548565b506040820151816002015560608201518160030160006101000a81548160ff02191690831515021790555050506040518060800160405280600181526020016040518060400160405280600481526020017f746573740000000000000000000000000000000000000000000000000000000081525081526020016001815260200160001515815250601160008081526020019081526020016000206000820151816000015560208201518160010190816200029a919062000548565b506040820151816002015560608201518160030160006101000a81548160ff0219169083151502179055509050506200062f565b600081519050919050565b7f4e487b7100000000000000000000000000000000000000000000000000000000600052604160045260246000fd5b7f4e487b7100000000000000000000000000000000000000000000000000000000600052602260045260246000fd5b600060028204905060018216806200035057607f821691505b60208210810362000366576200036562000308565b5b50919050565b60008190508160005260206000209050919050565b60006020601f8301049050919050565b600082821b905092915050565b600060088302620003d07fffffffffffffffffffffffffffffffffffffffffffffffffffffffffffffffff8262000391565b620003dc868362000391565b95508019841693508086168417925050509392505050565b6000819050919050565b6000819050919050565b600062000429620004236200041d84620003f4565b620003fe565b620003f4565b9050919050565b6000819050919050565b620004458362000408565b6200045d620004548262000430565b8484546200039e565b825550505050565b600090565b6200047462000465565b620004818184846200043a565b505050565b5b81811015620004a9576200049d6000826200046a565b60018101905062000487565b5050565b601f821115620004f857620004c2816200036c565b620004cd8462000381565b81016020851015620004dd578190505b620004f5620004ec8562000381565b83018262000486565b50505b505050565b600082821c905092915050565b60006200051d60001984600802620004fd565b1980831691505092915050565b60006200053883836200050a565b9150826002028217905092915050565b6200055382620002ce565b67ffffffffffffffff8111156200056f576200056e620002d9565b5b6200057b825462000337565b62000588828285620004ad565b600060209050601f831160018114620005c05760008415620005ab578287015190505b620005b785826200052a565b86555062000627565b601f198416620005d0866200036c565b60005b82811015620005fa57848901518255600182019150602085019450602081019050620005d3565b868310156200061a578489015162000616601f8916826200050a565b8355505b6001600288020188555050505b505050505050565b6115b5806200063f6000396000f3fe6080604052600436106101095760003560e01c806373c275bc11610095578063c47f002711610064578063c47f00271461034e578063d56451f114610377578063d5dcf127146103a2578063e3c1c78d146103cb578063ede9ba8b146103f457610109565b806373c275bc146102b15780638ada066e146102cd578063967e6e65146102f8578063bc9fbf001461032357610109565b806349a0c808116100dc57806349a0c808146101b85780634ee270dd146101e15780636266160d1461021e5780636957fb5f1461024957806371e5ee5f1461027457610109565b80630e1d8c261461010e57806317d7de7c146101395780632036eb79146101645780633bc5de301461018d575b600080fd5b34801561011a57600080fd5b50610123610431565b6040516101309190610c2d565b60405180910390f35b34801561014557600080fd5b5061014e61044b565b60405161015b9190610cd8565b60405180910390f35b34801561017057600080fd5b5061018b60048036038101906101869190610ea5565b6104dd565b005b34801561019957600080fd5b506101a26105de565b6040516101af9190610fdf565b60405180910390f35b3480156101c457600080fd5b506101df60048036038101906101da9190610ea5565b6106b9565b005b3480156101ed57600080fd5b5061020860048036038101906102039190611001565b61074a565b6040516102159190610fdf565b60405180910390f35b34801561022a57600080fd5b50610233610847565b6040516102409190610cd8565b60405180910390f35b34801561025557600080fd5b5061025e6108dc565b60405161026b9190610fdf565b60405180910390f35b34801561028057600080fd5b5061029b60048036038101906102969190611001565b6109b7565b6040516102a8919061103d565b60405180910390f35b6102cb60048036038101906102c69190611058565b6109db565b005b3480156102d957600080fd5b506102e26109f6565b6040516102ef919061103d565b60405180910390f35b34801561030457600080fd5b5061030d610a00565b60405161031a919061103d565b60405180910390f35b34801561032f57600080fd5b50610338610a0a565b604051610345919061103d565b60405180910390f35b34801561035a57600080fd5b50610375600480360381019061037091906110b4565b610a17565b005b34801561038357600080fd5b5061038c610a2a565b604051610399919061103d565b60405180910390f35b3480156103ae57600080fd5b506103c960048036038101906103c49190611001565b610a37565b005b3480156103d757600080fd5b506103f260048036038101906103ed9190610ea5565b610a41565b005b34801561040057600080fd5b5061041b60048036038101906104169190611001565b610afa565b6040516104289190610fdf565b60405180910390f35b6000600460030160009054906101000a900460ff16905090565b60606000805461045a9061112c565b80601f01602080910402602001604051908101604052809291908181526020018280546104869061112c565b80156104d35780601f106104a8576101008083540402835291602001916104d3565b820191906000526020600020905b8154815290600101906020018083116104b657829003601f168201915b5050505050905090565b600260008154809291906104f09061118c565b919050555060405180608001604052806002548152602001848152602001838152602001821515815250600c60008201518160000155602082015181600101908161053b9190611380565b506040820151816002015560608201518160030160006101000a81548160ff021916908315150217905550905050600c601160006002548152602001908152602001600020600082015481600001556001820181600101908161059e9190611468565b50600282015481600201556003820160009054906101000a900460ff168160030160006101000a81548160ff021916908315150217905550905050505050565b6105e6610be8565b60046040518060800160405290816000820154815260200160018201805461060d9061112c565b80601f01602080910402602001604051908101604052809291908181526020018280546106399061112c565b80156106865780601f1061065b57610100808354040283529160200191610686565b820191906000526020600020905b81548152906001019060200180831161066957829003601f168201915b50505050508152602001600282015481526020016003820160009054906101000a900460ff161515151581525050905090565b600260008154809291906106cc9061118c565b91905055506040518060800160405280600254815260200184815260200183815260200182151581525060086000820151816000015560208201518160010190816107179190611380565b506040820151816002015560608201518160030160006101000a81548160ff021916908315150217905550905050505050565b610752610be8565b6010828154811061076657610765611550565b5b9060005260206000209060040201604051806080016040529081600082015481526020016001820180546107999061112c565b80601f01602080910402602001604051908101604052809291908181526020018280546107c59061112c565b80156108125780601f106107e757610100808354040283529160200191610812565b820191906000526020600020905b8154815290600101906020018083116107f557829003601f168201915b50505050508152602001600282015481526020016003820160009054906101000a900460ff1615151515815250509050919050565b6060600460010180546108599061112c565b80601f01602080910402602001604051908101604052809291908181526020018280546108859061112c565b80156108d25780601f106108a7576101008083540402835291602001916108d2565b820191906000526020600020905b8154815290600101906020018083116108b557829003601f168201915b5050505050905090565b6108e4610be8565b60086040518060800160405290816000820154815260200160018201805461090b9061112c565b80601f01602080910402602001604051908101604052809291908181526020018280546109379061112c565b80156109845780601f1061095957610100808354040283529160200191610984565b820191906000526020600020905b81548152906001019060200180831161096757829003601f168201915b50505050508152602001600282015481526020016003820160009054906101000a900460ff161515151581525050905090565b600381815481106109c757600080fd5b906000526020600020016000915090505481565b81600090816109ea9190611380565b50806001819055505050565b6000600254905090565b6000600154905090565b6000600460020154905090565b8060009081610a269190611380565b5050565b6000600460000154905090565b8060018190555050565b60026000815480929190610a549061118c565b91905055506010604051806080016040528060025481526020018581526020018481526020018315158152509080600181540180825580915050600190039060005260206000209060040201600090919091909150600082015181600001556020820151816001019081610ac89190611380565b506040820151816002015560608201518160030160006101000a81548160ff0219169083151502179055505050505050565b610b02610be8565b6011600083815260200190815260200160002060405180608001604052908160008201548152602001600182018054610b3a9061112c565b80601f0160208091040260200160405190810160405280929190818152602001828054610b669061112c565b8015610bb35780601f10610b8857610100808354040283529160200191610bb3565b820191906000526020600020905b815481529060010190602001808311610b9657829003601f168201915b50505050508152602001600282015481526020016003820160009054906101000a900460ff1615151515815250509050919050565b60405180608001604052806000815260200160608152602001600081526020016000151581525090565b60008115159050919050565b610c2781610c12565b82525050565b6000602082019050610c426000830184610c1e565b92915050565b600081519050919050565b600082825260208201905092915050565b60005b83811015610c82578082015181840152602081019050610c67565b60008484015250505050565b6000601f19601f8301169050919050565b6000610caa82610c48565b610cb48185610c53565b9350610cc4818560208601610c64565b610ccd81610c8e565b840191505092915050565b60006020820190508181036000830152610cf28184610c9f565b905092915050565b6000604051905090565b600080fd5b600080fd5b600080fd5b600080fd5b7f4e487b7100000000000000000000000000000000000000000000000000000000600052604160045260246000fd5b610d5082610c8e565b810181811067ffffffffffffffff82111715610d6f57610d6e610d18565b5b80604052505050565b6000610d82610cfa565b9050610d8e8282610d47565b919050565b600067ffffffffffffffff821115610dae57610dad610d18565b5b610db782610c8e565b9050602081019050919050565b82818337600083830152505050565b6000610de6610de184610d93565b610d78565b905082815260208101848484011115610e0257610e01610d13565b5b610e0d848285610dc4565b509392505050565b600082601f830112610e2a57610e29610d0e565b5b8135610e3a848260208601610dd3565b91505092915050565b6000819050919050565b610e5681610e43565b8114610e6157600080fd5b50565b600081359050610e7381610e4d565b92915050565b610e8281610c12565b8114610e8d57600080fd5b50565b600081359050610e9f81610e79565b92915050565b600080600060608486031215610ebe57610ebd610d04565b5b600084013567ffffffffffffffff811115610edc57610edb610d09565b5b610ee886828701610e15565b9350506020610ef986828701610e64565b9250506040610f0a86828701610e90565b9150509250925092565b610f1d81610e43565b82525050565b600082825260208201905092915050565b6000610f3f82610c48565b610f498185610f23565b9350610f59818560208601610c64565b610f6281610c8e565b840191505092915050565b610f7681610c12565b82525050565b6000608083016000830151610f946000860182610f14565b5060208301518482036020860152610fac8282610f34565b9150506040830151610fc16040860182610f14565b506060830151610fd46060860182610f6d565b508091505092915050565b60006020820190508181036000830152610ff98184610f7c565b905092915050565b60006020828403121561101757611016610d04565b5b600061102584828501610e64565b91505092915050565b61103781610e43565b82525050565b6000602082019050611052600083018461102e565b92915050565b6000806040838503121561106f5761106e610d04565b5b600083013567ffffffffffffffff81111561108d5761108c610d09565b5b61109985828601610e15565b92505060206110aa85828601610e64565b9150509250929050565b6000602082840312156110ca576110c9610d04565b5b600082013567ffffffffffffffff8111156110e8576110e7610d09565b5b6110f484828501610e15565b91505092915050565b7f4e487b7100000000000000000000000000000000000000000000000000000000600052602260045260246000fd5b6000600282049050600182168061114457607f821691505b602082108103611157576111566110fd565b5b50919050565b7f4e487b7100000000000000000000000000000000000000000000000000000000600052601160045260246000fd5b600061119782610e43565b91507fffffffffffffffffffffffffffffffffffffffffffffffffffffffffffffffff82036111c9576111c861115d565b5b600182019050919050565b60008190508160005260206000209050919050565b60006020601f8301049050919050565b600082821b905092915050565b6000600883026112367fffffffffffffffffffffffffffffffffffffffffffffffffffffffffffffffff826111f9565b61124086836111f9565b95508019841693508086168417925050509392505050565b6000819050919050565b600061127d61127861127384610e43565b611258565b610e43565b9050919050565b6000819050919050565b61129783611262565b6112ab6112a382611284565b848454611206565b825550505050565b600090565b6112c06112b3565b6112cb81848461128e565b505050565b5b818110156112ef576112e46000826112b8565b6001810190506112d1565b5050565b601f82111561133457611305816111d4565b61130e846111e9565b8101602085101561131d578190505b611331611329856111e9565b8301826112d0565b50505b505050565b600082821c905092915050565b600061135760001984600802611339565b1980831691505092915050565b60006113708383611346565b9150826002028217905092915050565b61138982610c48565b67ffffffffffffffff8111156113a2576113a1610d18565b5b6113ac825461112c565b6113b78282856112f3565b600060209050601f8311600181146113ea57600084156113d8578287015190505b6113e28582611364565b86555061144a565b601f1984166113f8866111d4565b60005b82811015611420578489015182556001820191506020850194506020810190506113fb565b8683101561143d5784890151611439601f891682611346565b8355505b6001600288020188555050505b505050505050565b6000815490506114618161112c565b9050919050565b81810361147657505061154e565b61147f82611452565b67ffffffffffffffff81111561149857611497610d18565b5b6114a2825461112c565b6114ad8282856112f3565b6000601f8311600181146114dc57600084156114ca578287015490505b6114d48582611364565b865550611547565b601f1984166114ea876111d4565b96506114f5866111d4565b60005b8281101561151d578489015482556001820191506001850194506020810190506114f8565b8683101561153a5784890154611536601f891682611346565b8355505b6001600288020188555050505b5050505050505b565b7f4e487b7100000000000000000000000000000000000000000000000000000000600052603260045260246000fdfea2646970667358221220b36255685050f102187c571f38a0441407de102950e4c148ca51f0fd80a88f2964736f6c63430008120033",
  "linkReferences": {},
  "deployedLinkReferences": {}
}