{
  "_format": "hh-sol-artifact-1",
  "contractName": "Greeting",
  "sourceName": "contracts/Greeting.sol",
  "abi": [
    {
      "inputs": [],
      "stateMutability": "nonpayable",
      "type": "constructor"
    },
    {
      "inputs": [
        {
          "internalType": "uint256",
          "name": "",
          "type": "uint256"
        }
      ],
      "name": "arr",
      "outputs": [
        {
          "internalType": "uint256",
          "name": "",
          "type": "uint256"
        }
      ],
      "stateMutability": "view",
      "type": "function"
    },
    {
      "inputs": [],
      "name": "getAge",
      "outputs": [
        {
          "internalType": "uint256",
          "name": "",
          "type": "uint256"
        }
      ],
      "stateMutability": "view",
      "type": "function"
    },
    {
      "inputs": [],
      "name": "getData",
      "outputs": [
        {
          "components": [
            {
              "internalType": "uint256",
              "name": "id",
              "type": "uint256"
            },
            {
              "internalType": "string",
              "name": "title",
              "type": "string"
            },
            {
              "internalType": "uint256",
              "name": "count",
              "type": "uint256"
            },
            {
              "internalType": "bool",
              "name": "flag",
              "type": "bool"
            }
          ],
          "internalType": "struct Greeting.Data",
          "name": "",
          "type": "tuple"
        }
      ],
      "stateMutability": "view",
      "type": "function"
    },
    {
      "inputs": [],
      "name": "getDataCustom",
      "outputs": [
        {
          "components": [
            {
              "internalType": "uint256",
              "name": "id",
              "type": "uint256"
            },
            {
              "internalType": "string",
              "name": "title",
              "type": "string"
            },
            {
              "internalType": "uint256",
              "name": "count",
              "type": "uint256"
            },
            {
              "internalType": "bool",
              "name": "flag",
              "type": "bool"
            }
          ],
          "internalType": "struct Greeting.Data",
          "name": "",
          "type": "tuple"
        }
      ],
      "stateMutability": "view",
      "type": "function"
    },
    {
      "inputs": [
        {
          "internalType": "uint256",
          "name": "_index",
          "type": "uint256"
        }
      ],
      "name": "getMapping",
      "outputs": [
        {
          "components": [
            {
              "internalType": "uint256",
              "name": "id",
              "type": "uint256"
            },
            {
              "internalType": "string",
              "name": "title",
              "type": "string"
            },
            {
              "internalType": "uint256",
              "name": "count",
              "type": "uint256"
            },
            {
              "internalType": "bool",
              "name": "flag",
              "type": "bool"
            }
          ],
          "internalType": "struct Greeting.Data",
          "name": "",
          "type": "tuple"
        }
      ],
      "stateMutability": "view",
      "type": "function"
    },
    {
      "inputs": [],
      "name": "getName",
      "outputs": [
        {
          "internalType": "string",
          "name": "",
          "type": "string"
        }
      ],
      "stateMutability": "view",
      "type": "function"
    },
    {
      "inputs": [
        {
          "internalType": "uint256",
          "name": "_index",
          "type": "uint256"
        }
      ],
      "name": "getStructArray",
      "outputs": [
        {
          "components": [
            {
              "internalType": "uint256",
              "name": "id",
              "type": "uint256"
            },
            {
              "internalType": "string",
              "name": "title",
              "type": "string"
            },
            {
              "internalType": "uint256",
              "name": "count",
              "type": "uint256"
            },
            {
              "internalType": "bool",
              "name": "flag",
              "type": "bool"
            }
          ],
          "internalType": "struct Greeting.Data",
          "name": "",
          "type": "tuple"
        }
      ],
      "stateMutability": "view",
      "type": "function"
    },
    {
      "inputs": [],
      "name": "getStructCount",
      "outputs": [
        {
          "internalType": "uint256",
          "name": "",
          "type": "uint256"
        }
      ],
      "stateMutability": "view",
      "type": "function"
    },
    {
      "inputs": [],
      "name": "getStructFlag",
      "outputs": [
        {
          "internalType": "bool",
          "name": "",
          "type": "bool"
        }
      ],
      "stateMutability": "view",
      "type": "function"
    },
    {
      "inputs": [],
      "name": "getStructId",
      "outputs": [
        {
          "internalType": "uint256",
          "name": "",
          "type": "uint256"
        }
      ],
      "stateMutability": "view",
      "type": "function"
    },
    {
      "inputs": [],
      "name": "getStructTitle",
      "outputs": [
        {
          "internalType": "string",
          "name": "",
          "type": "string"
        }
      ],
      "stateMutability": "view",
      "type": "function"
    },
    {
      "inputs": [
        {
          "internalType": "uint256",
          "name": "_age",
          "type": "uint256"
        }
      ],
      "name": "setAge",
      "outputs": [],
      "stateMutability": "nonpayable",
      "type": "function"
    },
    {
      "inputs": [
        {
          "internalType": "string",
          "name": "_name",
          "type": "string"
        },
        {
          "internalType": "uint256",
          "name": "_age",
          "type": "uint256"
        }
      ],
      "name": "setAttributes",
      "outputs": [],
      "stateMutability": "payable",
      "type": "function"
    },
    {
      "inputs": [
        {
          "internalType": "string",
          "name": "_title",
          "type": "string"
        },
        {
          "internalType": "uint256",
          "name": "_count",
          "type": "uint256"
        },
        {
          "internalType": "bool",
          "name": "_flag",
          "type": "bool"
        }
      ],
      "name": "setData",
      "outputs": [],
      "stateMutability": "nonpayable",
      "type": "function"
    },
    {
      "inputs": [
        {
          "internalType": "string",
          "name": "_title",
          "type": "string"
        },
        {
          "internalType": "uint256",
          "name": "_count",
          "type": "uint256"
        },
        {
          "internalType": "bool",
          "name": "_flag",
          "type": "bool"
        }
      ],
      "name": "setMapping",
      "outputs": [],
      "stateMutability": "nonpayable",
      "type": "function"
    },
    {
      "inputs": [
        {
          "internalType": "string",
          "name": "_name",
          "type": "string"
        }
      ],
      "name": "setName",
      "outputs": [],
      "stateMutability": "nonpayable",
      "type": "function"
    },
    {
      "inputs": [
        {
          "internalType": "string",
          "name": "_title",
          "type": "string"
        },
        {
          "internalType": "uint256",
          "name": "_count",
          "type": "uint256"
        },
        {
          "internalType": "bool",
          "name": "_flag",
          "type": "bool"
        }
      ],
      "name": "setStructArray",
      "outputs": [],
      "stateMutability": "nonpayable",
      "type": "function"
    }
  ],
  "bytecode": "0x60806040523480156200001157600080fd5b506040518060400160405280600881526020017f4772656574696e67000000000000000000000000000000000000000000000000815250600090816200005891906200048b565b5060126001819055506003600590806001815401808255809150506001900390600052602060002001600090919091909150556040518060800160405280600181526020016040518060400160405280600481526020017f74657374000000000000000000000000000000000000000000000000000000008152508152602001600181526020016000151581525060046000820151816000015560208201518160010190816200010991906200048b565b506040820151816002015560608201518160030160006101000a81548160ff02191690831515021790555090505060106040518060800160405280600181526020016040518060400160405280600481526020017f7465737400000000000000000000000000000000000000000000000000000000815250815260200160018152602001600015158152509080600181540180825580915050600190039060005260206000209060040201600090919091909150600082015181600001556020820151816001019081620001de91906200048b565b506040820151816002015560608201518160030160006101000a81548160ff021916908315150217905550505062000572565b600081519050919050565b7f4e487b7100000000000000000000000000000000000000000000000000000000600052604160045260246000fd5b7f4e487b7100000000000000000000000000000000000000000000000000000000600052602260045260246000fd5b600060028204905060018216806200029357607f821691505b602082108103620002a957620002a86200024b565b5b50919050565b60008190508160005260206000209050919050565b60006020601f8301049050919050565b600082821b905092915050565b600060088302620003137fffffffffffffffffffffffffffffffffffffffffffffffffffffffffffffffff82620002d4565b6200031f8683620002d4565b95508019841693508086168417925050509392505050565b6000819050919050565b6000819050919050565b60006200036c62000366620003608462000337565b62000341565b62000337565b9050919050565b6000819050919050565b62000388836200034b565b620003a0620003978262000373565b848454620002e1565b825550505050565b600090565b620003b7620003a8565b620003c48184846200037d565b505050565b5b81811015620003ec57620003e0600082620003ad565b600181019050620003ca565b5050565b601f8211156200043b576200040581620002af565b6200041084620002c4565b8101602085101562000420578190505b620004386200042f85620002c4565b830182620003c9565b50505b505050565b600082821c905092915050565b6000620004606000198460080262000440565b1980831691505092915050565b60006200047b83836200044d565b9150826002028217905092915050565b620004968262000211565b67ffffffffffffffff811115620004b257620004b16200021c565b5b620004be82546200027a565b620004cb828285620003f0565b600060209050601f831160018114620005035760008415620004ee578287015190505b620004fa85826200046d565b8655506200056a565b601f1984166200051386620002af565b60005b828110156200053d5784890151825560018201915060208501945060208101905062000516565b868310156200055d578489015162000559601f8916826200044d565b8355505b6001600288020188555050505b505050505050565b61157580620005826000396000f3fe6080604052600436106100fe5760003560e01c806371e5ee5f11610095578063c47f002711610064578063c47f002714610318578063d56451f114610341578063d5dcf1271461036c578063e3c1c78d14610395578063ede9ba8b146103be576100fe565b806371e5ee5f1461026957806373c275bc146102a6578063967e6e65146102c2578063bc9fbf00146102ed576100fe565b806349a0c808116100d157806349a0c808146101ad5780634ee270dd146101d65780636266160d146102135780636957fb5f1461023e576100fe565b80630e1d8c261461010357806317d7de7c1461012e5780632036eb79146101595780633bc5de3014610182575b600080fd5b34801561010f57600080fd5b506101186103fb565b6040516101259190610bed565b60405180910390f35b34801561013a57600080fd5b50610143610415565b6040516101509190610c98565b60405180910390f35b34801561016557600080fd5b50610180600480360381019061017b9190610e65565b6104a7565b005b34801561018e57600080fd5b506101976105a8565b6040516101a49190610f9f565b60405180910390f35b3480156101b957600080fd5b506101d460048036038101906101cf9190610e65565b610683565b005b3480156101e257600080fd5b506101fd60048036038101906101f89190610fc1565b610714565b60405161020a9190610f9f565b60405180910390f35b34801561021f57600080fd5b50610228610811565b6040516102359190610c98565b60405180910390f35b34801561024a57600080fd5b506102536108a6565b6040516102609190610f9f565b60405180910390f35b34801561027557600080fd5b50610290600480360381019061028b9190610fc1565b610981565b60405161029d9190610ffd565b60405180910390f35b6102c060048036038101906102bb9190611018565b6109a5565b005b3480156102ce57600080fd5b506102d76109c0565b6040516102e49190610ffd565b60405180910390f35b3480156102f957600080fd5b506103026109ca565b60405161030f9190610ffd565b60405180910390f35b34801561032457600080fd5b5061033f600480360381019061033a9190611074565b6109d7565b005b34801561034d57600080fd5b506103566109ea565b6040516103639190610ffd565b60405180910390f35b34801561037857600080fd5b50610393600480360381019061038e9190610fc1565b6109f7565b005b3480156103a157600080fd5b506103bc60048036038101906103b79190610e65565b610a01565b005b3480156103ca57600080fd5b506103e560048036038101906103e09190610fc1565b610aba565b6040516103f29190610f9f565b60405180910390f35b6000600460030160009054906101000a900460ff16905090565b606060008054610424906110ec565b80601f0160208091040260200160405190810160405280929190818152602001828054610450906110ec565b801561049d5780601f106104725761010080835404028352916020019161049d565b820191906000526020600020905b81548152906001019060200180831161048057829003601f168201915b5050505050905090565b600260008154809291906104ba9061114c565b919050555060405180608001604052806002548152602001848152602001838152602001821515815250600c6000820151816000015560208201518160010190816105059190611340565b506040820151816002015560608201518160030160006101000a81548160ff021916908315150217905550905050600c60116000600254815260200190815260200160002060008201548160000155600182018160010190816105689190611428565b50600282015481600201556003820160009054906101000a900460ff168160030160006101000a81548160ff021916908315150217905550905050505050565b6105b0610ba8565b6004604051806080016040529081600082015481526020016001820180546105d7906110ec565b80601f0160208091040260200160405190810160405280929190818152602001828054610603906110ec565b80156106505780601f1061062557610100808354040283529160200191610650565b820191906000526020600020905b81548152906001019060200180831161063357829003601f168201915b50505050508152602001600282015481526020016003820160009054906101000a900460ff161515151581525050905090565b600260008154809291906106969061114c565b91905055506040518060800160405280600254815260200184815260200183815260200182151581525060086000820151816000015560208201518160010190816106e19190611340565b506040820151816002015560608201518160030160006101000a81548160ff021916908315150217905550905050505050565b61071c610ba8565b601082815481106107305761072f611510565b5b906000526020600020906004020160405180608001604052908160008201548152602001600182018054610763906110ec565b80601f016020809104026020016040519081016040528092919081815260200182805461078f906110ec565b80156107dc5780601f106107b1576101008083540402835291602001916107dc565b820191906000526020600020905b8154815290600101906020018083116107bf57829003601f168201915b50505050508152602001600282015481526020016003820160009054906101000a900460ff1615151515815250509050919050565b606060046001018054610823906110ec565b80601f016020809104026020016040519081016040528092919081815260200182805461084f906110ec565b801561089c5780601f106108715761010080835404028352916020019161089c565b820191906000526020600020905b81548152906001019060200180831161087f57829003601f168201915b5050505050905090565b6108ae610ba8565b6008604051806080016040529081600082015481526020016001820180546108d5906110ec565b80601f0160208091040260200160405190810160405280929190818152602001828054610901906110ec565b801561094e5780601f106109235761010080835404028352916020019161094e565b820191906000526020600020905b81548152906001019060200180831161093157829003601f168201915b50505050508152602001600282015481526020016003820160009054906101000a900460ff161515151581525050905090565b6003818154811061099157600080fd5b906000526020600020016000915090505481565b81600090816109b49190611340565b50806001819055505050565b6000600154905090565b6000600460020154905090565b80600090816109e69190611340565b5050565b6000600460000154905090565b8060018190555050565b60026000815480929190610a149061114c565b91905055506010604051806080016040528060025481526020018581526020018481526020018315158152509080600181540180825580915050600190039060005260206000209060040201600090919091909150600082015181600001556020820151816001019081610a889190611340565b506040820151816002015560608201518160030160006101000a81548160ff0219169083151502179055505050505050565b610ac2610ba8565b6011600083815260200190815260200160002060405180608001604052908160008201548152602001600182018054610afa906110ec565b80601f0160208091040260200160405190810160405280929190818152602001828054610b26906110ec565b8015610b735780601f10610b4857610100808354040283529160200191610b73565b820191906000526020600020905b815481529060010190602001808311610b5657829003601f168201915b50505050508152602001600282015481526020016003820160009054906101000a900460ff1615151515815250509050919050565b60405180608001604052806000815260200160608152602001600081526020016000151581525090565b60008115159050919050565b610be781610bd2565b82525050565b6000602082019050610c026000830184610bde565b92915050565b600081519050919050565b600082825260208201905092915050565b60005b83811015610c42578082015181840152602081019050610c27565b60008484015250505050565b6000601f19601f8301169050919050565b6000610c6a82610c08565b610c748185610c13565b9350610c84818560208601610c24565b610c8d81610c4e565b840191505092915050565b60006020820190508181036000830152610cb28184610c5f565b905092915050565b6000604051905090565b600080fd5b600080fd5b600080fd5b600080fd5b7f4e487b7100000000000000000000000000000000000000000000000000000000600052604160045260246000fd5b610d1082610c4e565b810181811067ffffffffffffffff82111715610d2f57610d2e610cd8565b5b80604052505050565b6000610d42610cba565b9050610d4e8282610d07565b919050565b600067ffffffffffffffff821115610d6e57610d6d610cd8565b5b610d7782610c4e565b9050602081019050919050565b82818337600083830152505050565b6000610da6610da184610d53565b610d38565b905082815260208101848484011115610dc257610dc1610cd3565b5b610dcd848285610d84565b509392505050565b600082601f830112610dea57610de9610cce565b5b8135610dfa848260208601610d93565b91505092915050565b6000819050919050565b610e1681610e03565b8114610e2157600080fd5b50565b600081359050610e3381610e0d565b92915050565b610e4281610bd2565b8114610e4d57600080fd5b50565b600081359050610e5f81610e39565b92915050565b600080600060608486031215610e7e57610e7d610cc4565b5b600084013567ffffffffffffffff811115610e9c57610e9b610cc9565b5b610ea886828701610dd5565b9350506020610eb986828701610e24565b9250506040610eca86828701610e50565b9150509250925092565b610edd81610e03565b82525050565b600082825260208201905092915050565b6000610eff82610c08565b610f098185610ee3565b9350610f19818560208601610c24565b610f2281610c4e565b840191505092915050565b610f3681610bd2565b82525050565b6000608083016000830151610f546000860182610ed4565b5060208301518482036020860152610f6c8282610ef4565b9150506040830151610f816040860182610ed4565b506060830151610f946060860182610f2d565b508091505092915050565b60006020820190508181036000830152610fb98184610f3c565b905092915050565b600060208284031215610fd757610fd6610cc4565b5b6000610fe584828501610e24565b91505092915050565b610ff781610e03565b82525050565b60006020820190506110126000830184610fee565b92915050565b6000806040838503121561102f5761102e610cc4565b5b600083013567ffffffffffffffff81111561104d5761104c610cc9565b5b61105985828601610dd5565b925050602061106a85828601610e24565b9150509250929050565b60006020828403121561108a57611089610cc4565b5b600082013567ffffffffffffffff8111156110a8576110a7610cc9565b5b6110b484828501610dd5565b91505092915050565b7f4e487b7100000000000000000000000000000000000000000000000000000000600052602260045260246000fd5b6000600282049050600182168061110457607f821691505b602082108103611117576111166110bd565b5b50919050565b7f4e487b7100000000000000000000000000000000000000000000000000000000600052601160045260246000fd5b600061115782610e03565b91507fffffffffffffffffffffffffffffffffffffffffffffffffffffffffffffffff82036111895761118861111d565b5b600182019050919050565b60008190508160005260206000209050919050565b60006020601f8301049050919050565b600082821b905092915050565b6000600883026111f67fffffffffffffffffffffffffffffffffffffffffffffffffffffffffffffffff826111b9565b61120086836111b9565b95508019841693508086168417925050509392505050565b6000819050919050565b600061123d61123861123384610e03565b611218565b610e03565b9050919050565b6000819050919050565b61125783611222565b61126b61126382611244565b8484546111c6565b825550505050565b600090565b611280611273565b61128b81848461124e565b505050565b5b818110156112af576112a4600082611278565b600181019050611291565b5050565b601f8211156112f4576112c581611194565b6112ce846111a9565b810160208510156112dd578190505b6112f16112e9856111a9565b830182611290565b50505b505050565b600082821c905092915050565b6000611317600019846008026112f9565b1980831691505092915050565b60006113308383611306565b9150826002028217905092915050565b61134982610c08565b67ffffffffffffffff81111561136257611361610cd8565b5b61136c82546110ec565b6113778282856112b3565b600060209050601f8311600181146113aa5760008415611398578287015190505b6113a28582611324565b86555061140a565b601f1984166113b886611194565b60005b828110156113e0578489015182556001820191506020850194506020810190506113bb565b868310156113fd57848901516113f9601f891682611306565b8355505b6001600288020188555050505b505050505050565b600081549050611421816110ec565b9050919050565b81810361143657505061150e565b61143f82611412565b67ffffffffffffffff81111561145857611457610cd8565b5b61146282546110ec565b61146d8282856112b3565b6000601f83116001811461149c576000841561148a578287015490505b6114948582611324565b865550611507565b601f1984166114aa87611194565b96506114b586611194565b60005b828110156114dd578489015482556001820191506001850194506020810190506114b8565b868310156114fa57848901546114f6601f891682611306565b8355505b6001600288020188555050505b5050505050505b565b7f4e487b7100000000000000000000000000000000000000000000000000000000600052603260045260246000fdfea2646970667358221220ae08497cd7cf8ee277ed626b35c854322d979124e3b9c41704ec5bbbec90e08f64736f6c63430008120033",
  "linkReferences": {},
  "deployedLinkReferences": {}
}