{
  "_format": "hh-sol-artifact-1",
  "contractName": "Greeting",
  "sourceName": "contracts/Greeting.sol",
  "abi": [
    {
      "inputs": [],
      "stateMutability": "nonpayable",
      "type": "constructor"
    },
    {
      "inputs": [],
      "name": "data",
      "outputs": [
        {
          "internalType": "uint256",
          "name": "id",
          "type": "uint256"
        },
        {
          "internalType": "string",
          "name": "title",
          "type": "string"
        },
        {
          "internalType": "uint256",
          "name": "count",
          "type": "uint256"
        },
        {
          "internalType": "bool",
          "name": "flag",
          "type": "bool"
        }
      ],
      "stateMutability": "view",
      "type": "function"
    },
    {
      "inputs": [],
      "name": "getAge",
      "outputs": [
        {
          "internalType": "uint256",
          "name": "",
          "type": "uint256"
        }
      ],
      "stateMutability": "view",
      "type": "function"
    },
    {
      "inputs": [],
      "name": "getData",
      "outputs": [
        {
          "internalType": "uint256",
          "name": "",
          "type": "uint256"
        }
      ],
      "stateMutability": "view",
      "type": "function"
    },
    {
      "inputs": [],
      "name": "getName",
      "outputs": [
        {
          "internalType": "string",
          "name": "",
          "type": "string"
        }
      ],
      "stateMutability": "view",
      "type": "function"
    },
    {
      "inputs": [
        {
          "internalType": "uint256",
          "name": "_age",
          "type": "uint256"
        }
      ],
      "name": "setAge",
      "outputs": [],
      "stateMutability": "nonpayable",
      "type": "function"
    },
    {
      "inputs": [
        {
          "internalType": "string",
          "name": "_name",
          "type": "string"
        },
        {
          "internalType": "uint256",
          "name": "_age",
          "type": "uint256"
        }
      ],
      "name": "setAttributes",
      "outputs": [],
      "stateMutability": "payable",
      "type": "function"
    },
    {
      "inputs": [
        {
          "internalType": "string",
          "name": "_name",
          "type": "string"
        }
      ],
      "name": "setName",
      "outputs": [],
      "stateMutability": "nonpayable",
      "type": "function"
    }
  ],
  "bytecode": "0x60806040523480156200001157600080fd5b506040518060400160405280600881526020017f4772656574696e67000000000000000000000000000000000000000000000000815250600090816200005891906200033d565b5060126001819055506040518060800160405280600181526020016040518060400160405280600481526020017f7465737400000000000000000000000000000000000000000000000000000000815250815260200160018152602001600115158152505062000424565b600081519050919050565b7f4e487b7100000000000000000000000000000000000000000000000000000000600052604160045260246000fd5b7f4e487b7100000000000000000000000000000000000000000000000000000000600052602260045260246000fd5b600060028204905060018216806200014557607f821691505b6020821081036200015b576200015a620000fd565b5b50919050565b60008190508160005260206000209050919050565b60006020601f8301049050919050565b600082821b905092915050565b600060088302620001c57fffffffffffffffffffffffffffffffffffffffffffffffffffffffffffffffff8262000186565b620001d1868362000186565b95508019841693508086168417925050509392505050565b6000819050919050565b6000819050919050565b60006200021e620002186200021284620001e9565b620001f3565b620001e9565b9050919050565b6000819050919050565b6200023a83620001fd565b62000252620002498262000225565b84845462000193565b825550505050565b600090565b620002696200025a565b620002768184846200022f565b505050565b5b818110156200029e57620002926000826200025f565b6001810190506200027c565b5050565b601f821115620002ed57620002b78162000161565b620002c28462000176565b81016020851015620002d2578190505b620002ea620002e18562000176565b8301826200027b565b50505b505050565b600082821c905092915050565b60006200031260001984600802620002f2565b1980831691505092915050565b60006200032d8383620002ff565b9150826002028217905092915050565b6200034882620000c3565b67ffffffffffffffff811115620003645762000363620000ce565b5b6200037082546200012c565b6200037d828285620002a2565b600060209050601f831160018114620003b55760008415620003a0578287015190505b620003ac85826200031f565b8655506200041c565b601f198416620003c58662000161565b60005b82811015620003ef57848901518255600182019150602085019450602081019050620003c8565b868310156200040f57848901516200040b601f891682620002ff565b8355505b6001600288020188555050505b505050505050565b6109ce80620004346000396000f3fe6080604052600436106100705760003560e01c806373d4a13a1161004e57806373d4a13a146100e7578063967e6e6514610115578063c47f002714610140578063d5dcf1271461016957610070565b806317d7de7c146100755780633bc5de30146100a057806373c275bc146100cb575b600080fd5b34801561008157600080fd5b5061008a610192565b60405161009791906103b6565b60405180910390f35b3480156100ac57600080fd5b506100b5610224565b6040516100c291906103f1565b60405180910390f35b6100e560048036038101906100e09190610581565b610231565b005b3480156100f357600080fd5b506100fc61024c565b60405161010c94939291906105f8565b60405180910390f35b34801561012157600080fd5b5061012a6102ff565b60405161013791906103f1565b60405180910390f35b34801561014c57600080fd5b5061016760048036038101906101629190610644565b610309565b005b34801561017557600080fd5b50610190600480360381019061018b919061068d565b61031c565b005b6060600080546101a1906106e9565b80601f01602080910402602001604051908101604052809291908181526020018280546101cd906106e9565b801561021a5780601f106101ef5761010080835404028352916020019161021a565b820191906000526020600020905b8154815290600101906020018083116101fd57829003601f168201915b5050505050905090565b6000600260000154905090565b816000908161024091906108c6565b50806001819055505050565b6002806000015490806001018054610263906106e9565b80601f016020809104026020016040519081016040528092919081815260200182805461028f906106e9565b80156102dc5780601f106102b1576101008083540402835291602001916102dc565b820191906000526020600020905b8154815290600101906020018083116102bf57829003601f168201915b5050505050908060020154908060030160009054906101000a900460ff16905084565b6000600154905090565b806000908161031891906108c6565b5050565b8060018190555050565b600081519050919050565b600082825260208201905092915050565b60005b83811015610360578082015181840152602081019050610345565b60008484015250505050565b6000601f19601f8301169050919050565b600061038882610326565b6103928185610331565b93506103a2818560208601610342565b6103ab8161036c565b840191505092915050565b600060208201905081810360008301526103d0818461037d565b905092915050565b6000819050919050565b6103eb816103d8565b82525050565b600060208201905061040660008301846103e2565b92915050565b6000604051905090565b600080fd5b600080fd5b600080fd5b600080fd5b7f4e487b7100000000000000000000000000000000000000000000000000000000600052604160045260246000fd5b6104628261036c565b810181811067ffffffffffffffff821117156104815761048061042a565b5b80604052505050565b600061049461040c565b90506104a08282610459565b919050565b600067ffffffffffffffff8211156104c0576104bf61042a565b5b6104c98261036c565b9050602081019050919050565b82818337600083830152505050565b60006104f86104f3846104a5565b61048a565b90508281526020810184848401111561051457610513610425565b5b61051f8482856104d6565b509392505050565b600082601f83011261053c5761053b610420565b5b813561054c8482602086016104e5565b91505092915050565b61055e816103d8565b811461056957600080fd5b50565b60008135905061057b81610555565b92915050565b6000806040838503121561059857610597610416565b5b600083013567ffffffffffffffff8111156105b6576105b561041b565b5b6105c285828601610527565b92505060206105d38582860161056c565b9150509250929050565b60008115159050919050565b6105f2816105dd565b82525050565b600060808201905061060d60008301876103e2565b818103602083015261061f818661037d565b905061062e60408301856103e2565b61063b60608301846105e9565b95945050505050565b60006020828403121561065a57610659610416565b5b600082013567ffffffffffffffff8111156106785761067761041b565b5b61068484828501610527565b91505092915050565b6000602082840312156106a3576106a2610416565b5b60006106b18482850161056c565b91505092915050565b7f4e487b7100000000000000000000000000000000000000000000000000000000600052602260045260246000fd5b6000600282049050600182168061070157607f821691505b602082108103610714576107136106ba565b5b50919050565b60008190508160005260206000209050919050565b60006020601f8301049050919050565b600082821b905092915050565b60006008830261077c7fffffffffffffffffffffffffffffffffffffffffffffffffffffffffffffffff8261073f565b610786868361073f565b95508019841693508086168417925050509392505050565b6000819050919050565b60006107c36107be6107b9846103d8565b61079e565b6103d8565b9050919050565b6000819050919050565b6107dd836107a8565b6107f16107e9826107ca565b84845461074c565b825550505050565b600090565b6108066107f9565b6108118184846107d4565b505050565b5b818110156108355761082a6000826107fe565b600181019050610817565b5050565b601f82111561087a5761084b8161071a565b6108548461072f565b81016020851015610863578190505b61087761086f8561072f565b830182610816565b50505b505050565b600082821c905092915050565b600061089d6000198460080261087f565b1980831691505092915050565b60006108b6838361088c565b9150826002028217905092915050565b6108cf82610326565b67ffffffffffffffff8111156108e8576108e761042a565b5b6108f282546106e9565b6108fd828285610839565b600060209050601f831160018114610930576000841561091e578287015190505b61092885826108aa565b865550610990565b601f19841661093e8661071a565b60005b8281101561096657848901518255600182019150602085019450602081019050610941565b86831015610983578489015161097f601f89168261088c565b8355505b6001600288020188555050505b50505050505056fea2646970667358221220c273b4501482b343dd1e22685b4a1c6592368527a8c9ff383e7b8fe4d5dc229f64736f6c63430008120033",
  "linkReferences": {},
  "deployedLinkReferences": {}
}