{
  "_format": "hh-sol-artifact-1",
  "contractName": "Greeting",
  "sourceName": "contracts/Greeting.sol",
  "abi": [
    {
      "inputs": [],
      "stateMutability": "nonpayable",
      "type": "constructor"
    },
    {
      "inputs": [
        {
          "internalType": "uint256",
          "name": "",
          "type": "uint256"
        }
      ],
      "name": "arr",
      "outputs": [
        {
          "internalType": "uint256",
          "name": "",
          "type": "uint256"
        }
      ],
      "stateMutability": "view",
      "type": "function"
    },
    {
      "inputs": [],
      "name": "getAge",
      "outputs": [
        {
          "internalType": "uint256",
          "name": "",
          "type": "uint256"
        }
      ],
      "stateMutability": "view",
      "type": "function"
    },
    {
      "inputs": [],
      "name": "getName",
      "outputs": [
        {
          "internalType": "string",
          "name": "",
          "type": "string"
        }
      ],
      "stateMutability": "view",
      "type": "function"
    },
    {
      "inputs": [],
      "name": "getStructCount",
      "outputs": [
        {
          "internalType": "uint256",
          "name": "",
          "type": "uint256"
        }
      ],
      "stateMutability": "view",
      "type": "function"
    },
    {
      "inputs": [],
      "name": "getStructFlag",
      "outputs": [
        {
          "internalType": "bool",
          "name": "",
          "type": "bool"
        }
      ],
      "stateMutability": "view",
      "type": "function"
    },
    {
      "inputs": [],
      "name": "getStructId",
      "outputs": [
        {
          "internalType": "uint256",
          "name": "",
          "type": "uint256"
        }
      ],
      "stateMutability": "view",
      "type": "function"
    },
    {
      "inputs": [],
      "name": "getStructTitle",
      "outputs": [
        {
          "internalType": "string",
          "name": "",
          "type": "string"
        }
      ],
      "stateMutability": "view",
      "type": "function"
    },
    {
      "inputs": [
        {
          "internalType": "uint256",
          "name": "_age",
          "type": "uint256"
        }
      ],
      "name": "setAge",
      "outputs": [],
      "stateMutability": "nonpayable",
      "type": "function"
    },
    {
      "inputs": [
        {
          "internalType": "string",
          "name": "_name",
          "type": "string"
        },
        {
          "internalType": "uint256",
          "name": "_age",
          "type": "uint256"
        }
      ],
      "name": "setAttributes",
      "outputs": [],
      "stateMutability": "payable",
      "type": "function"
    },
    {
      "inputs": [
        {
          "internalType": "string",
          "name": "_name",
          "type": "string"
        }
      ],
      "name": "setName",
      "outputs": [],
      "stateMutability": "nonpayable",
      "type": "function"
    }
  ],
  "bytecode": "0x60806040523480156200001157600080fd5b506040518060400160405280600881526020017f4772656574696e6700000000000000000000000000000000000000000000000081525060009081620000589190620003b7565b5060126001819055506002600590806001815401808255809150506001900390600052602060002001600090919091909150556040518060800160405280600181526020016040518060400160405280600481526020017f7465737400000000000000000000000000000000000000000000000000000000815250815260200160018152602001600015158152506003600082015181600001556020820151816001019081620001099190620003b7565b506040820151816002015560608201518160030160006101000a81548160ff0219169083151502179055509050506200049e565b600081519050919050565b7f4e487b7100000000000000000000000000000000000000000000000000000000600052604160045260246000fd5b7f4e487b7100000000000000000000000000000000000000000000000000000000600052602260045260246000fd5b60006002820490506001821680620001bf57607f821691505b602082108103620001d557620001d462000177565b5b50919050565b60008190508160005260206000209050919050565b60006020601f8301049050919050565b600082821b905092915050565b6000600883026200023f7fffffffffffffffffffffffffffffffffffffffffffffffffffffffffffffffff8262000200565b6200024b868362000200565b95508019841693508086168417925050509392505050565b6000819050919050565b6000819050919050565b600062000298620002926200028c8462000263565b6200026d565b62000263565b9050919050565b6000819050919050565b620002b48362000277565b620002cc620002c3826200029f565b8484546200020d565b825550505050565b600090565b620002e3620002d4565b620002f0818484620002a9565b505050565b5b8181101562000318576200030c600082620002d9565b600181019050620002f6565b5050565b601f82111562000367576200033181620001db565b6200033c84620001f0565b810160208510156200034c578190505b620003646200035b85620001f0565b830182620002f5565b50505b505050565b600082821c905092915050565b60006200038c600019846008026200036c565b1980831691505092915050565b6000620003a7838362000379565b9150826002028217905092915050565b620003c2826200013d565b67ffffffffffffffff811115620003de57620003dd62000148565b5b620003ea8254620001a6565b620003f78282856200031c565b600060209050601f8311600181146200042f57600084156200041a578287015190505b62000426858262000399565b86555062000496565b601f1984166200043f86620001db565b60005b82811015620004695784890151825560018201915060208501945060208101905062000442565b8683101562000489578489015162000485601f89168262000379565b8355505b6001600288020188555050505b505050505050565b610a7a80620004ae6000396000f3fe6080604052600436106100915760003560e01c8063967e6e6511610059578063967e6e6514610170578063bc9fbf001461019b578063c47f0027146101c6578063d56451f1146101ef578063d5dcf1271461021a57610091565b80630e1d8c261461009657806317d7de7c146100c15780636266160d146100ec57806371e5ee5f1461011757806373c275bc14610154575b600080fd5b3480156100a257600080fd5b506100ab610243565b6040516100b8919061041e565b60405180910390f35b3480156100cd57600080fd5b506100d661025c565b6040516100e391906104c9565b60405180910390f35b3480156100f857600080fd5b506101016102ee565b60405161010e91906104c9565b60405180910390f35b34801561012357600080fd5b5061013e60048036038101906101399190610535565b610383565b60405161014b9190610571565b60405180910390f35b61016e600480360381019061016991906106c1565b6103a7565b005b34801561017c57600080fd5b506101856103c2565b6040516101929190610571565b60405180910390f35b3480156101a757600080fd5b506101b06103cc565b6040516101bd9190610571565b60405180910390f35b3480156101d257600080fd5b506101ed60048036038101906101e8919061071d565b6103d9565b005b3480156101fb57600080fd5b506102046103ec565b6040516102119190610571565b60405180910390f35b34801561022657600080fd5b50610241600480360381019061023c9190610535565b6103f9565b005b60006003800160009054906101000a900460ff16905090565b60606000805461026b90610795565b80601f016020809104026020016040519081016040528092919081815260200182805461029790610795565b80156102e45780601f106102b9576101008083540402835291602001916102e4565b820191906000526020600020905b8154815290600101906020018083116102c757829003601f168201915b5050505050905090565b60606003600101805461030090610795565b80601f016020809104026020016040519081016040528092919081815260200182805461032c90610795565b80156103795780601f1061034e57610100808354040283529160200191610379565b820191906000526020600020905b81548152906001019060200180831161035c57829003601f168201915b5050505050905090565b6002818154811061039357600080fd5b906000526020600020016000915090505481565b81600090816103b69190610972565b50806001819055505050565b6000600154905090565b6000600360020154905090565b80600090816103e89190610972565b5050565b6000600360000154905090565b8060018190555050565b60008115159050919050565b61041881610403565b82525050565b6000602082019050610433600083018461040f565b92915050565b600081519050919050565b600082825260208201905092915050565b60005b83811015610473578082015181840152602081019050610458565b60008484015250505050565b6000601f19601f8301169050919050565b600061049b82610439565b6104a58185610444565b93506104b5818560208601610455565b6104be8161047f565b840191505092915050565b600060208201905081810360008301526104e38184610490565b905092915050565b6000604051905090565b600080fd5b600080fd5b6000819050919050565b610512816104ff565b811461051d57600080fd5b50565b60008135905061052f81610509565b92915050565b60006020828403121561054b5761054a6104f5565b5b600061055984828501610520565b91505092915050565b61056b816104ff565b82525050565b60006020820190506105866000830184610562565b92915050565b600080fd5b600080fd5b7f4e487b7100000000000000000000000000000000000000000000000000000000600052604160045260246000fd5b6105ce8261047f565b810181811067ffffffffffffffff821117156105ed576105ec610596565b5b80604052505050565b60006106006104eb565b905061060c82826105c5565b919050565b600067ffffffffffffffff82111561062c5761062b610596565b5b6106358261047f565b9050602081019050919050565b82818337600083830152505050565b600061066461065f84610611565b6105f6565b9050828152602081018484840111156106805761067f610591565b5b61068b848285610642565b509392505050565b600082601f8301126106a8576106a761058c565b5b81356106b8848260208601610651565b91505092915050565b600080604083850312156106d8576106d76104f5565b5b600083013567ffffffffffffffff8111156106f6576106f56104fa565b5b61070285828601610693565b925050602061071385828601610520565b9150509250929050565b600060208284031215610733576107326104f5565b5b600082013567ffffffffffffffff811115610751576107506104fa565b5b61075d84828501610693565b91505092915050565b7f4e487b7100000000000000000000000000000000000000000000000000000000600052602260045260246000fd5b600060028204905060018216806107ad57607f821691505b6020821081036107c0576107bf610766565b5b50919050565b60008190508160005260206000209050919050565b60006020601f8301049050919050565b600082821b905092915050565b6000600883026108287fffffffffffffffffffffffffffffffffffffffffffffffffffffffffffffffff826107eb565b61083286836107eb565b95508019841693508086168417925050509392505050565b6000819050919050565b600061086f61086a610865846104ff565b61084a565b6104ff565b9050919050565b6000819050919050565b61088983610854565b61089d61089582610876565b8484546107f8565b825550505050565b600090565b6108b26108a5565b6108bd818484610880565b505050565b5b818110156108e1576108d66000826108aa565b6001810190506108c3565b5050565b601f821115610926576108f7816107c6565b610900846107db565b8101602085101561090f578190505b61092361091b856107db565b8301826108c2565b50505b505050565b600082821c905092915050565b60006109496000198460080261092b565b1980831691505092915050565b60006109628383610938565b9150826002028217905092915050565b61097b82610439565b67ffffffffffffffff81111561099457610993610596565b5b61099e8254610795565b6109a98282856108e5565b600060209050601f8311600181146109dc57600084156109ca578287015190505b6109d48582610956565b865550610a3c565b601f1984166109ea866107c6565b60005b82811015610a12578489015182556001820191506020850194506020810190506109ed565b86831015610a2f5784890151610a2b601f891682610938565b8355505b6001600288020188555050505b50505050505056fea2646970667358221220920e105e517d69c876b0a6b28c4fb655ee9eb50bbf1c149afe8dd902fbc3bc5964736f6c63430008120033",
  "linkReferences": {},
  "deployedLinkReferences": {}
}