{
  "_format": "hh-sol-artifact-1",
  "contractName": "Greeting",
  "sourceName": "contracts/Greeting.sol",
  "abi": [
    {
      "inputs": [],
      "stateMutability": "nonpayable",
      "type": "constructor"
    },
    {
      "inputs": [],
      "name": "age",
      "outputs": [
        {
          "internalType": "uint256",
          "name": "",
          "type": "uint256"
        }
      ],
      "stateMutability": "view",
      "type": "function"
    },
    {
      "inputs": [],
      "name": "getAge",
      "outputs": [
        {
          "internalType": "uint256",
          "name": "",
          "type": "uint256"
        }
      ],
      "stateMutability": "view",
      "type": "function"
    },
    {
      "inputs": [],
      "name": "getName",
      "outputs": [
        {
          "internalType": "string",
          "name": "",
          "type": "string"
        }
      ],
      "stateMutability": "view",
      "type": "function"
    },
    {
      "inputs": [],
      "name": "name",
      "outputs": [
        {
          "internalType": "string",
          "name": "",
          "type": "string"
        }
      ],
      "stateMutability": "view",
      "type": "function"
    },
    {
      "inputs": [
        {
          "internalType": "uint256",
          "name": "_age",
          "type": "uint256"
        }
      ],
      "name": "setAge",
      "outputs": [],
      "stateMutability": "nonpayable",
      "type": "function"
    },
    {
      "inputs": [
        {
          "internalType": "string",
          "name": "_name",
          "type": "string"
        },
        {
          "internalType": "uint256",
          "name": "_age",
          "type": "uint256"
        }
      ],
      "name": "setAttributes",
      "outputs": [],
      "stateMutability": "payable",
      "type": "function"
    },
    {
      "inputs": [
        {
          "internalType": "string",
          "name": "_name",
          "type": "string"
        }
      ],
      "name": "setName",
      "outputs": [],
      "stateMutability": "nonpayable",
      "type": "function"
    }
  ],
  "bytecode": "0x60806040523480156200001157600080fd5b506040518060400160405280600881526020017f4772656574696e6700000000000000000000000000000000000000000000000081525060009081620000589190620002e1565b506012600181905550620003c8565b600081519050919050565b7f4e487b7100000000000000000000000000000000000000000000000000000000600052604160045260246000fd5b7f4e487b7100000000000000000000000000000000000000000000000000000000600052602260045260246000fd5b60006002820490506001821680620000e957607f821691505b602082108103620000ff57620000fe620000a1565b5b50919050565b60008190508160005260206000209050919050565b60006020601f8301049050919050565b600082821b905092915050565b600060088302620001697fffffffffffffffffffffffffffffffffffffffffffffffffffffffffffffffff826200012a565b6200017586836200012a565b95508019841693508086168417925050509392505050565b6000819050919050565b6000819050919050565b6000620001c2620001bc620001b6846200018d565b62000197565b6200018d565b9050919050565b6000819050919050565b620001de83620001a1565b620001f6620001ed82620001c9565b84845462000137565b825550505050565b600090565b6200020d620001fe565b6200021a818484620001d3565b505050565b5b8181101562000242576200023660008262000203565b60018101905062000220565b5050565b601f82111562000291576200025b8162000105565b62000266846200011a565b8101602085101562000276578190505b6200028e62000285856200011a565b8301826200021f565b50505b505050565b600082821c905092915050565b6000620002b66000198460080262000296565b1980831691505092915050565b6000620002d18383620002a3565b9150826002028217905092915050565b620002ec8262000067565b67ffffffffffffffff81111562000308576200030762000072565b5b620003148254620000d0565b6200032182828562000246565b600060209050601f83116001811462000359576000841562000344578287015190505b620003508582620002c3565b865550620003c0565b601f198416620003698662000105565b60005b8281101562000393578489015182556001820191506020850194506020810190506200036c565b86831015620003b35784890151620003af601f891682620002a3565b8355505b6001600288020188555050505b505050505050565b61093880620003d86000396000f3fe6080604052600436106100705760003560e01c806373c275bc1161004e57806373c275bc146100f6578063967e6e6514610112578063c47f00271461013d578063d5dcf1271461016657610070565b806306fdde031461007557806317d7de7c146100a0578063262a9dff146100cb575b600080fd5b34801561008157600080fd5b5061008a61018f565b6040516100979190610387565b60405180910390f35b3480156100ac57600080fd5b506100b561021d565b6040516100c29190610387565b60405180910390f35b3480156100d757600080fd5b506100e06102af565b6040516100ed91906103c2565b60405180910390f35b610110600480360381019061010b9190610552565b6102b5565b005b34801561011e57600080fd5b506101276102d0565b60405161013491906103c2565b60405180910390f35b34801561014957600080fd5b50610164600480360381019061015f91906105ae565b6102da565b005b34801561017257600080fd5b5061018d600480360381019061018891906105f7565b6102ed565b005b6000805461019c90610653565b80601f01602080910402602001604051908101604052809291908181526020018280546101c890610653565b80156102155780601f106101ea57610100808354040283529160200191610215565b820191906000526020600020905b8154815290600101906020018083116101f857829003601f168201915b505050505081565b60606000805461022c90610653565b80601f016020809104026020016040519081016040528092919081815260200182805461025890610653565b80156102a55780601f1061027a576101008083540402835291602001916102a5565b820191906000526020600020905b81548152906001019060200180831161028857829003601f168201915b5050505050905090565b60015481565b81600090816102c49190610830565b50806001819055505050565b6000600154905090565b80600090816102e99190610830565b5050565b8060018190555050565b600081519050919050565b600082825260208201905092915050565b60005b83811015610331578082015181840152602081019050610316565b60008484015250505050565b6000601f19601f8301169050919050565b6000610359826102f7565b6103638185610302565b9350610373818560208601610313565b61037c8161033d565b840191505092915050565b600060208201905081810360008301526103a1818461034e565b905092915050565b6000819050919050565b6103bc816103a9565b82525050565b60006020820190506103d760008301846103b3565b92915050565b6000604051905090565b600080fd5b600080fd5b600080fd5b600080fd5b7f4e487b7100000000000000000000000000000000000000000000000000000000600052604160045260246000fd5b6104338261033d565b810181811067ffffffffffffffff82111715610452576104516103fb565b5b80604052505050565b60006104656103dd565b9050610471828261042a565b919050565b600067ffffffffffffffff821115610491576104906103fb565b5b61049a8261033d565b9050602081019050919050565b82818337600083830152505050565b60006104c96104c484610476565b61045b565b9050828152602081018484840111156104e5576104e46103f6565b5b6104f08482856104a7565b509392505050565b600082601f83011261050d5761050c6103f1565b5b813561051d8482602086016104b6565b91505092915050565b61052f816103a9565b811461053a57600080fd5b50565b60008135905061054c81610526565b92915050565b60008060408385031215610569576105686103e7565b5b600083013567ffffffffffffffff811115610587576105866103ec565b5b610593858286016104f8565b92505060206105a48582860161053d565b9150509250929050565b6000602082840312156105c4576105c36103e7565b5b600082013567ffffffffffffffff8111156105e2576105e16103ec565b5b6105ee848285016104f8565b91505092915050565b60006020828403121561060d5761060c6103e7565b5b600061061b8482850161053d565b91505092915050565b7f4e487b7100000000000000000000000000000000000000000000000000000000600052602260045260246000fd5b6000600282049050600182168061066b57607f821691505b60208210810361067e5761067d610624565b5b50919050565b60008190508160005260206000209050919050565b60006020601f8301049050919050565b600082821b905092915050565b6000600883026106e67fffffffffffffffffffffffffffffffffffffffffffffffffffffffffffffffff826106a9565b6106f086836106a9565b95508019841693508086168417925050509392505050565b6000819050919050565b600061072d610728610723846103a9565b610708565b6103a9565b9050919050565b6000819050919050565b61074783610712565b61075b61075382610734565b8484546106b6565b825550505050565b600090565b610770610763565b61077b81848461073e565b505050565b5b8181101561079f57610794600082610768565b600181019050610781565b5050565b601f8211156107e4576107b581610684565b6107be84610699565b810160208510156107cd578190505b6107e16107d985610699565b830182610780565b50505b505050565b600082821c905092915050565b6000610807600019846008026107e9565b1980831691505092915050565b600061082083836107f6565b9150826002028217905092915050565b610839826102f7565b67ffffffffffffffff811115610852576108516103fb565b5b61085c8254610653565b6108678282856107a3565b600060209050601f83116001811461089a5760008415610888578287015190505b6108928582610814565b8655506108fa565b601f1984166108a886610684565b60005b828110156108d0578489015182556001820191506020850194506020810190506108ab565b868310156108ed57848901516108e9601f8916826107f6565b8355505b6001600288020188555050505b50505050505056fea264697066735822122035924418fe28f8c211c22230bcceb9f7aafd1e11696968c3060edb513d64501f64736f6c63430008120033",
  "linkReferences": {},
  "deployedLinkReferences": {}
}