{
  "_format": "hh-sol-artifact-1",
  "contractName": "NFT",
  "sourceName": "contracts/NFT.sol",
  "abi": [
    {
      "inputs": [
        {
          "internalType": "string",
          "name": "_name",
          "type": "string"
        },
        {
          "internalType": "string",
          "name": "_symbol",
          "type": "string"
        }
      ],
      "stateMutability": "nonpayable",
      "type": "constructor"
    },
    {
      "anonymous": false,
      "inputs": [
        {
          "indexed": true,
          "internalType": "address",
          "name": "owner",
          "type": "address"
        },
        {
          "indexed": true,
          "internalType": "address",
          "name": "approved",
          "type": "address"
        },
        {
          "indexed": true,
          "internalType": "uint256",
          "name": "tokenId",
          "type": "uint256"
        }
      ],
      "name": "Approval",
      "type": "event"
    },
    {
      "anonymous": false,
      "inputs": [
        {
          "indexed": true,
          "internalType": "address",
          "name": "owner",
          "type": "address"
        },
        {
          "indexed": true,
          "internalType": "address",
          "name": "operator",
          "type": "address"
        },
        {
          "indexed": false,
          "internalType": "bool",
          "name": "approved",
          "type": "bool"
        }
      ],
      "name": "ApprovalForAll",
      "type": "event"
    },
    {
      "anonymous": false,
      "inputs": [
        {
          "indexed": true,
          "internalType": "address",
          "name": "from",
          "type": "address"
        },
        {
          "indexed": true,
          "internalType": "address",
          "name": "to",
          "type": "address"
        },
        {
          "indexed": true,
          "internalType": "uint256",
          "name": "tokenId",
          "type": "uint256"
        }
      ],
      "name": "Transfer",
      "type": "event"
    },
    {
      "inputs": [
        {
          "internalType": "address",
          "name": "to",
          "type": "address"
        },
        {
          "internalType": "uint256",
          "name": "tokenId",
          "type": "uint256"
        }
      ],
      "name": "approve",
      "outputs": [],
      "stateMutability": "nonpayable",
      "type": "function"
    },
    {
      "inputs": [
        {
          "internalType": "address",
          "name": "owner",
          "type": "address"
        }
      ],
      "name": "balanceOf",
      "outputs": [
        {
          "internalType": "uint256",
          "name": "",
          "type": "uint256"
        }
      ],
      "stateMutability": "view",
      "type": "function"
    },
    {
      "inputs": [
        {
          "internalType": "uint256",
          "name": "tokenId",
          "type": "uint256"
        }
      ],
      "name": "getApproved",
      "outputs": [
        {
          "internalType": "address",
          "name": "",
          "type": "address"
        }
      ],
      "stateMutability": "view",
      "type": "function"
    },
    {
      "inputs": [],
      "name": "getBalance",
      "outputs": [
        {
          "internalType": "uint256",
          "name": "",
          "type": "uint256"
        }
      ],
      "stateMutability": "view",
      "type": "function"
    },
    {
      "inputs": [
        {
          "internalType": "uint256",
          "name": "_id",
          "type": "uint256"
        }
      ],
      "name": "getDomain",
      "outputs": [
        {
          "components": [
            {
              "internalType": "string",
              "name": "name",
              "type": "string"
            },
            {
              "internalType": "uint256",
              "name": "cost",
              "type": "uint256"
            },
            {
              "internalType": "bool",
              "name": "isOwned",
              "type": "bool"
            }
          ],
          "internalType": "struct NFT.Domain",
          "name": "",
          "type": "tuple"
        }
      ],
      "stateMutability": "view",
      "type": "function"
    },
    {
      "inputs": [
        {
          "internalType": "address",
          "name": "owner",
          "type": "address"
        },
        {
          "internalType": "address",
          "name": "operator",
          "type": "address"
        }
      ],
      "name": "isApprovedForAll",
      "outputs": [
        {
          "internalType": "bool",
          "name": "",
          "type": "bool"
        }
      ],
      "stateMutability": "view",
      "type": "function"
    },
    {
      "inputs": [
        {
          "internalType": "string",
          "name": "_name",
          "type": "string"
        },
        {
          "internalType": "uint256",
          "name": "_cost",
          "type": "uint256"
        }
      ],
      "name": "listDomain",
      "outputs": [],
      "stateMutability": "nonpayable",
      "type": "function"
    },
    {
      "inputs": [],
      "name": "maxSupply",
      "outputs": [
        {
          "internalType": "uint256",
          "name": "",
          "type": "uint256"
        }
      ],
      "stateMutability": "view",
      "type": "function"
    },
    {
      "inputs": [
        {
          "internalType": "uint256",
          "name": "_id",
          "type": "uint256"
        }
      ],
      "name": "mint",
      "outputs": [],
      "stateMutability": "payable",
      "type": "function"
    },
    {
      "inputs": [],
      "name": "name",
      "outputs": [
        {
          "internalType": "string",
          "name": "",
          "type": "string"
        }
      ],
      "stateMutability": "view",
      "type": "function"
    },
    {
      "inputs": [],
      "name": "owner",
      "outputs": [
        {
          "internalType": "address",
          "name": "",
          "type": "address"
        }
      ],
      "stateMutability": "view",
      "type": "function"
    },
    {
      "inputs": [
        {
          "internalType": "uint256",
          "name": "tokenId",
          "type": "uint256"
        }
      ],
      "name": "ownerOf",
      "outputs": [
        {
          "internalType": "address",
          "name": "",
          "type": "address"
        }
      ],
      "stateMutability": "view",
      "type": "function"
    },
    {
      "inputs": [
        {
          "internalType": "address",
          "name": "from",
          "type": "address"
        },
        {
          "internalType": "address",
          "name": "to",
          "type": "address"
        },
        {
          "internalType": "uint256",
          "name": "tokenId",
          "type": "uint256"
        }
      ],
      "name": "safeTransferFrom",
      "outputs": [],
      "stateMutability": "nonpayable",
      "type": "function"
    },
    {
      "inputs": [
        {
          "internalType": "address",
          "name": "from",
          "type": "address"
        },
        {
          "internalType": "address",
          "name": "to",
          "type": "address"
        },
        {
          "internalType": "uint256",
          "name": "tokenId",
          "type": "uint256"
        },
        {
          "internalType": "bytes",
          "name": "data",
          "type": "bytes"
        }
      ],
      "name": "safeTransferFrom",
      "outputs": [],
      "stateMutability": "nonpayable",
      "type": "function"
    },
    {
      "inputs": [
        {
          "internalType": "address",
          "name": "operator",
          "type": "address"
        },
        {
          "internalType": "bool",
          "name": "approved",
          "type": "bool"
        }
      ],
      "name": "setApprovalForAll",
      "outputs": [],
      "stateMutability": "nonpayable",
      "type": "function"
    },
    {
      "inputs": [
        {
          "internalType": "bytes4",
          "name": "interfaceId",
          "type": "bytes4"
        }
      ],
      "name": "supportsInterface",
      "outputs": [
        {
          "internalType": "bool",
          "name": "",
          "type": "bool"
        }
      ],
      "stateMutability": "view",
      "type": "function"
    },
    {
      "inputs": [],
      "name": "symbol",
      "outputs": [
        {
          "internalType": "string",
          "name": "",
          "type": "string"
        }
      ],
      "stateMutability": "view",
      "type": "function"
    },
    {
      "inputs": [
        {
          "internalType": "uint256",
          "name": "tokenId",
          "type": "uint256"
        }
      ],
      "name": "tokenURI",
      "outputs": [
        {
          "internalType": "string",
          "name": "",
          "type": "string"
        }
      ],
      "stateMutability": "view",
      "type": "function"
    },
    {
      "inputs": [],
      "name": "totalSupply",
      "outputs": [
        {
          "internalType": "uint256",
          "name": "",
          "type": "uint256"
        }
      ],
      "stateMutability": "view",
      "type": "function"
    },
    {
      "inputs": [
        {
          "internalType": "address",
          "name": "from",
          "type": "address"
        },
        {
          "internalType": "address",
          "name": "to",
          "type": "address"
        },
        {
          "internalType": "uint256",
          "name": "tokenId",
          "type": "uint256"
        }
      ],
      "name": "transferFrom",
      "outputs": [],
      "stateMutability": "nonpayable",
      "type": "function"
    },
    {
      "inputs": [],
      "name": "withdraw",
      "outputs": [],
      "stateMutability": "nonpayable",
      "type": "function"
    }
  ],
  "bytecode": "0x60806040523480156200001157600080fd5b50604051620035d7380380620035d783398181016040528101906200003791906200023b565b818181600090816200004a91906200050b565b5080600190816200005c91906200050b565b50505033600860006101000a81548173ffffffffffffffffffffffffffffffffffffffff021916908373ffffffffffffffffffffffffffffffffffffffff1602179055505050620005f2565b6000604051905090565b600080fd5b600080fd5b600080fd5b600080fd5b6000601f19601f8301169050919050565b7f4e487b7100000000000000000000000000000000000000000000000000000000600052604160045260246000fd5b6200011182620000c6565b810181811067ffffffffffffffff82111715620001335762000132620000d7565b5b80604052505050565b600062000148620000a8565b905062000156828262000106565b919050565b600067ffffffffffffffff821115620001795762000178620000d7565b5b6200018482620000c6565b9050602081019050919050565b60005b83811015620001b157808201518184015260208101905062000194565b60008484015250505050565b6000620001d4620001ce846200015b565b6200013c565b905082815260208101848484011115620001f357620001f2620000c1565b5b6200020084828562000191565b509392505050565b600082601f83011262000220576200021f620000bc565b5b815162000232848260208601620001bd565b91505092915050565b60008060408385031215620002555762000254620000b2565b5b600083015167ffffffffffffffff811115620002765762000275620000b7565b5b620002848582860162000208565b925050602083015167ffffffffffffffff811115620002a857620002a7620000b7565b5b620002b68582860162000208565b9150509250929050565b600081519050919050565b7f4e487b7100000000000000000000000000000000000000000000000000000000600052602260045260246000fd5b600060028204905060018216806200031357607f821691505b602082108103620003295762000328620002cb565b5b50919050565b60008190508160005260206000209050919050565b60006020601f8301049050919050565b600082821b905092915050565b600060088302620003937fffffffffffffffffffffffffffffffffffffffffffffffffffffffffffffffff8262000354565b6200039f868362000354565b95508019841693508086168417925050509392505050565b6000819050919050565b6000819050919050565b6000620003ec620003e6620003e084620003b7565b620003c1565b620003b7565b9050919050565b6000819050919050565b6200040883620003cb565b620004206200041782620003f3565b84845462000361565b825550505050565b600090565b6200043762000428565b62000444818484620003fd565b505050565b5b818110156200046c57620004606000826200042d565b6001810190506200044a565b5050565b601f821115620004bb5762000485816200032f565b620004908462000344565b81016020851015620004a0578190505b620004b8620004af8562000344565b83018262000449565b50505b505050565b600082821c905092915050565b6000620004e060001984600802620004c0565b1980831691505092915050565b6000620004fb8383620004cd565b9150826002028217905092915050565b6200051682620002c0565b67ffffffffffffffff811115620005325762000531620000d7565b5b6200053e8254620002fa565b6200054b82828562000470565b600060209050601f8311600181146200058357600084156200056e578287015190505b6200057a8582620004ed565b865550620005ea565b601f19841662000593866200032f565b60005b82811015620005bd5784890151825560018201915060208501945060208101905062000596565b86831015620005dd5784890151620005d9601f891682620004cd565b8355505b6001600288020188555050505b505050505050565b612fd580620006026000396000f3fe60806040526004361061012a5760003560e01c80635def3987116100ab578063a0712d681161006f578063a0712d68146103f2578063a22cb4651461040e578063b88d4fde14610437578063c87b56dd14610460578063d5abeb011461049d578063e985e9c5146104c85761012a565b80635def3987146102f95780636352211e1461032257806370a082311461035f5780638da5cb5b1461039c57806395d89b41146103c75761012a565b806318160ddd116100f257806318160ddd146102285780631a7a98e21461025357806323b872dd146102905780633ccfd60b146102b957806342842e0e146102d05761012a565b806301ffc9a71461012f57806306fdde031461016c578063081812fc14610197578063095ea7b3146101d457806312065fe0146101fd575b600080fd5b34801561013b57600080fd5b5061015660048036038101906101519190611dbf565b610505565b6040516101639190611e07565b60405180910390f35b34801561017857600080fd5b506101816105e7565b60405161018e9190611eb2565b60405180910390f35b3480156101a357600080fd5b506101be60048036038101906101b99190611f0a565b610679565b6040516101cb9190611f78565b60405180910390f35b3480156101e057600080fd5b506101fb60048036038101906101f69190611fbf565b6106bf565b005b34801561020957600080fd5b506102126107d6565b60405161021f919061200e565b60405180910390f35b34801561023457600080fd5b5061023d6107de565b60405161024a919061200e565b60405180910390f35b34801561025f57600080fd5b5061027a60048036038101906102759190611f0a565b6107e4565b60405161028791906120e1565b60405180910390f35b34801561029c57600080fd5b506102b760048036038101906102b29190612103565b6108c8565b005b3480156102c557600080fd5b506102ce610928565b005b3480156102dc57600080fd5b506102f760048036038101906102f29190612103565b610a1d565b005b34801561030557600080fd5b50610320600480360381019061031b919061228b565b610a3d565b005b34801561032e57600080fd5b5061034960048036038101906103449190611f0a565b610b29565b6040516103569190611f78565b60405180910390f35b34801561036b57600080fd5b50610386600480360381019061038191906122e7565b610baf565b604051610393919061200e565b60405180910390f35b3480156103a857600080fd5b506103b1610c66565b6040516103be9190611f78565b60405180910390f35b3480156103d357600080fd5b506103dc610c8c565b6040516103e99190611eb2565b60405180910390f35b61040c60048036038101906104079190611f0a565b610d1e565b005b34801561041a57600080fd5b5061043560048036038101906104309190612340565b610de8565b005b34801561044357600080fd5b5061045e60048036038101906104599190612421565b610dfe565b005b34801561046c57600080fd5b5061048760048036038101906104829190611f0a565b610e60565b6040516104949190611eb2565b60405180910390f35b3480156104a957600080fd5b506104b2610ec8565b6040516104bf919061200e565b60405180910390f35b3480156104d457600080fd5b506104ef60048036038101906104ea91906124a4565b610ece565b6040516104fc9190611e07565b60405180910390f35b60007f80ac58cd000000000000000000000000000000000000000000000000000000007bffffffffffffffffffffffffffffffffffffffffffffffffffffffff1916827bffffffffffffffffffffffffffffffffffffffffffffffffffffffff191614806105d057507f5b5e139f000000000000000000000000000000000000000000000000000000007bffffffffffffffffffffffffffffffffffffffffffffffffffffffff1916827bffffffffffffffffffffffffffffffffffffffffffffffffffffffff1916145b806105e057506105df82610f62565b5b9050919050565b6060600080546105f690612513565b80601f016020809104026020016040519081016040528092919081815260200182805461062290612513565b801561066f5780601f106106445761010080835404028352916020019161066f565b820191906000526020600020905b81548152906001019060200180831161065257829003601f168201915b5050505050905090565b600061068482610fcc565b6004600083815260200190815260200160002060009054906101000a900473ffffffffffffffffffffffffffffffffffffffff169050919050565b60006106ca82610b29565b90508073ffffffffffffffffffffffffffffffffffffffff168373ffffffffffffffffffffffffffffffffffffffff160361073a576040517f08c379a0000000000000000000000000000000000000000000000000000000008152600401610731906125b6565b60405180910390fd5b8073ffffffffffffffffffffffffffffffffffffffff16610759611017565b73ffffffffffffffffffffffffffffffffffffffff161480610788575061078781610782611017565b610ece565b5b6107c7576040517f08c379a00000000000000000000000000000000000000000000000000000000081526004016107be90612648565b60405180910390fd5b6107d1838361101f565b505050565b600047905090565b60075481565b6107ec611d30565b6009600083815260200190815260200160002060405180606001604052908160008201805461081a90612513565b80601f016020809104026020016040519081016040528092919081815260200182805461084690612513565b80156108935780601f1061086857610100808354040283529160200191610893565b820191906000526020600020905b81548152906001019060200180831161087657829003601f168201915b50505050508152602001600182015481526020016002820160009054906101000a900460ff1615151515815250509050919050565b6108d96108d3611017565b826110d8565b610918576040517f08c379a000000000000000000000000000000000000000000000000000000000815260040161090f906126da565b60405180910390fd5b61092383838361116d565b505050565b600860009054906101000a900473ffffffffffffffffffffffffffffffffffffffff1673ffffffffffffffffffffffffffffffffffffffff163373ffffffffffffffffffffffffffffffffffffffff161461098257600080fd5b6000600860009054906101000a900473ffffffffffffffffffffffffffffffffffffffff1673ffffffffffffffffffffffffffffffffffffffff16476040516109ca9061272b565b60006040518083038185875af1925050503d8060008114610a07576040519150601f19603f3d011682016040523d82523d6000602084013e610a0c565b606091505b5050905080610a1a57600080fd5b50565b610a3883838360405180602001604052806000815250610dfe565b505050565b600860009054906101000a900473ffffffffffffffffffffffffffffffffffffffff1673ffffffffffffffffffffffffffffffffffffffff163373ffffffffffffffffffffffffffffffffffffffff1614610a9757600080fd5b60066000815480929190610aaa9061276f565b91905055506040518060600160405280838152602001828152602001600015158152506009600060065481526020019081526020016000206000820151816000019081610af79190612963565b506020820151816001015560408201518160020160006101000a81548160ff0219169083151502179055509050505050565b600080610b3583611466565b9050600073ffffffffffffffffffffffffffffffffffffffff168173ffffffffffffffffffffffffffffffffffffffff1603610ba6576040517f08c379a0000000000000000000000000000000000000000000000000000000008152600401610b9d90612a81565b60405180910390fd5b80915050919050565b60008073ffffffffffffffffffffffffffffffffffffffff168273ffffffffffffffffffffffffffffffffffffffff1603610c1f576040517f08c379a0000000000000000000000000000000000000000000000000000000008152600401610c1690612b13565b60405180910390fd5b600360008373ffffffffffffffffffffffffffffffffffffffff1673ffffffffffffffffffffffffffffffffffffffff168152602001908152602001600020549050919050565b600860009054906101000a900473ffffffffffffffffffffffffffffffffffffffff1681565b606060018054610c9b90612513565b80601f0160208091040260200160405190810160405280929190818152602001828054610cc790612513565b8015610d145780601f10610ce957610100808354040283529160200191610d14565b820191906000526020600020905b815481529060010190602001808311610cf757829003601f168201915b5050505050905090565b60008111610d2b57600080fd5b600654811115610d3a57600080fd5b60006009600083815260200190815260200160002060020160006101000a81548160ff0219169083151502179055610d7157600080fd5b6009600082815260200190815260200160002060010154341015610d9457600080fd5b60016009600083815260200190815260200160002060020160006101000a81548160ff02191690831515021790555060076000815480929190610dd69061276f565b9190505550610de533826114a3565b50565b610dfa610df3611017565b83836114c1565b5050565b610e0f610e09611017565b836110d8565b610e4e576040517f08c379a0000000000000000000000000000000000000000000000000000000008152600401610e45906126da565b60405180910390fd5b610e5a8484848461162d565b50505050565b6060610e6b82610fcc565b6000610e75611689565b90506000815111610e955760405180602001604052806000815250610ec0565b80610e9f846116a0565b604051602001610eb0929190612b6f565b6040516020818303038152906040525b915050919050565b60065481565b6000600560008473ffffffffffffffffffffffffffffffffffffffff1673ffffffffffffffffffffffffffffffffffffffff16815260200190815260200160002060008373ffffffffffffffffffffffffffffffffffffffff1673ffffffffffffffffffffffffffffffffffffffff16815260200190815260200160002060009054906101000a900460ff16905092915050565b60007f01ffc9a7000000000000000000000000000000000000000000000000000000007bffffffffffffffffffffffffffffffffffffffffffffffffffffffff1916827bffffffffffffffffffffffffffffffffffffffffffffffffffffffff1916149050919050565b610fd58161176e565b611014576040517f08c379a000000000000000000000000000000000000000000000000000000000815260040161100b90612a81565b60405180910390fd5b50565b600033905090565b816004600083815260200190815260200160002060006101000a81548173ffffffffffffffffffffffffffffffffffffffff021916908373ffffffffffffffffffffffffffffffffffffffff160217905550808273ffffffffffffffffffffffffffffffffffffffff1661109283610b29565b73ffffffffffffffffffffffffffffffffffffffff167f8c5be1e5ebec7d5bd14f71427d1e84f3dd0314c0f7b2291e5b200ac8c7c3b92560405160405180910390a45050565b6000806110e483610b29565b90508073ffffffffffffffffffffffffffffffffffffffff168473ffffffffffffffffffffffffffffffffffffffff16148061112657506111258185610ece565b5b8061116457508373ffffffffffffffffffffffffffffffffffffffff1661114c84610679565b73ffffffffffffffffffffffffffffffffffffffff16145b91505092915050565b8273ffffffffffffffffffffffffffffffffffffffff1661118d82610b29565b73ffffffffffffffffffffffffffffffffffffffff16146111e3576040517f08c379a00000000000000000000000000000000000000000000000000000000081526004016111da90612c05565b60405180910390fd5b600073ffffffffffffffffffffffffffffffffffffffff168273ffffffffffffffffffffffffffffffffffffffff1603611252576040517f08c379a000000000000000000000000000000000000000000000000000000000815260040161124990612c97565b60405180910390fd5b61125f83838360016117af565b8273ffffffffffffffffffffffffffffffffffffffff1661127f82610b29565b73ffffffffffffffffffffffffffffffffffffffff16146112d5576040517f08c379a00000000000000000000000000000000000000000000000000000000081526004016112cc90612c05565b60405180910390fd5b6004600082815260200190815260200160002060006101000a81549073ffffffffffffffffffffffffffffffffffffffff02191690556001600360008573ffffffffffffffffffffffffffffffffffffffff1673ffffffffffffffffffffffffffffffffffffffff168152602001908152602001600020600082825403925050819055506001600360008473ffffffffffffffffffffffffffffffffffffffff1673ffffffffffffffffffffffffffffffffffffffff16815260200190815260200160002060008282540192505081905550816002600083815260200190815260200160002060006101000a81548173ffffffffffffffffffffffffffffffffffffffff021916908373ffffffffffffffffffffffffffffffffffffffff160217905550808273ffffffffffffffffffffffffffffffffffffffff168473ffffffffffffffffffffffffffffffffffffffff167fddf252ad1be2c89b69c2b068fc378daa952ba7f163c4a11628f55a4df523b3ef60405160405180910390a461146183838360016117b5565b505050565b60006002600083815260200190815260200160002060009054906101000a900473ffffffffffffffffffffffffffffffffffffffff169050919050565b6114bd8282604051806020016040528060008152506117bb565b5050565b8173ffffffffffffffffffffffffffffffffffffffff168373ffffffffffffffffffffffffffffffffffffffff160361152f576040517f08c379a000000000000000000000000000000000000000000000000000000000815260040161152690612d03565b60405180910390fd5b80600560008573ffffffffffffffffffffffffffffffffffffffff1673ffffffffffffffffffffffffffffffffffffffff16815260200190815260200160002060008473ffffffffffffffffffffffffffffffffffffffff1673ffffffffffffffffffffffffffffffffffffffff16815260200190815260200160002060006101000a81548160ff0219169083151502179055508173ffffffffffffffffffffffffffffffffffffffff168373ffffffffffffffffffffffffffffffffffffffff167f17307eab39ab6107e8899845ad3d59bd9653f200f220920489ca2b5937696c31836040516116209190611e07565b60405180910390a3505050565b61163884848461116d565b61164484848484611816565b611683576040517f08c379a000000000000000000000000000000000000000000000000000000000815260040161167a90612d95565b60405180910390fd5b50505050565b606060405180602001604052806000815250905090565b6060600060016116af8461199d565b01905060008167ffffffffffffffff8111156116ce576116cd612160565b5b6040519080825280601f01601f1916602001820160405280156117005781602001600182028036833780820191505090505b509050600082602001820190505b600115611763578080600190039150507f3031323334353637383961626364656600000000000000000000000000000000600a86061a8153600a858161175757611756612db5565b5b0494506000850361170e575b819350505050919050565b60008073ffffffffffffffffffffffffffffffffffffffff1661179083611466565b73ffffffffffffffffffffffffffffffffffffffff1614159050919050565b50505050565b50505050565b6117c58383611af0565b6117d26000848484611816565b611811576040517f08c379a000000000000000000000000000000000000000000000000000000000815260040161180890612d95565b60405180910390fd5b505050565b60006118378473ffffffffffffffffffffffffffffffffffffffff16611d0d565b15611990578373ffffffffffffffffffffffffffffffffffffffff1663150b7a02611860611017565b8786866040518563ffffffff1660e01b81526004016118829493929190612e39565b6020604051808303816000875af19250505080156118be57506040513d601f19601f820116820180604052508101906118bb9190612e9a565b60015b611940573d80600081146118ee576040519150601f19603f3d011682016040523d82523d6000602084013e6118f3565b606091505b506000815103611938576040517f08c379a000000000000000000000000000000000000000000000000000000000815260040161192f90612d95565b60405180910390fd5b805181602001fd5b63150b7a0260e01b7bffffffffffffffffffffffffffffffffffffffffffffffffffffffff1916817bffffffffffffffffffffffffffffffffffffffffffffffffffffffff191614915050611995565b600190505b949350505050565b600080600090507a184f03e93ff9f4daa797ed6e38ed64bf6a1f01000000000000000083106119fb577a184f03e93ff9f4daa797ed6e38ed64bf6a1f01000000000000000083816119f1576119f0612db5565b5b0492506040810190505b6d04ee2d6d415b85acef81000000008310611a38576d04ee2d6d415b85acef81000000008381611a2e57611a2d612db5565b5b0492506020810190505b662386f26fc100008310611a6757662386f26fc100008381611a5d57611a5c612db5565b5b0492506010810190505b6305f5e1008310611a90576305f5e1008381611a8657611a85612db5565b5b0492506008810190505b6127108310611ab5576127108381611aab57611aaa612db5565b5b0492506004810190505b60648310611ad85760648381611ace57611acd612db5565b5b0492506002810190505b600a8310611ae7576001810190505b80915050919050565b600073ffffffffffffffffffffffffffffffffffffffff168273ffffffffffffffffffffffffffffffffffffffff1603611b5f576040517f08c379a0000000000000000000000000000000000000000000000000000000008152600401611b5690612f13565b60405180910390fd5b611b688161176e565b15611ba8576040517f08c379a0000000000000000000000000000000000000000000000000000000008152600401611b9f90612f7f565b60405180910390fd5b611bb66000838360016117af565b611bbf8161176e565b15611bff576040517f08c379a0000000000000000000000000000000000000000000000000000000008152600401611bf690612f7f565b60405180910390fd5b6001600360008473ffffffffffffffffffffffffffffffffffffffff1673ffffffffffffffffffffffffffffffffffffffff16815260200190815260200160002060008282540192505081905550816002600083815260200190815260200160002060006101000a81548173ffffffffffffffffffffffffffffffffffffffff021916908373ffffffffffffffffffffffffffffffffffffffff160217905550808273ffffffffffffffffffffffffffffffffffffffff16600073ffffffffffffffffffffffffffffffffffffffff167fddf252ad1be2c89b69c2b068fc378daa952ba7f163c4a11628f55a4df523b3ef60405160405180910390a4611d096000838360016117b5565b5050565b6000808273ffffffffffffffffffffffffffffffffffffffff163b119050919050565b604051806060016040528060608152602001600081526020016000151581525090565b6000604051905090565b600080fd5b600080fd5b60007fffffffff0000000000000000000000000000000000000000000000000000000082169050919050565b611d9c81611d67565b8114611da757600080fd5b50565b600081359050611db981611d93565b92915050565b600060208284031215611dd557611dd4611d5d565b5b6000611de384828501611daa565b91505092915050565b60008115159050919050565b611e0181611dec565b82525050565b6000602082019050611e1c6000830184611df8565b92915050565b600081519050919050565b600082825260208201905092915050565b60005b83811015611e5c578082015181840152602081019050611e41565b60008484015250505050565b6000601f19601f8301169050919050565b6000611e8482611e22565b611e8e8185611e2d565b9350611e9e818560208601611e3e565b611ea781611e68565b840191505092915050565b60006020820190508181036000830152611ecc8184611e79565b905092915050565b6000819050919050565b611ee781611ed4565b8114611ef257600080fd5b50565b600081359050611f0481611ede565b92915050565b600060208284031215611f2057611f1f611d5d565b5b6000611f2e84828501611ef5565b91505092915050565b600073ffffffffffffffffffffffffffffffffffffffff82169050919050565b6000611f6282611f37565b9050919050565b611f7281611f57565b82525050565b6000602082019050611f8d6000830184611f69565b92915050565b611f9c81611f57565b8114611fa757600080fd5b50565b600081359050611fb981611f93565b92915050565b60008060408385031215611fd657611fd5611d5d565b5b6000611fe485828601611faa565b9250506020611ff585828601611ef5565b9150509250929050565b61200881611ed4565b82525050565b60006020820190506120236000830184611fff565b92915050565b600082825260208201905092915050565b600061204582611e22565b61204f8185612029565b935061205f818560208601611e3e565b61206881611e68565b840191505092915050565b61207c81611ed4565b82525050565b61208b81611dec565b82525050565b600060608301600083015184820360008601526120ae828261203a565b91505060208301516120c36020860182612073565b5060408301516120d66040860182612082565b508091505092915050565b600060208201905081810360008301526120fb8184612091565b905092915050565b60008060006060848603121561211c5761211b611d5d565b5b600061212a86828701611faa565b935050602061213b86828701611faa565b925050604061214c86828701611ef5565b9150509250925092565b600080fd5b600080fd5b7f4e487b7100000000000000000000000000000000000000000000000000000000600052604160045260246000fd5b61219882611e68565b810181811067ffffffffffffffff821117156121b7576121b6612160565b5b80604052505050565b60006121ca611d53565b90506121d6828261218f565b919050565b600067ffffffffffffffff8211156121f6576121f5612160565b5b6121ff82611e68565b9050602081019050919050565b82818337600083830152505050565b600061222e612229846121db565b6121c0565b90508281526020810184848401111561224a5761224961215b565b5b61225584828561220c565b509392505050565b600082601f83011261227257612271612156565b5b813561228284826020860161221b565b91505092915050565b600080604083850312156122a2576122a1611d5d565b5b600083013567ffffffffffffffff8111156122c0576122bf611d62565b5b6122cc8582860161225d565b92505060206122dd85828601611ef5565b9150509250929050565b6000602082840312156122fd576122fc611d5d565b5b600061230b84828501611faa565b91505092915050565b61231d81611dec565b811461232857600080fd5b50565b60008135905061233a81612314565b92915050565b6000806040838503121561235757612356611d5d565b5b600061236585828601611faa565b92505060206123768582860161232b565b9150509250929050565b600067ffffffffffffffff82111561239b5761239a612160565b5b6123a482611e68565b9050602081019050919050565b60006123c46123bf84612380565b6121c0565b9050828152602081018484840111156123e0576123df61215b565b5b6123eb84828561220c565b509392505050565b600082601f83011261240857612407612156565b5b81356124188482602086016123b1565b91505092915050565b6000806000806080858703121561243b5761243a611d5d565b5b600061244987828801611faa565b945050602061245a87828801611faa565b935050604061246b87828801611ef5565b925050606085013567ffffffffffffffff81111561248c5761248b611d62565b5b612498878288016123f3565b91505092959194509250565b600080604083850312156124bb576124ba611d5d565b5b60006124c985828601611faa565b92505060206124da85828601611faa565b9150509250929050565b7f4e487b7100000000000000000000000000000000000000000000000000000000600052602260045260246000fd5b6000600282049050600182168061252b57607f821691505b60208210810361253e5761253d6124e4565b5b50919050565b7f4552433732313a20617070726f76616c20746f2063757272656e74206f776e6560008201527f7200000000000000000000000000000000000000000000000000000000000000602082015250565b60006125a0602183611e2d565b91506125ab82612544565b604082019050919050565b600060208201905081810360008301526125cf81612593565b9050919050565b7f4552433732313a20617070726f76652063616c6c6572206973206e6f7420746f60008201527f6b656e206f776e6572206f7220617070726f76656420666f7220616c6c000000602082015250565b6000612632603d83611e2d565b915061263d826125d6565b604082019050919050565b6000602082019050818103600083015261266181612625565b9050919050565b7f4552433732313a2063616c6c6572206973206e6f7420746f6b656e206f776e6560008201527f72206f7220617070726f76656400000000000000000000000000000000000000602082015250565b60006126c4602d83611e2d565b91506126cf82612668565b604082019050919050565b600060208201905081810360008301526126f3816126b7565b9050919050565b600081905092915050565b50565b60006127156000836126fa565b915061272082612705565b600082019050919050565b600061273682612708565b9150819050919050565b7f4e487b7100000000000000000000000000000000000000000000000000000000600052601160045260246000fd5b600061277a82611ed4565b91507fffffffffffffffffffffffffffffffffffffffffffffffffffffffffffffffff82036127ac576127ab612740565b5b600182019050919050565b60008190508160005260206000209050919050565b60006020601f8301049050919050565b600082821b905092915050565b6000600883026128197fffffffffffffffffffffffffffffffffffffffffffffffffffffffffffffffff826127dc565b61282386836127dc565b95508019841693508086168417925050509392505050565b6000819050919050565b600061286061285b61285684611ed4565b61283b565b611ed4565b9050919050565b6000819050919050565b61287a83612845565b61288e61288682612867565b8484546127e9565b825550505050565b600090565b6128a3612896565b6128ae818484612871565b505050565b5b818110156128d2576128c760008261289b565b6001810190506128b4565b5050565b601f821115612917576128e8816127b7565b6128f1846127cc565b81016020851015612900578190505b61291461290c856127cc565b8301826128b3565b50505b505050565b600082821c905092915050565b600061293a6000198460080261291c565b1980831691505092915050565b60006129538383612929565b9150826002028217905092915050565b61296c82611e22565b67ffffffffffffffff81111561298557612984612160565b5b61298f8254612513565b61299a8282856128d6565b600060209050601f8311600181146129cd57600084156129bb578287015190505b6129c58582612947565b865550612a2d565b601f1984166129db866127b7565b60005b82811015612a03578489015182556001820191506020850194506020810190506129de565b86831015612a205784890151612a1c601f891682612929565b8355505b6001600288020188555050505b505050505050565b7f4552433732313a20696e76616c696420746f6b656e2049440000000000000000600082015250565b6000612a6b601883611e2d565b9150612a7682612a35565b602082019050919050565b60006020820190508181036000830152612a9a81612a5e565b9050919050565b7f4552433732313a2061646472657373207a65726f206973206e6f74206120766160008201527f6c6964206f776e65720000000000000000000000000000000000000000000000602082015250565b6000612afd602983611e2d565b9150612b0882612aa1565b604082019050919050565b60006020820190508181036000830152612b2c81612af0565b9050919050565b600081905092915050565b6000612b4982611e22565b612b538185612b33565b9350612b63818560208601611e3e565b80840191505092915050565b6000612b7b8285612b3e565b9150612b878284612b3e565b91508190509392505050565b7f4552433732313a207472616e736665722066726f6d20696e636f72726563742060008201527f6f776e6572000000000000000000000000000000000000000000000000000000602082015250565b6000612bef602583611e2d565b9150612bfa82612b93565b604082019050919050565b60006020820190508181036000830152612c1e81612be2565b9050919050565b7f4552433732313a207472616e7366657220746f20746865207a65726f2061646460008201527f7265737300000000000000000000000000000000000000000000000000000000602082015250565b6000612c81602483611e2d565b9150612c8c82612c25565b604082019050919050565b60006020820190508181036000830152612cb081612c74565b9050919050565b7f4552433732313a20617070726f766520746f2063616c6c657200000000000000600082015250565b6000612ced601983611e2d565b9150612cf882612cb7565b602082019050919050565b60006020820190508181036000830152612d1c81612ce0565b9050919050565b7f4552433732313a207472616e7366657220746f206e6f6e20455243373231526560008201527f63656976657220696d706c656d656e7465720000000000000000000000000000602082015250565b6000612d7f603283611e2d565b9150612d8a82612d23565b604082019050919050565b60006020820190508181036000830152612dae81612d72565b9050919050565b7f4e487b7100000000000000000000000000000000000000000000000000000000600052601260045260246000fd5b600081519050919050565b600082825260208201905092915050565b6000612e0b82612de4565b612e158185612def565b9350612e25818560208601611e3e565b612e2e81611e68565b840191505092915050565b6000608082019050612e4e6000830187611f69565b612e5b6020830186611f69565b612e686040830185611fff565b8181036060830152612e7a8184612e00565b905095945050505050565b600081519050612e9481611d93565b92915050565b600060208284031215612eb057612eaf611d5d565b5b6000612ebe84828501612e85565b91505092915050565b7f4552433732313a206d696e7420746f20746865207a65726f2061646472657373600082015250565b6000612efd602083611e2d565b9150612f0882612ec7565b602082019050919050565b60006020820190508181036000830152612f2c81612ef0565b9050919050565b7f4552433732313a20746f6b656e20616c7265616479206d696e74656400000000600082015250565b6000612f69601c83611e2d565b9150612f7482612f33565b602082019050919050565b60006020820190508181036000830152612f9881612f5c565b905091905056fea2646970667358221220aa0cb44995c6b68ec826cfe28c358b715543f05ce46475ea266cfc1d2773c66164736f6c63430008120033",
  "linkReferences": {},
  "deployedLinkReferences": {}
}