{
  "_format": "hh-sol-artifact-1",
  "contractName": "NewFile",
  "sourceName": "contracts/NewFile.sol",
  "abi": [
    {
      "inputs": [],
      "stateMutability": "nonpayable",
      "type": "constructor"
    },
    {
      "inputs": [],
      "name": "num",
      "outputs": [
        {
          "internalType": "uint256",
          "name": "",
          "type": "uint256"
        }
      ],
      "stateMutability": "view",
      "type": "function"
    }
  ],
  "bytecode": "0x608060405234801561001057600080fd5b50600a60008190555060b3806100276000396000f3fe6080604052348015600f57600080fd5b506004361060285760003560e01c80634e70b1dc14602d575b600080fd5b60336047565b604051603e91906064565b60405180910390f35b60005481565b6000819050919050565b605e81604d565b82525050565b6000602082019050607760008301846057565b9291505056fea2646970667358221220e0dc78b8c5ab8a60fa0941520ba82ffb91b8313ce5273df1ded580116ef5112964736f6c63430008120033",
  "linkReferences": {},
  "deployedLinkReferences": {}
}